S01600002E2F44656275672F5254532D4C61622E73313936
S3152000000000BFDFF814D003F00AFD01F0D1FD03F0A4
S3152000001018BDFEE700BF000000C0012080B483B0F9
S3152000002000AF0346FB71FB7903F01F03012202FA9E
S3152000003003F1064A97F907305B0942F8231000BFFF
S315200000400C37BD465DF8047B704700BF00E100E039
S3152000005080B483B000AF03463960FB7197F907304F
S31520000060002B0BDA3B68DAB20C49FB7903F00F035D
S31520000070043B1201D2B20B441A7609E03B68DAB28D
S31520000080074997F907301201D2B20B4483F80023AF
S3152000009000BF0C37BD465DF8047B704700ED00E0DD
S315200000A000E100E080B586B000AF786039607B68FB
S315200000B000229A617B689A697B685A617B685A69D3
S315200000C07B68DA61224800F00FFA07F10C03184624
S315200000D002F000FB0023BB740023FB7400233B7556
S315200000E000237B750023BB750023FB750023BB73A0
S315200000F00023FB7302233B7403237B740723BB81FA
S3152000010007F10C031946134802F050F90346002B59
S3152000011002D1114800F0E8F907F10C0319460F48FF
S3152000012002F044F90346002B02D10D4800F0DCF919
S3152000013002211420FFF78CFF1420FFF76FFF012206
S315200001400221044802F004FF00BF1837BD4680BDD7
S315200001503087002000640040588700200068004057
S3152000016070870020B0B58AB002AF786039607B68AE
S315200001709B685A49184602F009FF0346012B02D014
S31520000180574800F0B1F97B68DB69072B00F39F80A5
S315200001907B689B6807F108020021184602F0DEFC06
S315200001A0BB681B09DBB27A68526903F07F03D8B2B9
S315200001B0796813469B0013445B0013440B44203399
S315200001C002461A70BB68DBB27A68526903F00F03E5
S315200001D0D8B2796813469B0013445B0013440B4442
S315200001E0213302461A70BB7C7A68526903F00F03EA
S315200001F0D8B2796813469B0013445B0013440B4422
S31520000200223302461A700023FB7716E0FB7F7A68BA
S315200002105269F97F07F12000034413F80D4C7868E2
S3152000022013469B0013445B00134403440B442333BF
S3152000023022461A70FB7F0133FB777B685A697968FF
S3152000024013469B0013445B0013440B4422331B7854
S31520000250FA7F9A42DAD37B68DB68002B25D07B684D
S31520000260DC687B681D697B685A69796813469B0040
S3152000027013445B0013440B4420331B7819017B681D
S315200002805A69786813469B0013445B001344034461
S3152000029021331B780B4400932B4622460021002055
S315200002A000F05EFD0F4B01221A607B685B6901330B
S315200002B05A4203F0070302F0070258BF53427A68F6
S315200002C053617B68DB695A1C7B68DA6102E0064869
S315200002D000F00AF900BF2037BD46B0BD030000126A
S315200002E088870020AC930020B087002090B484B08B
S315200002F000AF786039607B68DB69002B55DD7B6851
S315200003009A69796813469B0013445B0013440B4497
S3152000031020331A783B681A707B689A697968134685
S315200003209B0013445B0013440B4421331A783B682B
S315200003305A707B689A69796813469B0013445B0060
S3152000034013440B4422331A783B689A700023FB73BC
S3152000035013E07B689A69F87BF97B7C6813469B00DF
S3152000036013445B0013442344034423331A783B6825
S315200003700B44DA70FB7B0133FB733B689B78FA7B7B
S315200003809A42E6D37B689B6901335A4203F00703FE
S3152000039002F0070258BF53427A6893617B68DB6993
S315200003A05A1E7B68DA61002300E0012318461037C5
S315200003B0BD4690BC704780B58AB000AF7860396082
S315200003C07B689B683B620023FB77234B3B623B6841
S315200003D01B781B013A6852781344BB6000237B7458
S315200003E000233B743B689B78082B02D93B68082284
S315200003F09A703B689B78BB74002387F8273010E0FF
S3152000040097F8272097F8273039680A44D27807F1D9
S3152000041028010B4403F8152C97F82730013387F869
S3152000042027303B689B7897F827209A42E8D307F134
S3152000043008031946386A02F011FA0346FB77FB7F58
S31520000440042B04D1054800F04FF8012300E00023D7
S3152000045018462837BD4680BD00680040D08700205A
S3152000046080B483B000AF0346FB71FB7903F01F0312
S31520000470012202FA03F1064A97F907305B0942F88E
S31520000480231000BF0C37BD465DF8047B704700BFC4
S3152000049000E100E080B483B000AF03463960FB7111
S315200004A097F90730002B0BDA3B68DAB20C49FB7957
S315200004B003F00F03043B1201D2B20B441A7609E073
S315200004C03B68DAB2074997F907301201D2B20B44DA
S315200004D083F8002300BF0C37BD465DF8047B7047C8
S315200004E000ED00E000E100E080B582B000AF78606A
S315200004F00EE07B681B780D2B07D07B685A1C7A6030
S315200005001B78184600F060F902E07B6801337B60B7
S315200005107B681B78002BECD100BF00BF0837BD4697
S3152000052080BD80B586B000AF786000237B617B6894
S3152000053003F00F027B69591C796110498A5C07F127
S3152000054018010B4403F80C2C7B681B097B607B6825
S31520000550002BECD10AE07B69013B7B6107F10C02A1
S315200005607B6913441B78184600F02EF97B69002B13
S31520000570F1D100BF00BF1837BD4680BD2C8D0020AD
S3152000058080B59EB000AF78607B68002B02DA4FF012
S31520000590FF3300E001233B677B683A6F02FB03F3DE
S315200005A07B6000237B6779681C4B83FB01239A10B1
S315200005B0CB17D21A13469B0013445B00CA1A7B6FD3
S315200005C0591C796716498A5C07F178010B4403F8B0
S315200005D06C2C7B68114A82FB03129210DB17D31A0C
S315200005E07B607B68002BDED13B6F002B0EDA2D2043
S315200005F000F0EAF80AE07B6F013B7B6707F10C020B
S315200006007B6F13441B78184600F0DEF87B6F002BB7
S31520000610F1D100BF00BF7837BD4680BD67666666EC
S315200006202C8D002080B483B000AF10237B607B68C4
S3152000063083F3118800BF00BF0C37BD465DF8047BED
S31520000640704780B483B000AF30237B607B6883F330
S31520000650118800BF00BF0C37BD465DF8047B70478C
S3152000066080B584B000AF78600B48FFF73DFF0B4B99
S315200006701B68002B02D1094B094A1A60074B1B68DD
S31520000680FB60064B1A687B681344044A1360FB68B8
S3152000069018461037BD4680BDE487002050970020BD
S315200006A06817012080B485B000AF786039603B6858
S315200006B003F5F95310337A6813607B681B68BB60B7
S315200006C00023FB600AE0FB689B001A46BB681344C4
S315200006D01A4600231360FB680133FB60FB68332B4B
S315200006E0F1DDBB686FF016021A60BB6804331A4648
S315200006F003231360BB6884331A464FF0807313605C
S3152000070000BF1437BD465DF8047B704780B485B0C2
S3152000071000AF786039607B681B688033FB60FB68BC
S315200007203A681A6000BF1437BD465DF8047B7047EF
S3152000073080B584B000AF1D4804F0A6FC3B1D1846CA
S3152000074004F0EEFD40F24733BB803B1D19461748A7
S3152000075004F07AFD164B174A1A6002216FF0010049
S31520000760FFF798FE144B154A1A6000216FF004001B
S31520000770FFF790FE124B134A1A6002213220FFF730
S3152000078089FE3220FFF76CFE0021084804F012FE95
S315200007900121064804F0DBFE01220221034805F070
S315200007A0AAFE00BF1037BD4680BD00BF000C00402A
S315200007B038C00120752200202CC001207122002083
S315200007C008C101204F0B002080B582B000AF034640
S315200007D0FB71FB799BB21946074806F0F2FE00BF73
S315200007E08021054807F0DCF80346002BF8D000BF2F
S315200007F000BF0837BD4680BD0010014080B500AF60
S31520000800124804F0F3FD03461A46114B1A60114BA9
S3152000081001221A60104B00221A60104B1B68002B15
S3152000082006D00E4B1B680E4A1268002110469847C8
S31520000830084B00221A60084B1B68002B01D000F0E1
S315200008405DFA054B00221A6000BF80BD000C0040F7
S31520000850B0930020A8930020AC9300206094002041
S315200008600094002080B500AF124804F0BFFD034677
S315200008701A46114B1A60114B01221A60104B0022A6
S315200008801A60104B5B68002B06D00E4B5B680E4A35
S315200008905268012110469847084B00221A60084BDF
S315200008A01B68002B01D000F029FA054B00221A60A4
S315200008B000BF80BD000C0040B0930020A89300200C
S315200008C0AC930020609400200094002080B500AFF7
S315200008D0124804F08BFD03461A46114B1A60114B41
S315200008E001221A60104B00221A60104B9B68002BC5
S315200008F006D00E4B9B680E4A9268022110469847F6
S31520000900084B00221A60084B1B68002B01D000F010
S31520000910F5F9054B00221A6000BF80BD000C00408F
S31520000920B0930020A8930020AC9300206094002070
S315200009300094002080B485B000AF78603960002331
S31520000940FB603B681B68BB6004E0BB68FB60BB6860
S315200009501B68BB60BB68002B05D0BB689A687B68A8
S315200009609B689A42F1DD7B68BA681A60FB68002BA7
S3152000097003D13B687A681A6002E0FB687A681A60DD
S3152000098000BF1437BD465DF8047B704780B485B040
S3152000099000AF786039600023FB603B681B68BB6052
S315200009A004E0BB68FB60BB681B68BB60BB68002BB0
S315200009B005D0BB685A687B685B689A42F1DD7B6824
S315200009C0BA681A60FB68002B03D13B687A681A6004
S315200009D002E0FB687A681A6000BF1437BD465DF8EE
S315200009E0047B704780B584B000AF78607B681B6855
S315200009F0FB60FB68002B04D0FB681A687B681A60D2
S31520000A000CE00948FFF770FD00220221074806F096
S31520000A1032FB0748FFF768FD30BFFDE7FB68184645
S31520000A201037BD4680BD00BFFC8700200004024071
S31520000A300888002080B584B000AF78607B681B688A
S31520000A40FB60FB68002B04D0FB681A687B681A6081
S31520000A500CE00948FFF748FD00220221074806F06E
S31520000A600AFB0748FFF740FD30BFFDE7FB68184645
S31520000A701037BD4680BD00BFFC8700200004024021
S31520000A801488002080B483B000AF786039603B685A
S31520000A901A687B681A603B687A681A6000BF0C3750
S31520000AA0BD465DF8047B704780B483B000AF7860A4
S31520000AB039603B681A687B689A603B687A681A6076
S31520000AC000BF0C37BD465DF8047B704780B485B007
S31520000AD000AF78607B681B68FB60FB689A687B6860
S31520000AE01A60FB6818461437BD465DF8047B7047CC
S31520000AF080B485B000AF786039600023FB603B6826
S31520000B001B68BB6004E0BB68FB60BB681B68BB60FE
S31520000B10BB68002B03D0BA687B689A42F3D1BB68C6
S31520000B20002B0DD0FB68002B04D0BB681A68FB682D
S31520000B301A6003E0BB681A683B681A60012300E06C
S31520000B40002318461437BD465DF8047B704780B5F0
S31520000B5082B000AF02211E4805F057FD1C4804F064
S31520000B6045FC03467B6007E01A48FFF73BFF034638
S31520000B7019491846FFF7DEFE164B1B68002B06D0D8
S31520000B80144B1B685A687B68D31A002BECDD114B7B
S31520000B901B68002B16D00E4804F028FC03463B6049
S31520000BA00C4B1B685B683A689A4204DD00220221DE
S31520000BB00A4806F060FA074B1B685B68194604482A
S31520000BC004F053FF00F09AF800BF0837BD4680BDF9
S31520000BD0000C0040A4930020A093002000040240B3
S31520000BE00346024A136010DFF74600BF0C9400202C
S31520000BF00346054A1360054B5B68044A43F080535D
S31520000C005360F74600BF00BF0C94002000ED00E0C3
S31520000C1080B582B000AF7860094B5B68C3F30803E8
S31520000C20002B03D17868FFF7DBFF02E07868FFF737
S31520000C30DFFFFFF706FD00BF0837BD4680BD00BFBA
S31520000C4000ED00E090B585B000AF234B1C6823482B
S31520000C50FFF7C8FE0346E360E368BB60FFF7F1FCDD
S31520000C60BB68D868BB681969BB685B691A4600F01F
S31520000C7015F9FFF7D7FC1A49B868FFF703FF194B98
S31520000C801B689B68DB687B60144B1B68002B0AD0B3
S31520000C907B68002BD9D0114B1B689A687B689B68B0
S31520000CA0D31A002BD1DD0F48FFF710FF03460E495C
S31520000CB01846FFF7F9FE0B4B1B68FB6003E0FB6849
S31520000CC01B691B68FB60FB681B69002BF7D1F86862
S31520000CD0FFF79EFFB9E700BF4C8D0020A0930020B0
S31520000CE0408D0020488D0020448D002080B500AF27
S31520000CF000F004F8FFF7A5FC30BFFBE780B582B013
S31520000D0000AF144B1B68DB687B60134B1B68002B02
S31520000D101BD0124B1B68002B17D07B68002B07D0EB
S31520000D200D4B1B689A687B689B68D31A002B0CDADC
S31520000D300A48FFF7CBFE034606491846FFF7B4FEDE
S31520000D40044B1B681846FFF763FF00BF0837BD46F4
S31520000D5080BD00BF488D0020A0930020448D002038
S31520000D6080B588B000AFF860B9607A603B60EFF379
S31520000D7012833B613B691B09012B14BF012300230E
S31520000D80DBB2FB77FFF74EFC3A48FFF753FEB8611C
S31520000D90BB697A68DA60BB693A681A61BB69BA6A64
S31520000DA05A61354B1B68002B04D1344B1B68DB681A
S31520000DB05B6801E0324B1B68FA681A44BB695A60CB
S31520000DC0BB695A68BB68002B01DDBB6801E06FF088
S31520000DD000431A44BB699A602A4804F007FB03467D
S31520000DE07B61BB695A687B69D31A002B16DD2649BD
S31520000DF0B869FFF7CBFD244B1B685B687A699A427A
S31520000E0004DD00220221214806F035F91E4B1B681D
S31520000E105B6819461B4804F028FE21E01C49B86986
S31520000E20FFF788FDFB7F002B1AD01A4B1B68002B7F
S31520000E3016D0174B1B689A68174B1B68DB689B6894
S31520000E40D31A002B0CDA1348FFF740FE034612494B
S31520000E501846FFF729FE104B1B681846FFF7D8FEE9
S31520000E60FB7F002B01D0FFF7ECFBBB691846203730
S31520000E70BD4680BD408D0020A89300204C8D0020CB
S31520000E80B0930020000C0040A493002000040240F0
S31520000E90A0930020448D0020488D002080B588B086
S31520000EA000AFF860B9607A60EFF312833B613B696B
S31520000EB01B09012B14BF01230023DBB2FB76FFF7AE
S31520000EC0B1FBFB681B68FB61FB69002B37D003E095
S31520000ED0FB691B691B68FB61FB691B69002BF7D14A
S31520000EE0304B1B68FA699A4202D0FB7E002B07D151
S31520000EF0FB7E002B01D0FFF7A4FB4FF0FF334DE024
S31520000F00FB685B68002B03D0FB685B6800221A61D4
S31520000F10244B1A68FB685A60224B1B68FA681A61D0
S31520000F20F869FFF775FE1F4B1B68DB68002B06D19F
S31520000F30FB7E002B01D0FFF784FB00232EE0194B0C
S31520000F401A68FB681A60FB7E002B05D0FB685B687D
S31520000F50012B01D0FFF775FBBB687968F8689847C5
S31520000F607861FFF75FFBFB6800221A60FB685B680D
S31520000F70FB61FB69002B0BD0FB69012B08D0FB68BA
S31520000F8000225A60FB6900221A61F869FFF740FEC9
S31520000F90FB7E002B01D0FFF754FB7B6918462037D8
S31520000FA0BD4680BD4C8D002080B586B000AF7860F0
S31520000FB0EFF31283FB60FB681B09012B14BF01238F
S31520000FC00023DBB2FB74FFF72DFB1F497868FFF780
S31520000FD08FFD0346002B06D11C497868FFF788FD54
S31520000FE00346002B04D01A497868FFF74BFD21E011
S31520000FF0184B1B687B611AE0174B1B687A699A426B
S3152000100012D07B69DB687A689A420DD17B691A69AE
S315200010107B68DB689A4207D17B690022DA600C493B
S315200010207868FFF72FFD05E07B699B687B617B690C
S31520001030002BE1D1FB7C002B01D0FFF702FB00BF88
S315200010401837BD4680BD00BFA4930020A093002082
S31520001050408D0020488D00204C8D002080B485B026
S3152000106000AF7860EFF31283FB60FB681B09012B4E
S3152000107004D0074B1B68DB685B6801E0054B1B68E7
S315200010807A68136000BF1437BD465DF8047B70474D
S315200010904C8D0020B093002080B485B000AF7860DE
S315200010A0EFF31283FB60FB681B09012B04D0084B6E
S315200010B01B68DB685B6801E0064B1B687A68126870
S315200010C09B1A18461437BD465DF8047B704700BF4F
S315200010D04C8D0020B093002080B584B000AFEFF394
S315200010E012837B607B681B09012B14BF012300231D
S315200010F0DBB2FB73FFF796FA0C4804F077F9034648
S31520001100BB60FB7B002B01D0FFF79BFAFB7B002B00
S3152000111004D0074B1B68DB685B6801E0054B1B6846
S31520001120BA68D31A18461037BD4680BD000C004059
S315200011304C8D0020B093002080B582B000AF0023F4
S315200011407B6012E07B685A1C13465B001344DB006D
S31520001150444A991843487A6813465B001344DB00D7
S31520001160034419607B6801337B607B681C2BE9DDB7
S315200011703C4B0022C3F8B82200237B6013E07B6837
S315200011805A1C13469B0013449B00374A991836482D
S315200011907A6813469B0013449B0003440833196066
S315200011A07B6801337B607B68022BE8DD2E4B0022B7
S315200011B05A6400237B6030E02B497A6813469B00F3
S315200011C013449B000B4404337A681A607A681346EA
S315200011D09B0013449B00244A1A447B685B032349E3
S315200011E00B4419461046FFF75DFA7A6813469B00B2
S315200011F013449B001C4A13441D491846FFF786FAE0
S3152000120019497A6813469B0013449B000B441033FC
S3152000121000221A607B6801337B607B68032BCBDD61
S31520001220144B4FF0FF325A60124B00229A60114B3A
S3152000123000221A610F4B0022DA600F48FFF754F99B
S315200012400E48FFF751F90E48FFF74EF90A48FFF707
S315200012504BF90948FFF748F9FFF76AFA00BF083744
S31520001260BD4680BD80940020109400205897002011
S31520001270450C00206C940020208800202488002023
S315200012803088002080B586B000AFF860B96013467C
S31520001290FB71FB79022B41D8EFF312833B613B694B
S315200012A01B09012B14BF01230023DBB2FB75FFF7BB
S315200012B0B9F9FB79022B0ED0022B10DC002B02D0C1
S315200012C0012B04D00BE0174B174A1A6014E0174B7A
S315200012D0174A1A6010E0174B174A1A600CE0174895
S315200012E0FFF702F900220221154805F0C4FE154831
S315200012F0FFF7FAF830BFFDE7FB791349FA6841F8A2
S315200013002320FB791149BA6841F82320FB68012282
S315200013105A60FB7D002B01D0FFF793F900BF1837E9
S31520001320BD4680BDD4C00120FD07002090C001200D
S31520001330650800209CC00120CD080020FC870020E5
S315200013400004024048880020009400206094002079
S3152000135080B586B002AFF860B9607A60FFF762F9AF
S31520001360FFF7EAFEBB68002B16D00F4804F03EF8C4
S3152000137003461A460D4B1A600D4B01221A607B68F4
S315200013800093BB68FA6800210020FFF7E9FC084BB0
S3152000139000221A60FFF7B2FCFFF7A8FC00231846CC
S315200013A01037BD4680BD00BF000C0040B093002022
S315200013B0A893002080B400AF094B00221A60084B86
S315200013C000225A60064B00229A60054B0022DA6002
S315200013D0034B044A5A6100BFBD465DF8047B704743
S315200013E0003C0140FFFF7F0080B485B000AF7860ED
S315200013F00023FB60344BFB607B689B79002B4FD02E
S31520001400314B1A687B681B68DB432F4913400B60FE
S315200014102D4B5A687B681B68DB432B4913404B6076
S315200014207B681B791A46FB681344FB60FB681968C6
S315200014307B681A68FB680A431A60234B9A687B68A4
S315200014401B68DB43204913408B601F4BDA687B689F
S315200014501B68DB431C491340CB607B685B79102BF0
S315200014600ED1194B9A687B681B68174913438B600A
S31520001470154BDA687B681B6813491343CB601DE064
S31520001480114BFB607B685B791A46FB681344FB6053
S31520001490FB6819687B681A68FB680A431A600DE0C6
S315200014A07B681B791A46FB681344FB60FB68196846
S315200014B07B681B68DA43FB680A401A6000BF143752
S315200014C0BD465DF8047B7047003C014080B483B084
S315200014D000AF78607B6800221A607B6800221A7150
S315200014E07B680C225A717B6800229A7100BF0C37E8
S315200014F0BD465DF8047B704780B483B000AF78604A
S31520001500054B1A6904497B6813430B6100BF0C37EE
S31520001510BD465DF8047B7047003C014080B485B031
S3152000152000AF78600023FB73084B5A697B68134031
S31520001530002B02D00123FB7301E00023FB73FB7B0E
S3152000154018461437BD465DF8047B7047003C0140C1
S3152000155080B483B000AF7860044A7B68536100BFD3
S315200015600C37BD465DF8047B704700BF003C014048
S3152000157080B485B000AF78600023FB73084B5A69AE
S315200015807B681340002B02D00123FB7301E000236C
S31520001590FB73FB7B18461437BD465DF8047B70470A
S315200015A0003C014080B483B000AF7860044A7B6879
S315200015B0536100BF0C37BD465DF8047B704700BF02
S315200015C0003C014080B586B000AF7860396007F1F5
S315200015D008031A4615491648FFF760FC00237B616D
S315200015E0FB7A1A467B6913447B613B7B1B027A6933
S315200015F013447B617B7B1B047A6913447B61BB7B31
S315200016001B067A6913447B613B7A1946094800F028
S31520001610C3F97969084800F0BFF93B7A7969184619
S3152000162000F03CF800BF1837BD4680BDED02002013
S3152000163030920020D88A0020E88A002080B584B025
S3152000164002AF786039600E4B1A460E490E48FFF7F6
S3152000165025FC3A680D490C48FFF720FC0C4B1A462E
S3152000166008490948FFF71AFC3B680093094B0A4AC8
S3152000167000210020FFF774FB00BF0837BD4680BD60
S31520001680F48A00201F1D0020108E0020751D0020CA
S31520001690FC8A00208D180020508D002090B595B032
S315200016A002AF03463960FB71FB79623B142B00F2D3
S315200016B0C68001A252F823F0E51700200D1700205E
S315200016C03F1800203F1800203F1800203F18002018
S315200016D03F1800203F1800203F1800203B1700200D
S315200016E03F180020D31700203F1800203F18002065
S315200016F03F1800203F1800203F1800201318002014
S315200017003F1800203F180020251700204FF0FF32F9
S315200017104D494E48FFF7C2FB034619464C4800F098
S315200017203BF98CE0012248494848FFF7B7FB0346BE
S315200017301946474800F030F981E06B461C4607F110
S315200017400C033A684349184606F046FA07F10C039B
S315200017501A4641494148FFF7A1FB3A6840494148AA
S31520001760FFF79CFB2023013B7B64202318464FF088
S3152000177000014FF000024FF000034B0143EAD06313
S315200017804201202318464FF000014FF000024FF08F
S3152000179000034B0143EAD063420120239B00073319
S315200017A0DB08DB00ADEB030D02AB03339B089B008C
S315200017B03B643B6C1A462C492A48FFF76FFB3B6C6F
S315200017C000932A4B2A4A00210020FFF7C9FAA54692
S315200017D035E000230093274B1C4A00210020FFF709
S315200017E0BFFA2CE007F10C033A682349184606F0A5
S315200017F0F3F907F10C031A4617491848FFF74EFB71
S315200018003B6800931D4B1A4A00210020FFF7A8FAD7
S3152000181015E000221A491648FFF740FB0346002B25
S3152000182006D0184B1A460C490C48FFF737FB05E043
S31520001830154B1A4608490948FFF730FB00BF00BF81
S315200018404C37BD4690BD00BFF33B00207C8D002069
S31520001850008B0020188B00201F1D0020108E0020DA
S31520001860E11E0020608D0020851E00209936002074
S31520001870748D0020D33B0020248B00205B36002073
S31520001880DB360020308B00203C8B002080B584B0D6
S3152000189002AF786039603B68762B72DC3B68622B3E
S315200018A00ADA3B682D2B39D03B682D2B69DB3B6848
S315200018B0303B092B65D831E03B68623B142B60D85E
S315200018C001A252F823F000BF631900202F1900202F
S315200018D083190020831900208319002083190020F2
S315200018E08319002083190020831900204319002022
S315200018F083190020591900208319002083190020FC
S3152000190083190020831900208319002079190020CB
S315200019108319002083190020391900203B68009381
S315200019201A4B1B4A00210020FFF71AFA29E0002152
S31520001930632000F0E7F824E00021762000F0E2F8AA
S315200019401FE0002213491248FFF7A8FA034619465A
S315200019506B2000F0D7F814E000216D2000F0D2F8BB
S315200019600FE000220B490A48FFF798FA034619466A
S31520001970622000F0C7F804E00021732000F0C2F8CE
S3152000198000BF00BF0837BD4680BD00BFFD1E00203A
S31520001990B8930020291F002080B590B000AF786052
S315200019A0396007F10C033A687968184606F014F98D
S315200019B007F10C031A4604490448FFF76FFA00BFE3
S315200019C04037BD4680BD00BF1F1D0020108E002061
S315200019D090B593B002AF6B461C4600222749284893
S315200019E0FFF75CFAF8633B46FA6B2649184606F081
S315200019F0F3F83B461A4624492448FFF74FFAFA6B78
S31520001A0023492448FFF74AFA2023013BBB632023BE
S31520001A1018464FF000014FF000024FF000034B0133
S31520001A2043EAD0634201202318464FF000014FF0CD
S31520001A3000024FF000034B0143EAD063420120230A
S31520001A409B000733DB08DB00ADEB030D02AB033352
S31520001A509B089B007B637B6B1A460F490D48FFF75B
S31520001A601DFA7B6B00930D4B0D4A00210020FFF7DA
S31520001A7077F9A54600BF4437BD4690BD291F0020F3
S31520001A80B8930020188B00201F1D0020108E0020E8
S31520001A90E11E0020608D0020851E00209936002042
S31520001AA0748D002080B590B002AF00220E490F48F9
S31520001AB0FFF7F4F978633B467A6B0D49184606F032
S31520001AC08BF83B461A460B490B48FFF7E7F97B6B29
S31520001AD000930A4B0A4A00210020FFF741F900BF74
S31520001AE03837BD4680BD00BF291F0020B89300208F
S31520001AF0248B00201F1D0020108E00205B36002026
S31520001B00748D002080B586B000AF786039607B6820
S31520001B10DBB23B7301237B730423BB733B68DBB2CD
S31520001B20FB733B681B12DBB23B743B681B14DBB2B6
S31520001B307B743B681B16DBB2BB7407F10C031A4699
S31520001B4003490448FFF7AAF900BF1837BD4680BDF0
S31520001B50B70300203092002080B582B000AF7860B5
S31520001B60396000220B490C48FFF798F900220B49EF
S31520001B700B48FFF793F90B4B1A460B490848FFF71A
S31520001B808DF90A490020FFF7BDFF00BF0837BD4683
S31520001B9080BD00BFA500002030920020791C0020C7
S31520001BA0108E0020448B00201F1D00204E61BC009B
S31520001BB080B500AF002208490848FFF763FB0122E1
S31520001BC007490848FFF75EFB002207490748FFF749
S31520001BD0BFFB0023184680BDAB1D0020108E0020C1
S31520001BE06501002030920020591B0020508D0020D6
S31520001BF080B483B000AF0346FB71FB7903F01F036B
S31520001C00012202FA03F1064A97F907305B0942F8E6
S31520001C10231000BF0C37BD465DF8047B704700BF1C
S31520001C2000E100E080B483B000AF03463960FB7169
S31520001C3097F90730002B0BDA3B68DAB20C49FB79AF
S31520001C4003F00F03043B1201D2B20B441A7609E0CB
S31520001C503B68DAB2074997F907301201D2B20B4432
S31520001C6083F8002300BF0C37BD465DF8047B704720
S31520001C7000ED00E000E100E080B582B000AF7860C2
S31520001C8039607B6800229A617B689A697B685A6111
S31520001C907B685A697B68DA61012240F225510A483D
S31520001CA005F036FE002240F22771074805F030FE87
S31520001CB002212520FFF7B6FF2520FFF799FF00BF59
S31520001CC00837BD4680BD00BF0010014080B483B0F8
S31520001CD000AF78600B46FB707B68DB69B3F5806FDD
S31520001CE017DA7B685B697A681344FA7883F82020D0
S31520001CF07B685B6901335A42C3F30903C2F30902C5
S31520001D0058BF53427A6853617B68DB695A1C7B68EB
S31520001D10DA6100BF0C37BD465DF8047B704780B59D
S31520001D2082B000AF786039607B68DB69002B18D100
S31520001D307B689B68012240F22771184605F0E8FD72
S31520001D400FE03B681B780A2B03D10D217868FFF73B
S31520001D50BDFF3B685A1C3A601B7819467868FFF726
S31520001D60B5FF3B681B78002BEBD100BF00BF0837BF
S31520001D70BD4680BD80B582B000AF786039607B6893
S31520001D80DB69002B07D17B689B68012240F2277113
S31520001D90184605F0BDFD3B68DBB219467868FFF7AB
S31520001DA095FF00BF0837BD4680BD80B586B002AF1F
S31520001DB0786039607B689B682021184605F0F0FD25
S31520001DC00346012B18D17B689B68184605F00BFC4F
S31520001DD00346FB607B68DB68002B0DD07B68DA68E6
S31520001DE07B681969FB6800930B4600210020FEF7EB
S31520001DF0B7FF234B01221A607B689B688021184617
S31520001E0005F0CEFD0346012B35D17B68DB69002B1F
S31520001E1029DD7B6898687B689B697A68134493F808
S31520001E2020309BB2194605F0CCFB7B689B690133B9
S31520001E305A42C3F30903C2F3090258BF53427A68D0
S31520001E4093617B68DB695A1E7B68DA617B68DB6994
S31520001E50002B10D17B689B68002240F22771184620
S31520001E6005F056FD07E07B689B68002240F227714B
S31520001E70184605F04DFD002318461037BD4680BD97
S31520001E80AC93002080B485B000AF786039603B68A1
S31520001E90BB600023FB6015E07B689A68FB689B00AB
S31520001EA013441A687B681B69134403F10A02FB6812
S31520001EB09B00B9680B44094951F822201A60FB6837
S31520001EC00133FB607B68DB68FA689A42E4DB00BF7B
S31520001ED000BF1437BD465DF8047B7047588B002041
S31520001EE080B483B000AF786039607B683A681A6145
S31520001EF000BF0C37BD465DF8047B704780B483B0C5
S31520001F0000AF786039607B68DB6B591C7A68D163D7
S31520001F103A68D1B27A6813440A461A7200BF0C375F
S31520001F20BD465DF8047B704780B582B000AF78600F
S31520001F3039607B68DB6B7A68134400221A727B68EF
S31520001F400022DA637B680833184605F021FE034633
S31520001F5018460837BD4680BD80B483B000AF786090
S31520001F6039607B685A697B680232396843F82210E7
S31520001F707B685B69591C0B4B83FB0132CB17D21A4A
S31520001F8013465B001344CA1A7B685A617B689B69B7
S31520001F905A1C7B689A6100BF0C37BD465DF8047BEE
S31520001FA0704700BF5655555580B483B000AF786052
S31520001FB039607B6800229A607B680022DA607B6841
S31520001FC000221A617B6800225A617B6800229A618E
S31520001FD000BF0C37BD465DF8047B704780B483B0E4
S31520001FE000AF786039607B689A687B68DB681A4442
S31520001FF07B681B69134418460C37BD465DF8047B85
S31520002000704780B487B000AF786039607B689B6981
S31520002010022B0BD0022B10DC002B02D0012B02D07E
S315200020200BE000232FE07B689B682CE07B689A6896
S315200020307B68DB6813445B1025E07B689A687B68C5
S31520002040DB68D31A7B617B68DA687B681B69D31AE5
S315200020503B617B689A687B681B69D31AFB607B6946
S315200020603A6902FB03F3002B02DD7B68DB680AE09A
S315200020707B69FA6802FB03F3002B02DD7B681B6990
S3152000208001E07B689B6818461C37BD465DF8047BDB
S31520002090704780B487B000AF786039606FF0004336
S315200020A07B614FF000433B610023FB6026E07B68A9
S315200020B0D3F8F820FB689B0013441B687A699A4280
S315200020C007DD7B68D3F8F820FB689B0013441B6868
S315200020D07B617B68D3F8F820FB689B0013441B6860
S315200020E03A699A4207DA7B68D3F8F820FB689B00A6
S315200020F013441B683B61FB680133FB607B68D3F8A4
S31520002100FC30FA689A42D2DB7B687A69C3F80421EC
S315200021107B683A69C3F8082100BF1C37BD465DF8C5
S31520002120047B704780B489B000AF786039607B68E3
S315200021303A68C3F800210023FB617B68D3F8043199
S315200021403A681344BB6152E0BB69002B0DDAB969CA
S315200021502E4B83FB01235A10CB17D21A13465B0052
S3152000216013449B00CA1A0C320BE0B969274B83FB38
S3152000217001235A10CB17D21A13465B0013449B0037
S31520002180CA1A7A61BB69002B08DABB691F4A82FB2F
S3152000219003125210DB17D31A013B06E0BB691B4A18
S315200021A082FB03125210DB17D31A3B61184A7B6954
S315200021B052F82330FB603B69002B07DA3B69002B82
S315200021C0B8BF5B42FA6802FA03F303E0FA683B6998
S315200021D042FA03F3FB607B68FA690232F96843F836
S315200021E02210FB690133FB61BB690133BB617B684C
S315200021F0D3F808213B681344BA699A42A4DD00BF8C
S3152000220000BF2437BD465DF8047B7047ABAAAA2AD7
S31520002210BC8B002080B485B000AF786039603B6805
S31520002220BB600023FB6016E07B68D3F8F820FB68D0
S315200022309B0013441A687B68D3F80431D11AFB68D3
S315200022409B00BA6813447A68023152F821201A603A
S31520002250FB680133FB607B68D3F8FC30FA689A424E
S31520002260E2DB00BF00BF1437BD465DF8047B704734
S31520002270314900E03149EFF3088020ED108A72469B
S31520002280EFF3118320E9FC0F2D4FD7F80080C8F813
S3152000229000001EE00846FEF727F92A48FEF724F933
S315200022A02948FEF721F9D8F80400FEF769F92748EE
S315200022B0FEF71AF9D8F80000FEF733F92448FEF79E
S315200022C013F9D8F800000068FEF72BF91D48FEF731
S315200022D00BF9DFF88080D8F80080C7F8008018E076
S315200022E01D48FEF701F9D8F80400FEF749F91B4806
S315200022F0FEF7FAF8D8F80000FEF713F91448FEF7AF
S31520002300F3F8D8F800000068FEF70BF90D48FEF741
S31520002310EBF8134A536843F00063536000BFD8F8C4
S315200023200000B0E8FC0F83F311889646B0EC108AC3
S3152000233080F3088870470000A8920020B9920020F8
S315200023404C8D002029930020DA920020F292002062
S31520002350FA9200200C94002003930020189300206A
S3152000236000ED00E080B582B000AF78607B680E4A51
S3152000237093420AD101214FF0007002F009FD00219D
S315200023804FF0007002F004FD09E001214FF080605B
S3152000239002F0FEFC00214FF0806002F0F9FC00BF45
S315200023A00837BD4680BD00BF0064004080B485B0BC
S315200023B000AF786039600023FB730023BB607B6825
S315200023C01B6823F002027B681A607B681B6843F057
S315200023D001027B681A6002E0BB680133BB607B6840
S315200023E05B6803F00103012B04D0BB684FF6FF7234
S315200023F09342F1D17B685B6803F00103012B02D085
S315200024000023FB739CE03B689B79012B06D17B68FC
S315200024101B6843F080027B681A6005E07B681B68B6
S3152000242023F080027B681A603B68DB79012B06D19A
S315200024307B681B6843F040027B681A6005E07B6876
S315200024401B6823F040027B681A603B681B7A012BCD
S3152000245006D17B681B6843F020027B681A6005E082
S315200024607B681B6823F020027B681A603B685B7AD6
S31520002470012B06D17B681B6843F010027B681A602B
S3152000248005E07B681B6823F010027B681A603B68B6
S315200024909B7A012B06D17B681B6843F008027B6878
S315200024A01A6005E07B681B6823F008027B681A60C7
S315200024B03B68DB7A012B06D17B681B6843F004025C
S315200024C07B681A6005E07B681B6823F004027B6842
S315200024D01A603B689B789A073B68DB781B061A4391
S315200024E03B681B791B041A433B685B791B051A431F
S315200024F03B681B88013B1A437B68DA617B681B6853
S3152000250023F001027B681A600023BB6002E0BB68EF
S315200025100133BB607B685B6803F00103012B04D1A8
S31520002520BB684FF6FF729342F1D17B685B6803F07C
S315200025300103012B02D10023FB7301E00123FB736E
S31520002540FB7B18461437BD465DF8047B704790B474
S3152000255084B000AF78600023FB607B689B7A1A46C4
S3152000256001239340FB605A4BD3F80032584A43F07C
S315200025700103C2F80032564BD3F81C22FB68DB431A
S3152000258053491340C1F81C327B681B7B002B29D191
S315200025904F4BD3F80C22FB68DB434D491340C1F85F
S315200025A00C327B68DB881B047A68528814464849BB
S315200025B07A68927A104643EA040200F1480341F809
S315200025C033207B689B881B047A681288144640490E
S315200025D07A68927A104643EA040200F14803DB0047
S315200025E00B445A607B681B7B012B28D1384BD3F8D0
S315200025F00C223749FB681343C1F80C327B681B88D1
S315200026001B047A685288144631497A68927A1046B1
S3152000261043EA040200F1480341F833207B689B8893
S315200026201B047A68D288144629497A68927A104619
S3152000263043EA040200F14803DB000B445A607B683E
S31520002640DB7A002B09D1224BD3F80422FB68DB432B
S315200026501F491340C1F8043207E01D4BD3F804226A
S315200026601B49FB681343C1F804327B681B89002B86
S3152000267008D1174BD3F81422FB68DB4314491340C7
S31520002680C1F814327B681B89012B07D1104BD3F874
S3152000269014220F49FB681343C1F814327B685B7B15
S315200026A0012B07D10A4BD3F81C220949FB68134397
S315200026B0C1F81C32064BD3F80032054A23F0010339
S315200026C0C2F8003200BF1037BD4690BC704700BF2D
S315200026D00064004080B483B000AF78607B6800223D
S315200026E09A717B680022DA717B6800221A727B68F5
S315200026F000225A727B6800229A727B680022DA7264
S315200027007B6800229A707B680022DA707B6803223D
S315200027101A717B6802225A717B6801221A8000BFD7
S315200027200C37BD465DF8047B704780B483B000AF9C
S315200027300346FB71144BD3F80032134A43F00103CE
S31520002740C2F80032104BD3F800320F4A23F47C53E0
S3152000275023F00E03C2F800320B4BD3F80022FB798C
S315200027601B0209491343C1F80032074BD3F8003244
S31520002770054A23F00103C2F8003200BF0C37BD46DC
S315200027805DF8047B704700BF0064004080B483B0CE
S3152000279000AF78600B46FB70FB78002B06D07B6879
S315200027A01B6843F480327B681A6005E07B681B68EF
S315200027B023F480327B681A6000BF0C37BD465DF873
S315200027C0047B704780B483B000AF78600B46FB7003
S315200027D0FB78002B1ED07B681B6843F080027B6849
S315200027E01A607B68D3F8843143F480727B68C3F81F
S315200027F084217B68D3F8943143F480727B68C3F8D4
S3152000280094217B68D3F8A43143F480727B68C3F8A3
S31520002810A4211DE07B681B6823F080027B681A6078
S315200028207B68D3F8843123F480727B68C3F88421D3
S315200028307B68D3F8943123F480727B68C3F89421A3
S315200028407B68D3F8A43123F480727B68C3F8A42173
S3152000285000BF0C37BD465DF8047B704780B485B059
S3152000286000AF786039600023FB737B689B6803F0B8
S315200028708063B3F1806F02D10023FB7315E07B6880
S315200028809B6803F00063B3F1006F02D10123FB7351
S315200028900BE07B689B6803F08053B3F1805F02D125
S315200028A00223FB7301E00423FB73FB7B042B00F064
S315200028B09F80FB7B7A6818331B0113441A68FB7BC5
S315200028C002F00102796818331B010B441A603B6839
S315200028D01B7A002B13D1FB7B7A6818331B01134418
S315200028E019683B681B685B053A68527A1A43FB7B7A
S315200028F00A43796818331B010B441A6015E0FB7BE9
S315200029007A6818331B01134419683B685B68DB003F
S315200029103A68127A13433A68527A1A43FB7B0A437F
S31520002920796818331B010B441A603B689B7A03F0C5
S315200029300F03DAB23B689A72FB7B7A6818331B0165
S31520002940134404331A68FB7B22F00F02796818338C
S315200029501B010B4404331A60FB7B7A6818331B0176
S31520002960134404331A683B689B7A1946FB7B0A4357
S31520002970796818331B010B4404331A603B689B7B30
S315200029801A063B685B7B1B041A433B681B7B1B02B6
S315200029901A433B68DB7A1946FB7B0A4379681B019D
S315200029A00B4403F5C4731A603B689B7C1A063B688C
S315200029B05B7C1B041A433B681B7C1B021A433B6847
S315200029C0DB7B1946FB7B0A4379681B010B4403F525
S315200029D0C6731A60FB7B7A6818331B0113441A6886
S315200029E0FB7B42F00102796818331B010B441A6005
S315200029F0FB7B18461437BD465DF8047B704780B4D0
S31520002A0085B000AF78600B46FB700023FB60FB7837
S31520002A10022B12D0022B16DC002B02D0012B06D063
S31520002A2011E07B689A68314B1340FB600EE07B68AF
S31520002A309A682F4B1340FB6008E07B689A682D4B01
S31520002A401340FB6002E00023FB6000BFFB68294ABD
S31520002A5093423DD0FB68274A93423CD8FB68264ADE
S31520002A6093422CD0FB68244A934234D8FB68204AF0
S31520002A7093422AD0FB681E4A93422CD8FB681F4AF1
S31520002A80934219D0FB681D4A934224D8FB68174A03
S31520002A90934217D0FB68154A93421CD8FB68002B3B
S31520002AA004D0FB68164A934203D014E00223FB604D
S31520002AB014E00023FB6011E00023FB600EE00023FE
S31520002AC0FB600BE00123FB6008E00123FB6005E0CF
S31520002AD00123FB6002E00023FB6000BFFB68DBB242
S31520002AE018461437BD465DF8047B70470300000482
S31520002AF00003000800000310000001100001000878
S31520002B000100000480B483B000AF78600B46FB70F0
S31520002B10FB78022B14D0022B19DC002B02D0012BC0
S31520002B2007D014E07B689B6843F080027B689A603C
S31520002B300EE07B689B6843F400427B689A6007E05E
S31520002B407B689B6843F400027B689A6000E000BFC4
S31520002B5000BF0C37BD465DF8047B704780B485B056
S31520002B6000AFF8600B467A60FB72FB7AFA681B337B
S31520002B701B0113441B68DBB203F00403DAB27B6843
S31520002B801A727B681B7A002B0BD1FB7AFA681B33EF
S31520002B901B0113441B685B0DC3F30A027B681A6092
S31520002BA00AE0FB7AFA681B331B0113441B68DB0817
S31520002BB023F060427B685A60FB7AFA681B331B015C
S31520002BC013441B68DBB203F00203DAB27B685A7245
S31520002BD0FB7AFA681B331B01134404331B68DBB2F0
S31520002BE003F00F03DAB27B689A72FB7AFA681B331A
S31520002BF01B01134404331B681B0ADAB27B68DA74A0
S31520002C00FB7AFA681B01134403F5DC731B68DAB2FE
S31520002C107B68DA72FB7AFA681B01134403F5DC73CE
S31520002C201B681B0ADAB27B681A73FB7AFA681B01E7
S31520002C30134403F5DC731B681B0CDAB27B685A73EA
S31520002C40FB7AFA681B01134403F5DC731B681B0E21
S31520002C50DAB27B689A73FB7AFA681B01134403F590
S31520002C60DE731B68DAB27B68DA73FB7AFA681B01BB
S31520002C70134403F5DE731B681B0ADAB27B681A74E9
S31520002C80FB7AFA681B01134403F5DE731B681B0CE1
S31520002C90DAB27B685A74FB7AFA681B01134403F58F
S31520002CA0DE731B681B0EDAB27B689A74FB7A002BE4
S31520002CB006D1FB68DB6843F02002FB68DA6005E09A
S31520002CC0FB681B6943F02002FB681A6100BF1437BA
S31520002CD0BD465DF8047B704780B483B000AF786052
S31520002CE00B46FB70FB78002B06D17B68DB6843F034
S31520002CF020027B68DA6005E07B681B6943F02002CE
S31520002D007B681A6100BF0C37BD465DF8047B7047AF
S31520002D1080B485B000AF78600B46FB700023FB7350
S31520002D20FB78002B06D17B68DB68DBB203F003035C
S31520002D30FB730BE0FB78012B06D17B681B69DBB2AA
S31520002D4003F00303FB7301E00023FB73FB7B1846B0
S31520002D501437BD465DF8047B704780B485B000AF5C
S31520002D6078600B46FB700023FB734FF6FF73BB6046
S31520002D70FB78002B20D17B681B6823F0030343F0EC
S31520002D8001027B681A6002E0BB68013BBB607B687E
S31520002D905B6803F00303012B02D0BB68002BF3D141
S31520002DA07B685B6803F00303012B02D00023FB73CF
S31520002DB04AE00123FB7347E0FB78012B1ED17B6899
S31520002DC01B6823F003027B681A6002E0BB68013BA4
S31520002DD0BB607B685B6803F00303002B02D0BB68F3
S31520002DE0002BF3D17B685B6803F00303002B02D032
S31520002DF00023FB7328E00123FB7325E0FB78022BDD
S31520002E0020D17B681B6823F0030343F002027B6812
S31520002E101A6002E0BB68013BBB607B685B6803F01D
S31520002E200303022B02D0BB68002BF3D17B685B68BF
S31520002E3003F00303022B02D00023FB7304E00123DB
S31520002E40FB7301E00023FB73FB7B18461437BD465A
S31520002E505DF8047B704780B485B000AF78600023AE
S31520002E60FB737B681B6823F0030343F002027B6835
S31520002E701A607B685B6803F00303022B01D10123F0
S31520002E80FB73FB7B18461437BD465DF8047B704701
S31520002E9080B485B000AF78604FF6FF73FB600023E7
S31520002EA0FB727B681B6823F002027B681A6002E0D3
S31520002EB0FB68013BFB607B685B6803F00203022B27
S31520002EC002D1FB68002BF3D17B685B6803F0020319
S31520002ED0022B01D00123FB72FB7A18461437BD461C
S31520002EE05DF8047B704780B485B000AF786000231E
S31520002EF0FB737B689B69DBB203F07003FB73FB7B80
S31520002F0018461437BD465DF8047B704780B485B0FB
S31520002F1000AF78600023FB737B689B691B0EFB73F5
S31520002F20FB7B18461437BD465DF8047B704780B49A
S31520002F3085B000AF78600023FB737B689B691B0C10
S31520002F40FB73FB7B18461437BD465DF8047B704740
S31520002F5080B485B000AFF860B9601346FB71FB7989
S31520002F60002B06D0FB685A69BB681A43FB685A6176
S31520002F7006E0FB685A69BB68DB431A40FB685A6166
S31520002F8000BF1437BD465DF8047B704780B485B01A
S31520002F9000AF786039600023FB733B6803F470034D
S31520002FA0002B0DD07B689A693B681340C3F313034B
S31520002FB0002B02D00123FB7348E00023FB7345E07E
S31520002FC03B6803F08073002B0DD07B685A683B6802
S31520002FD01340C3F31303002B02D00123FB7335E008
S31520002FE00023FB7332E03B6803F00063002B0DD017
S31520002FF07B689A683B681340C3F31303002B02D007
S315200030000123FB7322E00023FB731FE03B6803F0E0
S315200030100073002B0DD07B68DA683B681340C3F33E
S315200030201303002B02D00123FB730FE00023FB7355
S315200030300CE07B681A693B681340C3F31303002B2B
S3152000304002D00123FB7301E00023FB73FB7B1846B0
S315200030501437BD465DF8047B704780B485B000AF59
S31520003060786039600023FB603B68174A934203D19E
S315200030707B6800229A6121E03B68C3F31303FB605F
S315200030803B6803F00073002B03D07B68FA68DA6094
S3152000309014E03B6803F08063002B03D07B68FA685A
S315200030A01A610BE03B6803F00063002B03D07B68BA
S315200030B0FA689A6002E07B68FA685A6000BF1437A3
S315200030C0BD465DF8047B70477000F03080B584B053
S315200030D000AF786039600023FB737B685A693B68D0
S315200030E01340002B00F01B813B68B3F5003F00F036
S315200030F0DD803B68B3F5003F00F20E813B68B3F5F7
S31520003100803F00F0CA803B68B3F5803F00F204811F
S315200031103B68B3F5004F00F0F6803B68B3F5004FEF
S3152000312000F2FA803B68B3F5006F00F0E3803B685D
S31520003130B3F5006F00F2F0803B68B3F5806F00F0C6
S31520003140D0803B68B3F5806F00F2E6803B68B3F52C
S31520003150007F00F0BD803B68B3F5007F00F2DC8085
S315200031603B68B3F5807F00F0AA803B68B3F5807F8B
S3152000317000F2D2803B68202B4CD83B68002B00F015
S31520003180CB803B68013B1F2B00F2C68001A252F880
S3152000319023F000BF1D3200202F32002019330020DB
S315200031A04132002019330020193300201933002022
S315200031B05332002019330020193300201933002000
S315200031C01933002019330020193300201933002029
S315200031D065320020193300201933002019330020CE
S315200031E01933002019330020193300201933002009
S315200031F019330020193300201933002019330020F9
S3152000320019330020193300201933002019330020E8
S31520003210773200203B68402B36D07DE07B689B6868
S315200032204249184600F060F90346FB7379E07B6853
S31520003230DB680321184600F057F90346FB7370E05C
S315200032407B68DB680821184600F04EF90346FB73BD
S3152000325067E07B68DB681021184600F045F90346D5
S31520003260FB735EE07B681B690321184600F03CF97E
S315200032700346FB7355E07B681B690821184600F05E
S3152000328033F90346FB734CE07B681B691021184613
S3152000329000F02AF90346FB7343E07B685B6808214C
S315200032A0184600F021F90346FB733AE07B685B6819
S315200032B01021184600F018F90346FB7331E07B68AD
S315200032C09B690121184600F00FF90346FB7328E09D
S315200032D07B689B690221184600F006F90346FB73BA
S315200032E01FE07B689B690421184600F0FDF8034621
S315200032F0FB7316E07B689B697021184600F0F4F892
S315200033000346FB730DE07B685B680421184600F0DA
S31520003310EBF80346FB7304E00023FB7301E0002374
S31520003320FB73FB7B18461037BD4680BD01010100AB
S3152000333080B483B000AF786039603B68B3F5003F56
S3152000334000F0AA803B68B3F5003F00F2C3803B68DB
S31520003350B3F5803F00F09C803B68B3F5803F00F2D8
S31520003360B9803B68B3F5004F00F0AD803B68B3F5FC
S31520003370004F00F2AF803B68B3F5006F00F09C80F1
S315200033803B68B3F5006F00F2A5803B68B3F5806F0C
S3152000339000F08E803B68B3F5806F00F29B803B681F
S315200033A0B3F5007F00F080803B68B3F5007F00F224
S315200033B091803B68B3F5807F72D03B68B3F5807F00
S315200033C000F288803B68202B4AD83B68002B00F00F
S315200033D081803B68013B1F2B7CD801A252F823F049
S315200033E069340020D5340020D534002071340020E3
S315200033F0D5340020D5340020D5340020793400205F
S31520003400D5340020D5340020D5340020D5340020F2
S31520003410D5340020D5340020D5340020D5340020E2
S31520003420D5340020D5340020D5340020D5340020D2
S31520003430D5340020D5340020D5340020D5340020C2
S31520003440D5340020D5340020D5340020D5340020B2
S31520003450D5340020D5340020D534002081340020F6
S315200034603B68402B10D035E07B681E4A9A6032E0DC
S315200034707B680822DA602EE07B681022DA602AE078
S315200034807B6808221A6126E07B6810221A6122E0F6
S315200034907B6808225A601EE07B6810225A601AE078
S315200034A07B6804225A6016E07B6804225A6012E088
S315200034B07B6804225A600EE07B6800229A617B6852
S315200034C004225A6007E07B6800229A617B68042206
S315200034D05A6000E000BF00BF0C37BD465DF8047B94
S315200034E0704700BF0101010080B485B000AF78604D
S315200034F039600023FB737A683B681340002B02D0A7
S315200035000123FB7301E00023FB73FB7B1846143772
S31520003510BD465DF8047B704780B586B002AF786003
S3152000352039607B689A68002300931C4B0021002099
S31520003530FDF716FC7B689B687A683968063152F875
S3152000354021209A607B689A684FF0FF330093144BD2
S3152000355000210020FDF704FC7B685A693B68134470
S3152000356018787B68D9687B681B691A4600F04EF884
S315200035700346642202FB03F3FB60FB6803F10A01A6
S315200035803B68013323F020030093064B7A68F868E2
S31520003590FDF7E6FB00BF1037BD4680BD513F00203A
S315200035A0373C0020A935002080B586B002AF786070
S315200035B039607B689A6801230093124B0021002012
S315200035C0FDF7CEFB7B68D3F89830B3F1FF3F10D1DF
S315200035D07B681B69642202FB03F3FB60FB6803F133
S315200035E00A013B680093084B7A68F868FDF7B8FB38
S315200035F003E07B683A68C3F8982000BF1037BD46C1
S3152000360080BD00BF513F00201935002080B485B011
S3152000361000AF0346B9607A60FB73FB7B632B0FD048
S31520003620632B12DC612B02D0622B04D00DE0BA682A
S315200036307B68D31A0BE0BB685A007B68D31A06E076
S31520003640BB685A107B68D31A01E04FF0FF33184647
S315200036501437BD465DF8047B704780B483B000AF55
S31520003660786039604EF660223B6892FBF3F27B6805
S31520003670DA607B68DB68074A82FB03129210DB174D
S31520003680D21A7B681A6100BF0C37BD465DF8047BF1
S31520003690704700BF6766666680B485B000AF786005
S315200036A039603B68BB600023FB600CE0FB689B0035
S315200036B0BA68134419687B68FA68063243F8221000
S315200036C0FB680133FB60FB681F2BEFDD00BF00BFEB
S315200036D01437BD465DF8047B704780B584B002AFD1
S315200036E0786039607B68D3F89830B3F1FF3F04D116
S315200036F07B680022C3F898200EE07B68D3F89830C8
S315200037000093094B7A6800210020FDF729FB7B688E
S315200037104FF0FF32C3F898207B68D3F898301846CC
S315200037200837BD4680BD00BF1935002080B400AFE4
S3152000373000BFBD465DF8047B704780B586B000AFFC
S31520003740454803F0AFFA4548FEF70CFE4448FEF71D
S3152000375009FE01214FF0007001F07AFA01214FF0A5
S31520003760806001F075FA0121022001F011FA092288
S315200037700921394803F0B8FC09220821364803F00C
S31520003780B3FC07F11003184603F0CDFB4FF400738A
S315200037903B6102233B750023BB750023FB75022387
S315200037A07B7507F1100319462B4803F02DFB4FF4C8
S315200037B080733B6102233B750023BB750123FB7598
S315200037C002237B7507F110031946234803F01CFBDF
S315200037D009220621204803F087FC092205211E48DC
S315200037E003F082FC40233B6102233B750023BB751B
S315200037F00023FB7502237B7507F110031946164833
S3152000380003F002FB20233B6102233B750023BB759B
S315200038100123FB7502237B7507F1100319460E4819
S3152000382003F0F2FA0023BB720023FB7201233B73E1
S3152000383000233B8000237B800023BB800023FB806A
S3152000384000233B8101237B733B461846FEF77FFE10
S3152000385000BF1837BD4680BD00040240006400400A
S315200038600068004080B586B000AF01214FF00050BF
S3152000387001F0EEF907F11003184603F054FB20235C
S315200038803B6103233B750023FB7507F110031946A3
S315200038900F4803F0B9FA00F077FB3B46184600F0D4
S315200038A0B5FB00233B6000237B600023FB603B4687
S315200038B01946102000F076FB0121102000F0BCFBF9
S315200038C00021082000F066FC00BF1837BD4680BDE9
S315200038D00000024080B584B000AF01214FF4804043
S315200038E001F0D6F90721012000F0E4F8FDF762FD8A
S315200038F03B461846FDF7EAFD80233B6000233B71DB
S315200039000C237B710123BB713B461846FDF76CFDEA
S3152000391007F10803184603F006FB0223BB600123C8
S315200039203B730123BB730023FB7301237B7307F1D6
S3152000393008031946184803F067FA0123BB600123E0
S315200039403B730123BB730023FB7301237B7307F1B6
S3152000395008031946104803F057FA012202210E489F
S3152000396003F089FB012201210B4803F084FB80230D
S31520003970BB6000233B730023BB730023FB7301232F
S315200039807B7307F108031946034803F03DFA00BF8D
S315200039901037BD4680BD00BF0004024080B483B00E
S315200039A000AFEFF314833B603B6823F003037B6097
S315200039B07B6883F3148800BF094B4FF404725A6165
S315200039C0074B5B69064A43F008035361054B4FF0EA
S315200039D000425A6000BF0C37BD465DF8047B704735
S315200039E000ED00E030EF00E080B500AF01210820B7
S315200039F001F02EF90121082001F06AFA00BF80BDEE
S31520003A0080B400AF124A02E0002342F8043B114B77
S31520003A109A42F9D300BFBD465DF8047B704780B556
S31520003A2000AFFFF7EDFFFFF781FEFFF786FEFFF7FA
S31520003A3019FFFFF74FFFFFF7B1FFFFF7D5FF00BFD5
S31520003A4080BD80B400AF00BFBD465DF8047B7047E3
S31520003A50A09300206817012080B500AF01214FF404
S31520003A60804001F0B5F900214FF4804001F0B0F913
S31520003A7000BF80BD80B483B000AF0346FB71044A0B
S31520003A80FB79136000BF0C37BD465DF8047B704799
S31520003A900038014080B483B000AF0346FB71044A6E
S31520003AA0FB79136000BF0C37BD465DF8047B704779
S31520003AB02000274280B485B000AF03460A46FB713A
S31520003AC01346BB710023FB60BB7903F003039B0005
S31520003AD00F2202FA03F3FB60164ABB799B08DBB27E
S31520003AE0023352F82320FB68DB431248B979890850
S31520003AF0C9B21A408B1C40F823200E4ABB799B087A
S31520003B00DBB2023352F82320F979BB7903F00303A1
S31520003B109B0001FA03F30748B9798908C9B21A4309
S31520003B208B1C40F8232000BF1437BD465DF8047B6C
S31520003B30704700BF0038014080B483B000AF786082
S31520003B40044A7B68136000BF0C37BD465DF8047BD2
S31520003B50704700BFDC00274280B483B000AF034625
S31520003B60FB71044AFB79136000BF0C37BD465DF834
S31520003B70047B70470004274280B483B000AF002343
S31520003B80FB71094B1B6A03F48073002B02D00123BF
S31520003B90FB7101E00023FB71FB7918460C37BD460B
S31520003BA05DF8047B704700BF0038014080B483B0C5
S31520003BB000AF786039607B685B6983F001027B68BF
S31520003BC05A617B685B6918460C37BD465DF8047BF5
S31520003BD0704780B483B000AF786039607B681B691A
S31520003BE0DA437B681A6100BF0C37BD465DF8047B5B
S31520003BF0704780B483B000AF786039607B68DA683C
S31520003C003B681344142B05DC7B68DA683B68134455
S31520003C10002B02DA7B68DB6807E07B68DA683B68A2
S31520003C201A447B68DA607B68DB6818460C37BD4629
S31520003C305DF8047B704780B586B002AF7860396046
S31520003C407B689B69002B03D01B4B00221A7030E047
S31520003C507B68DB685AB23B685BB213405AB27B681A
S31520003C601B695BB213405AB2134BD2B21A707B68EF
S31520003C709B68124A82FB03129210DB17D31AFB6051
S31520003C807B685B69002B0BD0FB6803F10A013B685C
S31520003C90DB4300930A4B7A68F868FDF761F808E081
S31520003CA03B68DB430093064B7A680021F868FDF7F2
S31520003CB057F81037BD4680BD1C740040676666669F
S31520003CC0373C002080B58EB000AF786039603B6805
S31520003CD0FB6200237B630023BB62FDF7FDF978625C
S31520003CE000233B632FE0FDF7F7F938627B68DB683A
S31520003CF003F001027B681B691340BB617B689B68EC
S31520003D002B4A82FB03129210DB17D31A7B617B6846
S31520003D105B69002B06D07B690A333B616FF0010398
S31520003D20FB6001E00023BB60FDF7D6F902463B6A43
S31520003D30D31AFB617A6BFB699342B8BF13467B6348
S31520003D403B6B01333B633B6BB3F5FA7FCBDBFDF774
S31520003D50C3F902467B6AD31ABB627B6B154A82FB88
S31520003D6003125113DA178A1A134901FB02F29A1A1F
S31520003D7013469B0013445B001A46FB6A1A60BA6A14
S31520003D800C4B83FB02135913D317CB1A0A4901FB99
S31520003D9003F3D31AFA6A0432084981FB0301091195
S31520003DA0DB17CB1A136000BF3837BD4680BD00BF76
S31520003DB06766666689B5F814A08601001F85EB51F3
S31520003DC080B483B000AF786039607B68DB6883F0AD
S31520003DD001027B68DA607B68DB6818460C37BD46D3
S31520003DE05DF8047B704780B483B000AF786039609B
S31520003DF07B689A683B68134445F6C052934206DCBA
S31520003E007B689A683B681344B3F57A7F02DA7B684D
S31520003E109B6807E07B689A683B681A447B689A60CF
S31520003E207B689B6818460C37BD465DF8047B704757
S31520003E3080B584B002AF7860396000BF3B685A1EF7
S31520003E403A60002BFAD17B68DB68002B09D07B68AF
S31520003E509B680093094B7A6882218220FCF780FFB9
S31520003E6008E07B689B680093044B7A6800218220D7
S31520003E70FCF776FF00BF0837BD4680BD313E0020E7
S31520003E8080B58CB000AF786039603B683B62002318
S31520003E90FB620023FB61FDF71FF9B8610023BB62BB
S31520003EA01CE03B6A1B687B62FDF716F9786100BF50
S31520003EB07B6A5A1E7A62002BFAD18223FB60FDF7B9
S31520003EC00BF902467B69D31A3B61FA6A3B69934236
S31520003ED0B8BF1346FB62BB6A0133BB62BB6AB3F54C
S31520003EE0FA7FDEDBFDF7F8F80246BB69D31AFB61E1
S31520003EF0FB6A144A82FB03125113DA178A1A1249F3
S31520003F0001FB02F29A1A13469B0013445B001A46E1
S31520003F103B6A1A60FA690B4B83FB02135913D317BA
S31520003F20CB1A094901FB03F3D31A3A6A043207492B
S31520003F3081FB03010911DB17CB1A136000BF303751
S31520003F40BD4680BD89B5F814A08601001F85EB51BA
S31520003F5080B483B000AF786039607B683A689A6134
S31520003F6000BF0C37BD465DF8047B704780B483B034
S31520003F7000AF786039607B683A689A6000BF0C377A
S31520003F80BD465DF8047B704780B500AF01214FF038
S31520003F90005000F0FDFE00214FF0005000F0F8FE2A
S31520003FA000BF80BD80B485B000AF78603960002343
S31520003FB0FB600023BB60144B1B68FB6040F6FE725F
S31520003FC07B6802FA03F3DB43FA681340FB603B6825
S31520003FD01A683B685B681A433B689B681A433B68D0
S31520003FE0DB681343BB60BA687B6802FA03F3FA689E
S31520003FF01343FB60044AFB68136000BF1437BD46B9
S315200040005DF8047B704700BF0074004080B483B025
S3152000401000AF78607B6800221A607B6800225A60B5
S315200040207B6800229A607B680022DA6000BF0C372A
S31520004030BD465DF8047B704780B483B000AF7860DE
S315200040400B46FB70FB78002B09D00D4B1A6801211B
S315200040507B6801FA03F30A4913430B6009E0084B16
S315200040601A6801217B6801FA03F3DB4304491340F4
S315200040700B6000BF0C37BD465DF8047B704700BF60
S315200040800074004080B483B000AF78600B46FB70AC
S31520004090FB78002B0AD00E4B5A687B681B0901213E
S315200040A001FA03F30A4913434B600AE0084B5A68A6
S315200040B07B681B09012101FA03F3DB430449134002
S315200040C04B6000BF0C37BD465DF8047B704700BFD0
S315200040D00074004080B483B000AF0346FB71FB79C7
S315200040E0002B06D0094B5B68084A43F00303536054
S315200040F005E0064B5B68054A23F00303536000BFC7
S315200041000C37BD465DF8047B704700BF0074004045
S3152000411080B485B000AFF860B9601346FB71FB79B7
S31520004120002B09D00C4B1A68B968FB6801FA03F317
S31520004130094913430B6009E0074B1A68B968FB6805
S3152000414001FA03F3DB43044913400B6000BF143725
S31520004150BD465DF8047B70470074004080B485B08E
S3152000416000AF78600B467B800023FB60084BFB602A
S31520004170FA687B6813440833FB60FB681A467B8821
S31520004180136000BF1437BD465DF8047B704700BF3F
S315200041900074004080B485B000AF78600B467B8009
S315200041A00023FB60084BFB60FA687B6813441433DA
S315200041B0FB60FB681A467B88136000BF1437BD4638
S315200041C05DF8047B704700BF0074004080B485B062
S315200041D000AF78600B467B8013463B800023FB6054
S315200041E00023BB607B68082B05D17B881A023B889D
S315200041F01343FB6004E07B881A043B881343FB606F
S31520004200074BBB607A68BB6813442033BB60BB682E
S31520004210FA681A6000BF1437BD465DF8047B704704
S315200042200074004080B485B000AF78600023FB6046
S31520004230084BFB607B689A08FB6813442C33FB60B1
S31520004240FB681B689BB218461437BD465DF8047B95
S31520004250704700BF0074004080B483B000AF786020
S315200042600B46FB70FB78002B0AD00E4B1A684FF4D6
S3152000427080517B6801FA03F30A4913430B600AE075
S31520004280084B1A684FF480517B6801FA03F3DB432D
S31520004290044913400B6000BF0C37BD465DF8047B14
S315200042A0704700BF0074004080B485B000AFF8604E
S315200042B0B9601346FB71FB79002B09D00C4B1A68A9
S315200042C0B968FB6801FA03F3094913430B6009E057
S315200042D0074B1A68B968FB6801FA03F3DB43044904
S315200042E013400B6000BF1437BD465DF8047B704752
S315200042F00074004080B485B000AF78603960002338
S31520004300FB730A4B5A6B39687B6801FA03F3134037
S31520004310002B02D00123FB7301E00023FB73FB7B00
S3152000432018461437BD465DF8047B7047007400407C
S3152000433080B483B000AF7860396006493A687B68FC
S3152000434002FA03F34B6300BF0C37BD465DF8047BCE
S31520004350704700BF0074004080B485B000AF78601D
S3152000436039600023FB730023BB60104B1A68396841
S315200043707B6801FA03F31340BB600C4B5A6B396818
S315200043807B6801FA03F31340002B05D0BB68002B92
S3152000439002D00123FB7301E00023FB73FB7B18464D
S315200043A01437BD465DF8047B704700BF007400409B
S315200043B080B483B000AF7860396006493A687B687C
S315200043C002FA03F34B6300BF0C37BD465DF8047B4E
S315200043D0704700BF0074004080B400AF164B1B68C6
S315200043E0154A43F001031360134B00229A60124BC7
S315200043F01B68114A23F0A85323F4102313600E4B95
S315200044000E4A5A600C4B0E4AC3F884200A4B0D4ABA
S31520004410C3F88820084B1B68074A23F480231360BF
S31520004420054B0022DA60044B0022C3F88C2000BF23
S31520004430BD465DF8047B70470038024010300024EA
S31520004440003000200030002480B483B000AF034643
S31520004450FB71064B00221A70044AFB79137000BFC9
S315200044600C37BD465DF8047B704700BF023802401A
S3152000447080B582B000AF00233B600023FB71002390
S31520004480BB71312000F08AFD0346BB713B680133C6
S315200044903B603B68B3F5A04F02D0BB79002BF0D030
S315200044A0312000F07BFD0346002B02D00123FB7157
S315200044B001E00023FB71FB7918460837BD4680BD15
S315200044C080B485B000AF0346FB710023FB600A4B26
S315200044D01B68FB60FB6823F0F803FB60FB79DB00BD
S315200044E0FA681343FB60044AFB68136000BF143765
S315200044F0BD465DF8047B70470038024080B483B027
S3152000450000AF0346FB71044AFB79136000BF0C37EA
S31520004510BD465DF8047B70470000474280B483B0F7
S3152000452000AF0346FB710D4B00221A700B4B002285
S315200045301A70FB79012B02D0042B04D007E0074B1D
S3152000454001221A7003E0054B05221A7000BF00BF36
S315200045500C37BD465DF8047B704700BF70380240BB
S3152000456080B483B000AF0346FB71044AFB79136025
S3152000457000BF0C37BD465DF8047B7047800E47426E
S3152000458080B485B000AFF860B9607A603B607B6824
S315200045909A01BB681A433B685B08013B1B041A431C
S315200045A0FB681A43BB691B06044913434B6000BFD3
S315200045B01437BD465DF8047B704700BF00380240C3
S315200045C080B483B000AF0346FB71044AFB791360C5
S315200045D000BF0C37BD465DF8047B7047600047423C
S315200045E080B483B000AF786039607B689A013B68FD
S315200045F01B0705491343C1F8843000BF0C37BD465D
S315200046005DF8047B704700BF0038024080B483B059
S3152000461000AF0346FB71044AFB79136000BF0C37D9
S31520004620BD465DF8047B70476800474280B485B07C
S3152000463000AFF860B9607A60FB689A01BB681B0618
S315200046401A437B681B0705491343C1F8883000BF0E
S315200046501437BD465DF8047B704700BF0038024022
S3152000466080B483B000AF0346FB71044AFB79136024
S3152000467000BF0C37BD465DF8047B7047700047428B
S3152000468080B483B000AF0346FB71044AFB79136004
S3152000469000BF0C37BD465DF8047B70474C0047428F
S315200046A080B485B000AF786039600023FB600B4B87
S315200046B09B68FB60FB6823F0EC63FB607A683B68D1
S315200046C01343FA681343FB60044AFB68936000BFF8
S315200046D01437BD465DF8047B704700BF00380240A2
S315200046E080B485B000AF786039600023FB600B4B47
S315200046F09B68FB60FB6823F07843FB607A683B6825
S315200047001343FA681343FB60044AFB68936000BFB7
S315200047101437BD465DF8047B704700BF0038024061
S3152000472080B485B000AF78600023FB60094B9B689E
S31520004730FB60FB6823F00303FB60FA687B68134386
S31520004740FB60044AFB68936000BF1437BD465DF8E2
S31520004750047B70470038024080B400AF054B9B684D
S31520004760DBB203F00C03DBB21846BD465DF8047BD2
S31520004770704700BF0038024080B485B000AF786033
S315200047800023FB60094B9B68FB60FB6823F0F0036A
S31520004790FB60FA687B681343FB60044AFB689360FE
S315200047A000BF1437BD465DF8047B704700380240D1
S315200047B080B485B000AF78600023FB60094B9B680E
S315200047C0FB60FB6823F4E053FB60FA687B681343C5
S315200047D0FB60044AFB68936000BF1437BD465DF852
S315200047E0047B70470038024080B485B000AF786003
S315200047F00023FB600A4B9B68FB60FB6823F4604345
S31520004800FB607B68DB00FA681343FB60044AFB68A5
S31520004810936000BF1437BD465DF8047B704700BF28
S315200048200038024080B489B000AF78600023BB61B5
S3152000483000237B610023FB6102233B610023FB6095
S315200048400223BB604A4B9B6803F00C03BB61BB6928
S31520004850082B11D0BB69082B44D8BB69002B03D089
S31520004860BB69042B04D03DE07B68424A1A603DE0D8
S315200048707B68414A1A6039E03D4B5B689B0D03F02B
S315200048800103FB603A4B5B6803F03F03BB60FB68A8
S31520004890002B0CD0384ABB68B2FBF3F3344A52687B
S315200048A09209C2F3080202FB03F3FB610BE0314AD3
S315200048B0BB68B2FBF3F32E4A52689209C2F3080290
S315200048C002FB03F3FB612A4B5B681B0C03F003031B
S315200048D001335B003B61FA693B69B2FBF3F27B680B
S315200048E01A6003E07B68234A1A6000BF204B9B684E
S315200048F003F0F003BB61BB691B09BB611F4ABB699F
S3152000490013441B78DBB27B617B681A687B69DA40CB
S315200049107B685A60164B9B6803F4E053BB61BB6906
S315200049209B0ABB61154ABB6913441B78DBB27B61CA
S315200049307B685A687B69DA407B689A600C4B9B6877
S3152000494003F46043BB61BB695B0BBB610B4ABB696C
S3152000495013441B78DBB27B617B685A687B69DA403B
S315200049607B68DA6000BF2437BD465DF8047B70475C
S31520004970003802400024F40000127A002C93002014
S3152000498080B485B000AF78600023FB607B6803F4B9
S315200049904073B3F5407F11D10F4B9B68FB60FB68DA
S315200049A023F4F813FB607B6823F0704323F44073F1
S315200049B0FA681343FB60084AFB689360064B1A6F3C
S315200049C07B68C3F30B03044913430B6700BF1437FB
S315200049D0BD465DF8047B70470038024080B483B042
S315200049E000AF0346FB71044AFB79136000BF0C3706
S315200049F0BD465DF8047B70473C0E474280B483B0C9
S31520004A0000AF0346FB71044AFB79136000BF0C37E5
S31520004A10BD465DF8047B7047400E474280B483B0A4
S31520004A2000AF7860044A7B68136000BF0C37BD4630
S31520004A305DF8047B704700BF5C01474280B485B0B7
S31520004A4000AF78600023FB600B4BD3F88C30FB6003
S31520004A50FB6823F01F03FB607B68013BFA68134366
S31520004A60FB60054AFB68C2F88C3000BF1437BD4690
S31520004A705DF8047B704700BF0038024080B485B0E3
S31520004A8000AF78600023FB600B4BD3F88C30FB60C3
S31520004A90FB6823F4F853FB607B68013B1B02FA6832
S31520004AA01343FB60044AFB68C2F88C3000BF1437FE
S31520004AB0BD465DF8047B70470038024080B485B05F
S31520004AC000AF78600023FB600A4BD3F88C30FB6084
S31520004AD0FB6823F44013FB60FA687B681343FB6092
S31520004AE0044AFB68C2F88C3000BF1437BD465DF817
S31520004AF0047B70470038024080B485B000AF7860F0
S31520004B000023FB600A4BD3F88C30FB60FB6823F450
S31520004B104003FB60FA687B681343FB60044AFB682A
S31520004B20C2F88C3000BF1437BD465DF8047B704751
S31520004B300038024080B485B000AF78600023FB6067
S31520004B400A4BD3F88C30FB60FB6823F44033FB60C0
S31520004B50FA687B681343FB60044AFB68C2F88C3012
S31520004B6000BF1437BD465DF8047B7047003802400D
S31520004B7080B483B000AF7860044A7B68136000BFBE
S31520004B800C37BD465DF8047B704700BFE0114742F5
S31520004B9080B483B000AF78600B46FB70FB78002BA7
S31520004BA006D00A4B1A6B09497B6813430B6306E050
S31520004BB0064B1A6B7B68DB43044913400B6300BF2B
S31520004BC00C37BD465DF8047B704700BF00380240B5
S31520004BD080B483B000AF78600B46FB70FB78002B67
S31520004BE006D00A4B5A6B09497B6813434B6306E090
S31520004BF0064B5A6B7B68DB43044913404B6300BF6B
S31520004C000C37BD465DF8047B704700BF0038024074
S31520004C1080B483B000AF78600B46FB70FB78002B26
S31520004C2006D00A4B9A6B09497B6813438B6306E0CF
S31520004C30064B9A6B7B68DB43044913408B6300BFAA
S31520004C400C37BD465DF8047B704700BF0038024034
S31520004C5080B483B000AF78600B46FB70FB78002BE6
S31520004C6006D00A4B1A6C09497B6813430B6406E08D
S31520004C70064B1A6C7B68DB43044913400B6400BF68
S31520004C800C37BD465DF8047B704700BF00380240F4
S31520004C9080B483B000AF78600B46FB70FB78002BA6
S31520004CA006D00A4B5A6C09497B6813434B6406E0CD
S31520004CB0064B5A6C7B68DB43044913404B6400BFA8
S31520004CC00C37BD465DF8047B704700BF00380240B4
S31520004CD080B483B000AF78600B46FB70FB78002B66
S31520004CE006D00A4B1A6909497B6813430B6106E013
S31520004CF0064B1A697B68DB43044913400B6100BFEE
S31520004D000C37BD465DF8047B704700BF0038024073
S31520004D1080B483B000AF78600B46FB70FB78002B25
S31520004D2006D00A4B5A6909497B6813434B6106E052
S31520004D30064B5A697B68DB43044913404B6100BF2D
S31520004D400C37BD465DF8047B704700BF0038024033
S31520004D5080B483B000AF78600B46FB70FB78002BE5
S31520004D6006D00A4B9A6909497B6813438B6106E092
S31520004D70064B9A697B68DB43044913408B6100BF6D
S31520004D800C37BD465DF8047B704700BF00380240F3
S31520004D9080B483B000AF78600B46FB70FB78002BA5
S31520004DA006D00A4B1A6A09497B6813430B6206E050
S31520004DB0064B1A6A7B68DB43044913400B6200BF2B
S31520004DC00C37BD465DF8047B704700BF00380240B3
S31520004DD080B483B000AF78600B46FB70FB78002B65
S31520004DE006D00A4B5A6A09497B6813434B6206E090
S31520004DF0064B5A6A7B68DB43044913404B6200BF6B
S31520004E000C37BD465DF8047B704700BF0038024072
S31520004E1080B483B000AF78600B46FB70FB78002B24
S31520004E2006D00A4B1A6D09497B6813430B6506E0C9
S31520004E30064B1A6D7B68DB43044913400B6500BFA4
S31520004E400C37BD465DF8047B704700BF0038024032
S31520004E5080B483B000AF78600B46FB70FB78002BE4
S31520004E6006D00A4B5A6D09497B6813434B6506E009
S31520004E70064B5A6D7B68DB43044913404B6500BFE4
S31520004E800C37BD465DF8047B704700BF00380240F2
S31520004E9080B483B000AF78600B46FB70FB78002BA4
S31520004EA006D00A4B9A6D09497B6813438B6506E049
S31520004EB0064B9A6D7B68DB43044913408B6500BF24
S31520004EC00C37BD465DF8047B704700BF00380240B2
S31520004ED080B483B000AF78600B46FB70FB78002B64
S31520004EE006D00A4B1A6E09497B6813430B6606E007
S31520004EF0064B1A6E7B68DB43044913400B6600BFE2
S31520004F000C37BD465DF8047B704700BF0038024071
S31520004F1080B483B000AF78600B46FB70FB78002B23
S31520004F2006D00A4B5A6E09497B6813434B6606E046
S31520004F30064B5A6E7B68DB43044913404B6600BF21
S31520004F400C37BD465DF8047B704700BF0038024031
S31520004F5080B483B000AF03460A46FB711346BB718B
S31520004F60BB79002B08D00C4B1B78DAB20A49FB79A7
S31520004F701343DBB20B7009E0074B1B78DAB2FB79DF
S31520004F80DB43DBB204491340DBB20B7000BF0C37A6
S31520004F90BD465DF8047B70470D38024080B487B06B
S31520004FA000AF0346FB710023FB6000237B610023D7
S31520004FB0FB74FB795B09DBB2FB60FB68012B03D139
S31520004FC0124B1B687B6109E0FB68022B03D10F4B58
S31520004FD01B6F7B6102E00D4B5B6F7B61FB7903F0FE
S31520004FE01F03FB607A69FB6822FA03F303F00103CF
S31520004FF0002B02D00123FB7401E00023FB74FB7C11
S3152000500018461C37BD465DF8047B704700380240C1
S3152000501080B400AF054B5B6F044A43F0807353673F
S3152000502000BFBD465DF8047B704700BF00380240D4
S3152000503080B485B000AF0346FB710023FB73094B98
S31520005040DA68FB791340002B02D00123FB7301E0C1
S315200050500023FB73FB7B18461437BD465DF8047BA3
S31520005060704700BF0038024080B483B000AF0346CB
S31520005070FB71044AFB79137000BF0C37BD465DF8FF
S31520005080047B70470E38024080B582B000AF78604E
S315200050907B68604A934208D101210120FFF798FEE0
S315200050A000210120FFF794FEAFE07B68B3F1804F2B
S315200050B008D101210120FFF76BFE00210120FFF717
S315200050C067FEA2E07B68544A934208D10121022060
S315200050D0FFF75EFE00210220FFF75AFE95E07B686F
S315200050E04E4A934208D101210420FFF751FE0021A8
S315200050F00420FFF74DFE88E07B68494A934208D199
S3152000510001210820FFF744FE00210820FFF740FE7A
S315200051107BE07B68434A934208D101211020FFF7A8
S3152000512037FE00211020FFF733FE6EE07B683E4AF3
S31520005130934208D101212020FFF72AFE00212020BA
S31520005140FFF726FE61E07B68384A934208D10121A9
S315200051500220FFF73DFE00210220FFF739FE54E032
S315200051607B68334A93420AD101214FF48030FFF7FE
S315200051702FFE00214FF48030FFF72AFE45E07B68A2
S315200051802C4A93420AD101214FF40030FFF720FE2A
S3152000519000214FF40030FFF71BFE36E07B68264ADD
S315200051A093420AD101214FF48020FFF711FE0021FE
S315200051B04FF48020FFF70CFE27E07B681F4A9342BE
S315200051C008D101214020FFF7E3FD00214020FFF711
S315200051D0DFFD1AE07B681A4A934208D1012180201C
S315200051E0FFF7D6FD00218020FFF7D2FD0DE07B687A
S315200051F0144A934209D101214FF48070FFF7C8FD6C
S3152000520000214FF48070FFF7C3FD00BF0837BD466D
S3152000521080BD00BF0000014000040040000800409F
S31520005220000C004000100040001400400004014023
S315200052300040014000440140004801400018004061
S31520005240001C00400020004080B485B000AF78608C
S3152000525039600023FB817B681B88FB817B68294A98
S31520005260934213D07B68284A93420FD07B68B3F1D0
S31520005270804F0BD07B68254A934207D07B68244A0F
S31520005280934203D07B68234A934208D1FB8923F0BB
S315200052907003FB813B685A88FB891343FB817B683B
S315200052A01D4A93420CD07B681C4A934208D0FB8946
S315200052B023F44073FB813B681A89FB891343FB81E6
S315200052C07B68FA891A803B685A687B68DA623B6891
S315200052D01A887B681A857B680A4A934203D07B68C2
S315200052E0094A934204D13B689B7A9AB27B681A8614
S315200052F07B6801229A8200BF1437BD465DF8047B85
S31520005300704700BF00000140000401400004004037
S3152000531000080040000C004000100040001400402F
S3152000532080B483B000AF78607B684FF0FF325A605C
S315200053307B6800221A807B6800221A817B68002203
S315200053405A807B6800229A7200BF0C37BD465DF8F2
S31520005350047B704780B483B000AF78600B467B80B7
S3152000536013463B807B687A881A857B683A889A82BE
S3152000537000BF0C37BD465DF8047B704780B485B00E
S3152000538000AF78600B467B800023FB817B681B88FF
S31520005390FB81FB8923F07003FB81FA897B88134309
S315200053A0FB817B68FA891A8000BF1437BD465DF8F9
S315200053B0047B704780B483B000AF786039607B6827
S315200053C03A685A6200BF0C37BD465DF8047B7047C9
S315200053D080B483B000AF786039607B683A68DA625F
S315200053E000BF0C37BD465DF8047B704780B483B0A0
S315200053F000AF78607B685B6A18460C37BD465DF85F
S31520005400047B704780B483B000AF78607B681B8DC7
S315200054109BB218460C37BD465DF8047B704780B4B6
S3152000542083B000AF78600B46FB70FB78002B08D06A
S315200054307B681B889BB243F002039AB27B681A8072
S3152000544007E07B681B889BB223F002039AB27B6835
S315200054501A8000BF0C37BD465DF8047B704780B4C8
S3152000546083B000AF78600B467B807B88002B08D00A
S315200054707B681B889BB243F004039AB27B681A8030
S3152000548007E07B681B889BB223F004039AB27B68F3
S315200054901A8000BF0C37BD465DF8047B704780B488
S315200054A083B000AF78600B46FB70FB78002B08D0EA
S315200054B07B681B889BB243F080039AB27B681A8074
S315200054C007E07B681B889BB223F080039AB27B6837
S315200054D01A8000BF0C37BD465DF8047B704780B448
S315200054E083B000AF78600B467B807B681B889BB2BD
S315200054F023F008039AB27B681A807B681B889AB2CD
