S01600002E2F44656275672F5254532D4C61622E73313936
S3152000000000BFDFF814D001F01CF901F02BFD01F040
S315200000102AB9FEE700BF000000C0012080B485B0E9
S3152000002000AF786039603B68BB600023FB6015E059
S315200000307B689A68FB689B0013441A687B681B6977
S31520000040134403F10A02FB689B00B9680B44094973
S3152000005051F822201A60FB680133FB607B68DB685D
S31520000060FA689A42E4DB00BF00BF1437BD465DF84C
S31520000070047B7047F08E002080B483B000AF786098
S3152000008039607B683A681A6100BF0C37BD465DF857
S31520000090047B704780B483B000AF786039607B689A
S315200000A0DB6B591C7A68D1633A68D1B27A681344FB
S315200000B00A461A7200BF0C37BD465DF8047B7047AE
S315200000C080B582B000AF786039607B68DB6B7A6878
S315200000D0134400221A727B680022DA637B68083395
S315200000E0184608F035F9034618460837BD4680BD40
S315200000F080B483B000AF786039607B685A697B68CA
S315200001000232396843F822107B685B69591C0B4B15
S3152000011083FB0132CB17D21A13465B001344CA1A4B
S315200001207B685A617B689B695A1C7B689A6100BF11
S315200001300C37BD465DF8047B704700BF56555555B4
S3152000014080B483B000AF786039607B6800229A6003
S315200001507B680022DA607B6800221A617B680022B5
S315200001605A617B6800229A6100BF0C37BD465DF854
S31520000170047B704780B483B000AF786039607B68B9
S315200001809A687B68DB681A447B681B6913441846A7
S315200001900C37BD465DF8047B704780B487B000AF4E
S315200001A0786039607B689B69022B0BD0022B10DCB0
S315200001B0002B02D0012B02D00BE000232FE07B681E
S315200001C09B682CE07B689A687B68DB6813445B102D
S315200001D025E07B689A687B68DB68D31A7B617B683D
S315200001E0DA687B681B69D31A3B617B689A687B68EF
S315200001F01B69D31AFB607B693A6902FB03F3002B68
S3152000020002DD7B68DB680AE07B69FA6802FB03F3A0
S31520000210002B02DD7B681B6901E07B689B68184622
S315200002201C37BD465DF8047B704780B487B000AFAD
S31520000230786039606FF000437B614FF000433B618B
S315200002400023FB6026E07B68D3F8F820FB689B0040
S3152000025013441B687A699A4207DD7B68D3F8F82035
S31520000260FB689B0013441B687B617B68D3F8F820EE
S31520000270FB689B0013441B683A699A4207DA7B683D
S31520000280D3F8F820FB689B0013441B683B61FB688E
S315200002900133FB607B68D3F8FC30FA689A42D2DBE4
S315200002A07B687A69C3F804217B683A69C3F8082118
S315200002B000BF1C37BD465DF8047B704780B489B00B
S315200002C000AF786039607B683A68C3F80021002364
S315200002D0FB617B68D3F804313A681344BB6152E072
S315200002E0BB69002B0DDAB9692E4B83FB01235A100B
S315200002F0CB17D21A13465B0013449B00CA1A0C3242
S315200003000BE0B969274B83FB01235A10CB17D21A6E
S3152000031013465B0013449B00CA1A7A61BB69002B03
S3152000032008DABB691F4A82FB03125210DB17D31A65
S31520000330013B06E0BB691B4A82FB03125210DB1706
S31520000340D31A3B61184A7B6952F82330FB603B691C
S31520000350002B07DA3B69002BB8BF5B42FA6802FA2A
S3152000036003F303E0FA683B6942FA03F3FB607B6818
S31520000370FA690232F96843F82210FB690133FB61FE
S31520000380BB690133BB617B68D3F808213B68134402
S31520000390BA699A42A4DD00BF00BF2437BD465DF886
S315200003A0047B7047ABAAAA2A548F002080B485B05C
S315200003B000AF786039603B68BB600023FB6016E0C5
S315200003C07B68D3F8F820FB689B0013441A687B6887
S315200003D0D3F80431D11AFB689B00BA6813447A68B3
S315200003E0023152F821201A60FB680133FB607B68DA
S315200003F0D3F8FC30FA689A42E2DB00BF00BF14371C
S31520000400BD465DF8047B704780B586B002AF786044
S3152000041039603B68002B07D1032300933B4B7A6856
S315200004200021002002F0A0F87B681A6900230093BF
S31520000430374B0021002002F097F87B6819697B680A
S315200004409B687A6808339B0013445B680093314BA2
S315200004500A460021002002F087F87B681A694FF0CF
S31520000460FF3300932C4B0021002002F07DF87B689F
S315200004701B6A7A689268134418787B6899697B6846
S31520000480DB691A4600F0B6F80346642202FB03F342
S31520000490BB607B689B68013323F020027B689A60EF
S315200004A07B681B6A7A68926813441B78632B0CD08E
S315200004B0632B0DDC612B02D0622B03D008E00223D4
S315200004C0FB6005E00423FB6002E00123FB6000BF24
S315200004D07B689B69642202FB03F35B110F4A82FB54
S315200004E003129210DB17D21ABB68D1183A68FB6840
S315200004F0134403F003030093094B7A68B86802F0AB
S3152000050033F800BF1037BD4680BD00BF250500204B
S31520000510D5390020F13900204B3800206766666601
S315200005207905002080B584B002AF786039603B68D9
S31520000530002B18DD7B6858693B68002B03F001030C
S31520000540B8BF5B421A460A4902F0ACF87B689B6941
S3152000055058103B68013B3B603B680093054B7A682B
S31520000560002102F001F800BF0837BD4680BD00BF5C
S31520000570911B00202505002080B586B002AF78604B
S3152000058039607B681A6901230093174B00210020EC
S3152000059001F0EAFF7B68D3F8A430002B1CD07B68DF
S315200005A0DB69642202FB03F3FB607B689B694FF4E3
S315200005B0617202FB03F35B110C4A82FB0312921059
S315200005C0DB17D21AFB68D1183B680093084B7A6870
S315200005D0F86801F0C9FF02E07B680022DA6000BFFC
S315200005E01037BD4680BD00BFD539002067666666D8
S315200005F00904002080B485B000AF0346B9607A6054
S31520000600FB73FB7B632B0FD0632B12DC612B02D099
S31520000610622B04D00DE0BA687B68D31A0BE0BB6866
S315200006205A007B68D31A06E0BB685A107B68D31A37
S3152000063001E04FF0FF3318461437BD465DF8047BC2
S31520000640704780B483B000AF786039604EF6602280
S315200006503B6892FBF3F27B689A617B689B69074A49
S3152000066082FB03129210DB17D21A7B68DA6100BF75
S315200006700C37BD465DF8047B704700BF676666662B
S3152000068080B485B000AF786039603B68BB600023DA
S31520000690FB600DE0FB689B00BA6813441A68796812
S315200006A0FB6808339B000B445A60FB680133FB60F0
S315200006B0FB681F2BEEDD00BF00BF1437BD465DF87B
S315200006C0047B704780B584B002AF786039607B6860
S315200006D0D3F8A430002B04D07B680022C3F8A420D2
S315200006E015E07B680122C3F8A4207B68DB68002B19
S315200006F00DD17B6800229A607B680122DA60002394
S315200007000093064B7A680021002001F02DFF7B68BC
S31520000710D3F8A43018460837BD4680BD090400200A
S3152000072080B483B000AF786039607B681B6983F042
S3152000073001027B681A617B681B6918460C37BD4627
S315200007405DF8047B704780B582B000AF7860396071
S315200007507B681B69002B04D07B680833184602F09F
S3152000076081F800BF0837BD4680BD80B582B000AF96
S31520000770786039607B680C33184602F091F803469E
S315200007800A4A93420DDD7B681B69002B09D07B68E2
S3152000079001229A617B68DB69054A0649184601F001
S315200007A081FF00BF0837BD4680BD00BF9F86010080
S315200007B0888F0020EB2C002080B588B002AF7860AF
S315200007C039607B681B69002B40F091807B68083379
S315200007D0184602F065F838613A69764B83FB0213B6
S315200007E05913D317CB1A744901FB03F3D31A42F2D8
S315200007F07372934240F3D9807B685B695A1C7B688D
S315200008005A617B680C33184602F02CF800230093BB
S315200008106A4B7A680021684801F0A6FE7B68083397
S31520000820184602F01FF87B685B69012B00F0BD803B
S315200008303A69604B83FB02135913D317CB1A5E49CF
S3152000084001FB03F3D31A5E4A82FB03125211DB1714
S31520000850D21A3B69574981FB03014913DB17CB1A8F
S315200008604FF47A7101FB03F31344FB607B68DB6969
S31520000870FA685449184600F0B3F87B681B6AFA6890
S315200008805149184601F00EFF0346002B13D17B6811
S315200008901A6A002300934D4B0021002001F064FECC
S315200008A07B6801225A617B68DB69494A49491846B7
S315200008B001F0F8FE19E07B685B69042B15D17B6893
S315200008C01B6A00224449184601F0ECFEB8607B689A
S315200008D01A6A002300933D4B0021002001F044FEBC
S315200008E07B6801225A61BB6860E000235EE07B687A
S315200008F09B69002B59D07B681B69002B55D07B68E0
S3152000090000229A617B680833184601F0C9FF786196
S315200009107B68D8697A69274B83FB02135913D3174F
S31520000920CB1A254901FB03F3D31A254A82FB03126E
S315200009305211DB17D21A7B691E4981FB03C1491369
S31520000940DB17CB1A4FF47A7101FB03F313441A46D3
S31520000950224900F045F87B681A6A002300931B4B56
S315200009600021002001F000FE7B6800225A617A698E
S31520000970104B83FB02135913D317CB1A0E4901FBD5
S3152000098003F3D31A0E4A82FB03125211DB17D21A33
S315200009907B69084981FB03014913DB17CB1A4FF406
S315200009A07A7101FB03F3134400E00023184618373D
S315200009B0BD4680BD89B5F814A08601006B070020CE
S315200009C01F85EB51A08F0020150A0020990A0020D0
S315200009D0C08F0020EB2C0020CD0A002004900020A0
S315200009E080B592B000AFF860B9607A6007F1140361
S315200009F07A68B968184607F0CFFC07F114031A463F
S31520000A000349F86801F04EFE00BF4837BD4680BD59
S31520000A10EB2C002080B485B000AF786039600023CD
S31520000A20FB6010E07B68FA68023253F822203B68AC
S31520000A30D31A002BB8BF5B42642B01DD002322E0D2
S31520000A40FB680133FB607B685B69FA689A42E9DBE5
S31520000A507B685A697B680232396843F822107B68C2
S31520000A605B69591C0B4B83FB0132CB17D21A1346F9
S31520000A705B001344CA1A7B685A617B689B695A1CBF
S31520000A807B689A61012318461437BD465DF8047BBE
S31520000A90704700BF5655555580B483B000AF786077
S31520000AA039607B6800229A607B680022DA607B6866
S31520000AB000221A617B6800225A617B6800229A61B3
S31520000AC000BF0C37BD465DF8047B704780B485B007
S31520000AD000AF786039607B689A687B68DB681A4467
S31520000AE07B681B691344084A82FB0312DB17D31A5F
S31520000AF0FB604EF66022FB6892FBF3F31846143730
S31520000B00BD465DF8047B70475655555580B483B075
S31520000B1000AF0346FB71FB7903F01F03012202FAA3
S31520000B2003F1064A97F907305B0942F8231000BF04
S31520000B300C37BD465DF8047B704700BF00E100E03E
S31520000B4080B483B000AF03463960FB7197F9073054
S31520000B50002B0BDA3B68DAB20C49FB7903F00F0362
S31520000B60043B1201D2B20B441A7609E03B68DAB292
S31520000B70074997F907301201D2B20B4483F80023B4
S31520000B8000BF0C37BD465DF8047B704700ED00E0E2
S31520000B9000E100E080B586B000AF786039607B6800
S31520000BA000229A617B689A697B685A617B685A69D8
S31520000BB07B68DA61224801F09BF807F10C0318469E
S31520000BC003F0FCFF0023BB740023FB7400233B755A
S31520000BD000237B750023BB750023FB750023BB73A5
S31520000BE00023FB7302233B7403237B740723BB81FF
S31520000BF007F10C031946134803F04CFE0346002B5D
S31520000C0002D1114801F074F807F10C0319460F4878
S31520000C1003F040FE0346002B02D10D4801F068F890
S31520000C2002211420FFF78CFF1420FFF76FFF01220B
S31520000C300221044804F000FC00BF1837BD4680BDE1
S31520000C40289000200064004050900020006800405A
S31520000C5068900020B0B58AB002AF786039607B68B2
S31520000C609B685A49184604F005FC0346012B02D01E
S31520000C70574801F03DF87B68DB69072B00F39F801E
S31520000C807B689B6807F108020021184604F0DAF910
S31520000C90BB681B09DBB27A68526903F07F03D8B2BE
S31520000CA0796813469B0013445B0013440B4420339E
S31520000CB002461A70BB68DBB27A68526903F00F03EA
S31520000CC0D8B2796813469B0013445B0013440B4447
S31520000CD0213302461A70BB7C7A68526903F00F03EF
S31520000CE0D8B2796813469B0013445B0013440B4427
S31520000CF0223302461A700023FB7716E0FB7F7A68C0
S31520000D005269F97F07F12000034413F80D4C7868E7
S31520000D1013469B0013445B00134403440B442333C4
S31520000D2022461A70FB7F0133FB777B685A69796804
S31520000D3013469B0013445B0013440B4422331B7859
S31520000D40FA7F9A42DAD37B68DB68002B25D07B6852
S31520000D50DC687B681D697B685A69796813469B0045
S31520000D6013445B0013440B4420331B7819017B6822
S31520000D705A69786813469B0013445B001344034466
S31520000D8021331B780B4400932B462246002100205A
S31520000D9001F0EAFB0F4B01221A607B685B69013385
S31520000DA05A4203F0070302F0070258BF53427A68FB
S31520000DB053617B68DB695A1C7B68DA6102E006486E
S31520000DC000F096FF00BF2037BD46B0BD03000012DD
S31520000DD080900020689B0020A890002090B484B0CA
S31520000DE000AF786039607B68DB69002B55DD7B6856
S31520000DF09A69796813469B0013445B0013440B449D
S31520000E0020331A783B681A707B689A69796813468A
S31520000E109B0013445B0013440B4421331A783B6830
S31520000E205A707B689A69796813469B0013445B0065
S31520000E3013440B4422331A783B689A700023FB73C1
S31520000E4013E07B689A69F87BF97B7C6813469B00E4
S31520000E5013445B0013442344034423331A783B682A
S31520000E600B44DA70FB7B0133FB733B689B78FA7B80
S31520000E709A42E6D37B689B6901335A4203F0070303
S31520000E8002F0070258BF53427A6893617B68DB6998
S31520000E905A1E7B68DA61002300E0012318461037CA
S31520000EA0BD4690BC704780B58AB000AF7860396087
S31520000EB07B689B683B620023FB77234B3B623B6846
S31520000EC01B781B013A6852781344BB6000237B745D
S31520000ED000233B743B689B78082B02D93B68082289
S31520000EE09A703B689B78BB74002387F8273010E004
S31520000EF097F8272097F8273039680A44D27807F1DF
S31520000F0028010B4403F8152C97F82730013387F86E
S31520000F1027303B689B7897F827209A42E8D307F139
S31520000F2008031946386A03F00DFF0346FB77FB7F5B
S31520000F30042B04D1054800F0DBFE012300E000234A
S31520000F4018462837BD4680BD00680040C89000205E
S31520000F5080B400AF00BFBD465DF8047B704780B506
S31520000F6086B000AF454806F081FD454803F06EFC8B
S31520000F70444803F06BFC01214FF0007003F04AFA5D
S31520000F8001214FF0806003F045FA0121022003F091
S31520000F90E1F909220921394806F08AFF09220821A8
S31520000FA0364806F085FF07F11003184606F09FFE27
S31520000FB04FF400733B6102233B750023BB7500236E
S31520000FC0FB7502237B7507F1100319462B4806F0A3
S31520000FD0FFFD4FF480733B6102233B750023BB75F5
S31520000FE00123FB7502237B7507F11003194623485D
S31520000FF006F0EEFD09220621204806F059FF0922B7
S3152000100005211E4806F054FF40233B6102233B7511
S315200010100023BB750023FB7502237B7507F11003A4
S315200010201946164806F0D4FD20233B6102233B7562
S315200010300023BB750123FB7502237B7507F1100383
S3152000104019460E4806F0C4FD0023BB720023FB722E
S3152000105001233B7300233B8000237B800023BB803E
S315200010600023FB8000233B8101237B733B461846EC
S3152000107003F0E1FC00BF1837BD4680BD00040240E6
S31520001080006400400068004080B586B000AF0121B2
S315200010904FF0005003F0BEF907F11003184606F092
S315200010A026FE20233B6103233B750023FB7507F1B6
S315200010B0100319460F4806F08BFD06F0AFFA3B46A3
S315200010C0184606F0EDFA00233B6000237B600023E0
S315200010D0FB603B461946102006F0AEFA012110208F
S315200010E006F0F4FA0021082006F09EFB00BF183710
S315200010F0BD4680BD0000024080B584B000AF01210E
S315200011004FF4804003F0A6F90721012006F048FF9E
S3152000111006F0C2FF3B46184607F04AF880233B609C
S3152000112000233B710C237B710123BB713B46184680
S3152000113006F0CCFF07F10803184606F0D8FD022377
S31520001140BB6001233B730123BB730023FB73012385
S315200011507B7307F108031946184806F039FD012369
S31520001160BB6001233B730123BB730023FB73012365
S315200011707B7307F108031946104806F029FD012262
S3152000118002210E4806F05BFE012201210B4806F0E3
S3152000119056FE8023BB6000233B730023BB730023D2
S315200011A0FB7301237B7307F108031946034806F0F6
S315200011B00FFD00BF1037BD4680BD00BF00040240B2
S315200011C080B483B000AFEFF314833B603B6823F019
S315200011D003037B607B6883F3148800BF094B4FF4BD
S315200011E004725A61074B5B69064A43F00803536150
S315200011F0054B4FF000425A6000BF0C37BD465DF8E4
S31520001200047B704700ED00E030EF00E080B500AFD2
S315200012100121082003F0FEF80121082003F03AFA04
S3152000122000BF80BD80B400AF124A02E0002342F81E
S31520001230043B114B9A42F9D300BFBD465DF8047BAF
S31520001240704780B500AFFFF7EDFFFFF781FEFFF790
S3152000125086FEFFF719FFFFF74FFFFFF7B1FFFFF7F6
S31520001260D5FF00BF80BD80B400AF00BFBD465DF88E
S31520001270047B7047009B0020E81E0120314900E0D6
S315200012803149EFF3088020ED108A7246EFF311837F
S3152000129020E9FC0F2D4FD7F80080C8F800001EE08B
S315200012A0084600F025FD2A4800F022FD294800F0D6
S315200012B01FFDD8F8040000F067FD274800F018FD50
S315200012C0D8F8000000F031FD244800F011FDD8F8D0
S315200012D00000006800F029FD1D4800F009FDDFF838
S315200012E08080D8F80080C7F8008018E01D4800F0FC
S315200012F0FFFCD8F8040000F047FD1B4800F0F8FC7E
S31520001300D8F8000000F011FD144800F0F1FCD8F8E0
S315200013100000006800F009FD0D4800F0E9FC134AC2
S31520001320536843F00063536000BFD8F80000B0E86C
S31520001330FC0F83F311889646B0EC108A80F3088858
S31520001340704700002C9400203D940020889A0020AD
S31520001350AD9400205E940020769400207E94002098
S315200013608C9B0020879400209C94002000ED00E0B8
S3152000137080B586B002AF7860396000221C491D48CE
S3152000138001F090F9F86000221B491A4801F08AF909
S3152000139003461A4619491A4801F084F9FB68B3F541
S315200013A0FA6F0EDD174B1A461749184801F07AF9DD
S315200013B078230093164B174A0021002001F0D4F819
S315200013C012E0FB681E2B0FDDFB68B3F5967F0BDA68
S315200013D0F968114800F038FAFB6800930C4B0D4A67
S315200013E00021002001F0C0F800BF1037BD4680BDA7
S315200013F0B9070020CC99002021070020D11B00200E
S31520001400C0940020A0910020EB2C0020AC95002059
S315200014104306002004950020B891002080B586B0B0
S3152000142000AF7860396007F108031A46134914485B
S3152000143001F038F900237B61FB7A1A467B69134455
S315200014407B613B7B1B027A6913447B617B7B1B049C
S315200014507A6913447B61BB7B1B067A6913447B61E3
S315200014603B7A1946074800F0EFF97969064800F0FB
S31520001470EBF900BF1837BD4680BD00BFDD0D00204B
S31520001480F0990020CC910020DC91002080B584B01A
S3152000149002AF786039600E4B1A460E490E4801F0AD
S315200014A001F93A680D490C4801F0FCF80C4B1A4634
S315200014B00849094801F0F6F83B680093094B0A4AA7
S315200014C00021002001F050F800BF0837BD4680BD3E
S315200014D0E8910020EB2C0020AC950020412D002027
S315200014E0F0910020DD160020B094002090B595B034
S315200014F002AF03463960FB71FB79623B142B00F285
S31520001500C68001A252F823F0351600205D15002072
S315200015108F1600208F1600208F1600208F16002091
S315200015208F1600208F1600208F1600208B15002086
S315200015308F160020231600208F1600208F160020DD
S315200015408F1600208F1600208F160020631600208D
S315200015508F1600208F160020751500204FF0FF32C1
S315200015604D494E4801F09EF8034619464C4800F076
S315200015706BF98CE001224849484801F093F803466C
S315200015801946474800F060F981E06B461C4607F192
S315200015900C033A684349184606F0FEFE07F10C0391
S315200015A01A464149414801F07DF83A684049414888
S315200015B001F078F82023013B7B64202318464FF066
S315200015C000014FF000024FF000034B0143EAD063C5
S315200015D04201202318464FF000014FF000024FF041
S315200015E000034B0143EAD063420120239B000733CB
S315200015F0DB08DB00ADEB030D02AB03339B089B003E
S315200016003B643B6C1A462C492A4801F04BF83B6C4C
S3152000161000932A4B2A4A0021002000F0A5FFA54668
S3152000162035E000230093274B1C4A0021002000F0C0
S315200016309BFF2CE007F10C033A682349184606F075
S31520001640ABFE07F10C031A461749184801F02AF891
S315200016503B6800931D4B1A4A0021002000F084FFAE
S3152000166015E000221A49164801F01CF80346002B03
S3152000167006D0184B1A460C490C4801F013F805E021
S31520001680154B1A460849094801F00CF800BF00BF5F
S315200016904C37BD4690BD00BF07380020D4940020AB
S315200016A0F49100200C920020EB2C0020AC95002019
S315200016B079000020F09400201D00002081060020E3
S315200016C004950020E73700201892002043060020CA
S315200016D0C5060020249200203092002080B582B0DA
S315200016E000AF78603960386800F004F800BF08372A
S315200016F0BD4680BD80B584B002AF78607B68762B0E
S3152000170000F385807B68622B0ADA7B682D2B39D023
S315200017107B682D2B7BDB7B68303B092B77D831E030
S315200017207B68623B142B72D801A252F823F000BFCB
S31520001730DD170020971700200F1800200F18002013
S315200017400F1800200F1800200F1800200F18002057
S315200017500F180020C51700200F180020CB170020D7
S315200017600F1800200F1800200F1800200F18002037
S315200017700F180020E31700200F1800200F18002054
S31520001780AF1700207B680093234B244A00210020BA
S3152000179000F0EAFE3BE04FF0FF322149214800F0FD
S315200017A081FF03461946204800F04EF82FE001221B
S315200017B01B491C4800F076FF034619461A4800F0DC
S315200017C043F824E000F05CF821E000230093174B57
S315200017D0144A0021002000F0C7FE18E000F0BAF8F5
S315200017E015E000221249134800F05CFF0346002B47
S315200017F006D0114B1A461149114800F053FF05E057
S31520001800104B1A460D490E4800F04CFF00BF00BF92
S315200018100837BD4680BD00BF950000201C9B0020D8
S3152000182007380020D4940020F4910020E7370020C8
S31520001830C50600200495002024920020EB2C0020D1
S31520001840AC9500203092002080B590B000AF786033
S31520001850396007F10C033A687968184606F09CFD52
S3152000186007F10C031A460449044800F01BFF00BF89
S315200018704037BD4680BD00BFEB2C0020AC95002034
S3152000188090B591B000AF6B461C46002227492848E8
S3152000189000F008FFF8633B46FA6B2649184606F027
S315200018A07BFD3B461A462449244800F0FBFEFA6B92
S315200018B02349244800F0F6FE2023013BBB63202366
S315200018C018464FF000014FF000024FF000034B0185
S315200018D043EAD0634201202318464FF000014FF01F
S315200018E000024FF000034B0143EAD063420120235C
S315200018F09B000733DB08DB00ADEB030D6B460333A0
S315200019009B089B007B637B6B1A460F490D4800F0B2
S31520001910C9FE7B6B1A460D490D4800F0C3FEFB6BD2
S31520001920A54618464437BD4690BD00BFC1000020DD
S315200019301C9B00200C920020EB2C0020AC95002054
S3152000194079000020F09400201D0000208106002050
S315200019500495002080B590B002AF00220E490F48B2
S3152000196000F0A0FE78633B467A6B0D49184606F0D8
S3152000197013FD3B461A460B490B4800F093FE7B6B42
S3152000198000930A4B0A4A0021002000F0EDFD7B6BF4
S3152000199018463837BD4680BDC10000201C9B00205C
S315200019A018920020EB2C0020AC9500204306002046
S315200019B00495002080B586B000AF786039607B68DA
S315200019C0DBB23B7301237B730423BB733B68DBB21F
S315200019D0FB733B681B12DBB23B743B681B14DBB208
S315200019E07B743B681B16DBB2BB7407F10C031A46EB
S315200019F00349044800F056FE00BF1837BD4680BD97
S31520001A00A70E0020F099002080B582B000AF786044
S31520001A10396000220B490C4800F044FE00220B4995
S31520001A200B4800F03FFE00220A490B4800F03AFE20
S31520001A300A4B1A460A49084800F034FE00BF083708
S31520001A40BD4680BD411B0020C0940020950B002080
S31520001A50F0990020452C0020AC95002038920020DB
S31520001A60EB2C002080B500AF02220B490B4801F079
S31520001A700DF800220A490B4801F008F801220A490C
S31520001A800A4801F003F8002209490A4801F064F8DF
S31520001A900023184680BD00BF111C0020C0940020E2
S31520001AA0772D0020AC950020550C0020F0990020C1
S31520001AB0091A0020B094002080B483B000AF0346FA
S31520001AC0FB71FB7903F01F03012202FA03F1064A98
S31520001AD097F907305B0942F8231000BF0C37BD4643
S31520001AE05DF8047B704700BF00E100E080B483B05E
S31520001AF000AF03463960FB7197F90730002B0BDAEC
S31520001B003B68DAB20C49FB7903F00F03043B120160
S31520001B10D2B20B441A7609E03B68DAB2074997F944
S31520001B2007301201D2B20B4483F8002300BF0C37D2
S31520001B30BD465DF8047B704700ED00E000E100E063
S31520001B4080B582B000AF7860396000220121074855
S31520001B5006F075F902211720FFF7C8FF1720FFF7B7
S31520001B60ABFF00BF0837BD4680BD00BF0004024062
S31520001B7080B582B000AF786039607B689B68802131
S31520001B80184606F0F0F8034618460837BD4680BDCD
S31520001B9080B582B000AF786039607B689B683A6810
S31520001BA0D2B20121184606F04AF900BF0837BD46D1
S31520001BB080BD80B582B000AF786039607B689B6855
S31520001BC00121184606F062F900BF0837BD4680BDE0
S31520001BD080B584B000AF7860396007F108031846F5
S31520001BE006F0E6FA8023BB6000233B733B68002B9C
S31520001BF001D0082300E00C237B730123BB7307F17C
S31520001C000803184606F062FA00BF1037BD4680BDAD
S31520001C1080B584B002AF78603960802006F01AFB68
S31520001C200346012B14D1802006F02EFB7B68DB684F
S31520001C30002B10D07B68DA687B681B690021009135
S31520001C400021002000F090FC054B01221A6002E0E2
S31520001C50044800F04DF8002318460837BD4680BDDD
S31520001C60689B00204C92002080B483B000AF0346CE
S31520001C70FB71FB7903F01F03012202FA03F1064AE6
S31520001C8097F907305B0942F8231000BF0C37BD4691
S31520001C905DF8047B704700BF00E100E080B483B0AC
S31520001CA000AF03463960FB7197F90730002B0BDA3A
S31520001CB03B68DAB20C49FB7903F00F03043B1201AF
S31520001CC0D2B20B441A7609E03B68DAB2074997F993
S31520001CD007301201D2B20B4483F8002300BF0C3721
S31520001CE0BD465DF8047B704700ED00E000E100E0B2
S31520001CF080B582B000AF78600EE07B681B780D2B34
S31520001D0007D07B685A1C7A601B78184600F060F969
S31520001D1002E07B6801337B607B681B78002BECD16B
S31520001D2000BF00BF0837BD4680BD80B586B000AF76
S31520001D30786000237B617B6803F00F027B69591C66
S31520001D40796110498A5C07F118010B4403F80C2CC1
S31520001D507B681B097B607B68002BECD10AE07B69E2
S31520001D60013B7B6107F10C027B6913441B78184603
S31520001D7000F02EF97B69002BF1D100BF00BF183788
S31520001D80BD4680BD689A002080B59EB000AF7860C1
S31520001D907B68002B02DA4FF0FF3300E001233B671C
S31520001DA07B683A6F02FB03F37B6000237B677968CD
S31520001DB01C4B83FB01239A10CB17D21A13469B0088
S31520001DC013445B00CA1A7B6F591C796716498A5CD3
S31520001DD007F178010B4403F86C2C7B68114A82FBCF
S31520001DE003129210DB17D31A7B607B68002BDED19F
S31520001DF03B6F002B0EDA2D2000F0EAF80AE07B6F0D
S31520001E00013B7B6707F10C027B6F13441B78184656
S31520001E1000F0DEF87B6F002BF1D100BF00BF7837D2
S31520001E20BD4680BD67666666689A002080B483B02A
S31520001E3000AF10237B607B6883F3118800BF00BF4F
S31520001E400C37BD465DF8047B704780B483B000AF85
S31520001E5030237B607B6883F3118800BF00BF0C377B
S31520001E60BD465DF8047B704780B584B000AF7860CE
S31520001E700B48FFF73DFF0B4B1B68002B02D1094B8C
S31520001E80094A1A60074B1B68FB60064B1A687B6879
S31520001E901344044A1360FB6818461037BD4680BDBC
S31520001EA070920020D09E0020E81E012080B485B0CC
S31520001EB000AF786039603B6803F5F95310337A68D0
S31520001EC013607B681B68BB600023FB600AE0FB682D
S31520001ED09B001A46BB6813441A4600231360FB680E
S31520001EE00133FB60FB68332BF1DDBB686FF0160214
S31520001EF01A60BB6804331A4603231360BB68843315
S31520001F001A464FF08073136000BF1437BD465DF844
S31520001F10047B704780B485B000AF786039607B68F9
S31520001F201B688033FB60FB683A681A6000BF143771
S31520001F30BD465DF8047B704780B584B000AF1D4870
S31520001F4003F05EFD3B1D184603F0A6FE40F2473324
S31520001F50BB803B1D1946174803F032FE164B174A25
S31520001F601A6002216FF00100FFF798FE144B154A04
S31520001F701A6000216FF00400FFF790FE124B134AFF
S31520001F801A6002213220FFF789FE3220FFF76CFE0D
S31520001F900021084803F0CAFE0121064803F093FFFA
S31520001FA001220221034804F062FF00BF1037BD461C
S31520001FB080BD00BF000C004038C0012081120020E7
S31520001FC02CC001207D12002008C1012057230020AB
S31520001FD080B582B000AF0346FB71FB799BB21946F0
S31520001FE0074801F058F900BF8021054801F042FB5F
S31520001FF00346002BF8D000BF00BF0837BD4680BD82
S315200020000010014080B500AF124803F0ABFE034636
S315200020101A46114B1A60114B01221A60104B0022EE
S315200020201A60104B1B68002B06D00E4B1B680E4AFD
S315200020301268002110469847084B00221A60084B68
S315200020401B68002B01D000F05DFA054B00221A60B8
S3152000205000BF80BD000C00406C9B0020649B0020CC
S31520002060689B0020E09B0020809B002080B500AF6D
S31520002070124803F077FE03461A46114B1A60114B9D
S3152000208001221A60104B00221A60104B5B68002B4D
S3152000209006D00E4B5B680E4A5268012110469847BF
S315200020A0084B00221A60084B1B68002B01D000F059
S315200020B029FA054B00221A6000BF80BD000C0040A3
S315200020C06C9B0020649B0020689B0020E09B0020E6
S315200020D0809B002080B500AF124803F043FE0346E4
S315200020E01A46114B1A60114B01221A60104B00221E
S315200020F01A60104B9B68002B06D00E4B9B680E4A2D
S315200021009268022110469847084B00221A60084B15
S315200021101B68002B01D000F0F5F9054B00221A6050
S3152000212000BF80BD000C00406C9B0020649B0020FB
S31520002130689B0020E09B0020809B002080B485B017
S3152000214000AF786039600023FB603B681B68BB608A
S3152000215004E0BB68FB60BB681B68BB60BB68002BE8
S3152000216005D0BB689A687B689B689A42F1DD7B68DC
S31520002170BA681A60FB68002B03D13B687A681A603C
S3152000218002E0FB687A681A6000BF1437BD465DF826
S31520002190047B704780B485B000AF78603960002337
S315200021A0FB603B681B68BB6004E0BB68FB60BB68E8
S315200021B01B68BB60BB68002B05D0BB685A687B6870
S315200021C05B689A42F1DD7B68BA681A60FB68002B6F
S315200021D003D13B687A681A6002E0FB687A681A6065
S315200021E000BF1437BD465DF8047B704780B584B0C8
S315200021F000AF78607B681B68FB60FB68002B04D00F
S31520002200FB681A687B681A600CE00948FFF770FDC6
S3152000221000220221074805F012FE0748FFF768FD55
S3152000222030BFFDE7FB6818461037BD4680BD00BFAE
S3152000223088920020000402409492002080B584B049
S3152000224000AF78607B681B68FB60FB68002B04D0BE
S31520002250FB681A687B681A600CE00948FFF748FD9E
S3152000226000220221074805F0EAFD0748FFF740FD56
S3152000227030BFFDE7FB6818461037BD4680BD00BF5E
S315200022808892002000040240A092002080B483B0EF
S3152000229000AF786039603B681A687B681A603B68D3
S315200022A07A681A6000BF0C37BD465DF8047B70471C
S315200022B080B483B000AF786039603B681A687B6869
S315200022C09A603B687A681A6000BF0C37BD465DF895
S315200022D0047B704780B485B000AF78607B681B684C
S315200022E0FB60FB689A687B681A60FB68184614379F
S315200022F0BD465DF8047B704780B485B000AF78603A
S3152000230039600023FB603B681B68BB6004E0BB6848
S31520002310FB60BB681B68BB60BB68002B03D0BA6838
S315200023207B689A42F3D1BB68002B0DD0FB68002B4B
S3152000233004D0BB681A68FB681A6003E0BB681A6899
S315200023403B681A60012300E0002318461437BD4677
S315200023505DF8047B704780B582B000AF02211E482D
S3152000236004F00FFE1C4803F0FDFC03467B6007E0EB
S315200023701A48FFF73BFF034619491846FFF7DEFECA
S31520002380164B1B68002B06D0144B1B685A687B68BB
S31520002390D31A002BECDD114B1B68002B16D00E48F0
S315200023A003F0E0FC03463B600C4B1B685B683A6815
S315200023B09A4204DD002202210A4805F040FD074B1F
S315200023C01B685B681946044804F00BF800F09AF87D
S315200023D000BF0837BD4680BD000C0040609B002032
S315200023E05C9B0020000402400346024A136010DF73
S315200023F0F74600BF8C9B00200346054A1360054B19
S315200024005B68044A43F080535360F74600BF00BF21
S315200024108C9B002000ED00E080B582B000AF786094
S31520002420094B5B68C3F30803002B03D17868FFF7D9
S31520002430DBFF02E07868FFF7DFFFFFF706FD00BF4E
S315200024400837BD4680BD00BF00ED00E090B585B0E1
S3152000245000AF234B1C682348FFF7C8FE0346E36002
S31520002460E368BB60FFF7F1FCBB68D868BB681969F5
S31520002470BB685B691A4600F015F9FFF7D7FC1A49C5
S31520002480B868FFF703FF194B1B689B68DB687B6006
S31520002490144B1B68002B0AD07B68002BD9D0114B1C
S315200024A01B689A687B689B68D31A002BD1DD0F487E
S315200024B0FFF710FF03460E491846FFF7F9FE0B4BB0
S315200024C01B68FB6003E0FB681B691B68FB60FB68FD
S315200024D01B69002BF7D1F868FFF79EFFB9E700BF0D
S315200024E0889A00205C9B00207C9A0020849A0020F9
S315200024F0809A002080B500AF00F004F8FFF7A5FC15
S3152000250030BFFBE780B582B000AF144B1B68DB6899
S315200025107B60134B1B68002B1BD0124B1B68002BB8
S3152000252017D07B68002B07D00D4B1B689A687B68F9
S315200025309B68D31A002B0CDA0A48FFF7CBFE03461A
S3152000254006491846FFF7B4FE044B1B681846FFF7EA
S3152000255063FF00BF0837BD4680BD00BF849A0020B8
S315200025605C9B0020809A002080B588B000AFF86080
S31520002570B9607A603B60EFF312833B613B691B09CC
S31520002580012B14BF01230023DBB2FB77FFF74EFCA0
S315200025903A48FFF753FEB861BB697A68DA60BB69CF
S315200025A03A681A61BB69BA6A5A61354B1B68002BB7
S315200025B004D1344B1B68DB685B6801E0324B1B6837
S315200025C0FA681A44BB695A60BB695A68BB68002B13
S315200025D001DDBB6801E06FF000431A44BB699A60D5
S315200025E02A4803F0BFFB03467B61BB695A687B69B7
S315200025F0D31A002B16DD2649B869FFF7CBFD244BED
S315200026001B685B687A699A4204DD00220221214810
S3152000261005F015FC1E4B1B685B6819461B4803F02A
S31520002620E0FE21E01C49B869FFF788FDFB7F002BFF
S315200026301AD01A4B1B68002B16D0174B1B689A68AA
S31520002640174B1B68DB689B68D31A002B0CDA1348E0
S31520002650FFF740FE034612491846FFF729FE104BA6
S315200026601B681846FFF7D8FEFB7F002B01D0FFF72B
S31520002670ECFBBB6918462037BD4680BD7C9A0020FE
S31520002680649B0020889A00206C9B0020000C004050
S31520002690609B0020000402405C9B0020809A002062
S315200026A0849A002080B588B000AFF860B9607A605F
S315200026B0EFF312833B613B691B09012B14BF0123F6
S315200026C00023DBB2FB76FFF7B1FBFB681B68FB61DF
S315200026D0FB69002B37D003E0FB691B691B68FB6194
S315200026E0FB691B69002BF7D1304B1B68FA699A42AC
S315200026F002D0FB7E002B07D1FB7E002B01D0FFF7FB
S31520002700A4FB4FF0FF334DE0FB685B68002B03D042
S31520002710FB685B6800221A61244B1A68FB685A60C2
S31520002720224B1B68FA681A61F869FFF775FE1F4B82
S315200027301B68DB68002B06D1FB7E002B01D0FFF740
S3152000274084FB00232EE0194B1A68FB681A60FB7E77
S31520002750002B05D0FB685B68012B01D0FFF775FBCA
S31520002760BB687968F86898477861FFF75FFBFB6874
S3152000277000221A60FB685B68FB61FB69002B0BD0AB
S31520002780FB69012B08D0FB6800225A60FB690022F6
S315200027901A61F869FFF740FEFB7E002B01D0FFF798
S315200027A054FB7B6918462037BD4680BD889A002099
S315200027B080B586B000AF7860EFF31283FB60FB68CC
S315200027C01B09012B14BF01230023DBB2FB74FFF787
S315200027D02DFB1F497868FFF78FFD0346002B06D196
S315200027E01C497868FFF788FD0346002B04D01A4958
S315200027F07868FFF74BFD21E0184B1B687B611AE0D8
S31520002800174B1B687A699A4212D07B69DB687A6813
S315200028109A420DD17B691A697B68DB689A4207D197
S315200028207B690022DA600C497868FFF72FFD05E006
S315200028307B699B687B617B69002BE1D1FB7C002B4C
S3152000284001D0FFF702FB00BF1837BD4680BD00BF91
S31520002850609B00205C9B00207C9A0020849A0020AC
S31520002860889A002080B485B000AF7860EFF3128399
S31520002870FB60FB681B09012B04D0074B1B68DB6838
S315200028805B6801E0054B1B687A68136000BF14374C
S31520002890BD465DF8047B7047889A00206C9B00201B
S315200028A080B485B000AF7860EFF31283FB60FB68DD
S315200028B01B09012B04D0084B1B68DB685B6801E011
S315200028C0064B1B687A6812689B1A18461437BD4651
S315200028D05DF8047B704700BF889A00206C9B00201F
S315200028E080B584B000AFEFF312837B607B681B0951
S315200028F0012B14BF01230023DBB2FB73FFF796FAEB
S315200029000C4803F02FFA0346BB60FB7B002B01D05B
S31520002910FFF79BFAFB7B002B04D0074B1B68DB6879
S315200029205B6801E0054B1B68BA68D31A1846103756
S31520002930BD4680BD000C0040889A00206C9B00207C
S3152000294080B582B000AF00237B6012E07B685A1C02
S3152000295013465B001344DB00444A991843487A68BF
S3152000296013465B001344DB00034419607B68013384
S315200029707B607B681C2BE9DD3C4B0022C3F8B82228
S3152000298000237B6013E07B685A1C13469B0013448C
S315200029909B00374A991836487A6813469B00134499
S315200029A09B000344083319607B6801337B607B6896
S315200029B0022BE8DD2E4B00225A6400237B6030E098
S315200029C02B497A6813469B0013449B000B4404331F
S315200029D07A681A607A6813469B0013449B00244A3F
S315200029E01A447B685B0323490B4419461046FFF7BC
S315200029F05DFA7A6813469B0013449B001C4A1344D5
S31520002A001D491846FFF786FA19497A6813469B002E
S31520002A1013449B000B44103300221A607B68013359
S31520002A207B607B68032BCBDD144B4FF0FF325A6063
S31520002A30124B00229A60114B00221A610F4B002282
S31520002A40DA600F48FFF754F90E48FFF751F90E48A0
S31520002A50FFF74EF90A48FFF74BF90948FFF748F9FF
S31520002A60FFF76AFA00BF0837BD4680BD009C0020EC
S31520002A70909B0020D89E00204D240020EC9B002017
S31520002A80AC920020B0920020BC92002080B586B087
S31520002A9000AFF860B9601346FB71FB79022B41D871
S31520002AA0EFF312833B613B691B09012B14BF012302
S31520002AB00023DBB2FB75FFF7B9F9FB79022B0ED0A9
S31520002AC0022B10DC002B02D0012B04D00BE0174B7D
S31520002AD0174A1A6014E0174B174A1A6010E0174B72
S31520002AE0174A1A600CE01748FFF702F90022022164
S31520002AF0154805F0A4F91548FFF7FAF830BFFDE7A9
S31520002B00FB791349FA6841F82320FB791149BA6801
S31520002B1041F82320FB6801225A60FB7D002B01D05F
S31520002B20FFF793F900BF1837BD4680BDD4C00120FA
S31520002B300520002090C001206D2000209CC001208F
S31520002B40D52000208892002000040240D492002044
S31520002B50809B0020E09B002080B586B002AFF86005
S31520002B60B9607A60FFF762F9FFF7EAFEBB68002BCF
S31520002B7016D00F4803F0F6F803461A460D4B1A6096
S31520002B800D4B01221A607B680093BB68FA6800210E
S31520002B900020FFF7E9FC084B00221A60FFF7B2FC81
S31520002BA0FFF7A8FC002318461037BD4680BD00BF9E
S31520002BB0000C00406C9B0020649B002080B483B0F6
S31520002BC000AF0346FB71FB7903F01F03012202FAD3
S31520002BD003F1064A97F907305B0942F8231000BF34
S31520002BE00C37BD465DF8047B704700BF00E100E06E
S31520002BF080B483B000AF03463960FB7197F9073084
S31520002C00002B0BDA3B68DAB20C49FB7903F00F0391
S31520002C10043B1201D2B20B441A7609E03B68DAB2C1
S31520002C20074997F907301201D2B20B4483F80023E3
S31520002C3000BF0C37BD465DF8047B704700ED00E011
S31520002C4000E100E080B582B000AF786039607B6833
S31520002C5000229A617B689A697B685A617B685A6907
S31520002C607B68DA61012240F225510A4800F0BAFC5D
S31520002C70002240F22771074800F0B4FC02212520EB
S31520002C80FFF7B6FF2520FFF799FF00BF0837BD469F
S31520002C9080BD00BF0010014080B483B000AF7860D3
S31520002CA00B46FB707B68DB69B3F5806F17DA7B68B0
S31520002CB05B697A681344FA7883F820207B685B691D
S31520002CC001335A42C3F30903C2F3090258BF5342E0
S31520002CD07A6853617B68DB695A1C7B68DA6100BFBE
S31520002CE00C37BD465DF8047B704780B582B000AFD7
S31520002CF0786039607B68DB69002B18D17B689B681C
S31520002D00012240F22771184600F06CFC0FE03B6868
S31520002D101B780A2B03D10D217868FFF7BDFF3B688E
S31520002D205A1C3A601B7819467868FFF7B5FF3B684E
S31520002D301B78002BEBD100BF00BF0837BD4680BDF6
S31520002D4080B582B000AF786039607B68DB69002B84
S31520002D5007D17B689B68012240F22771184600F054
S31520002D6041FC3B68DBB219467868FFF795FF00BF48
S31520002D700837BD4680BD80B586B002AF7860396021
S31520002D807B689B682021184600F074FC0346012BC3
S31520002D9018D17B689B68184600F08FFA0346FB60C3
S31520002DA07B68DB68002B0DD07B68DA687B68196945
S31520002DB0FB6800930B4600210020FFF7D5FB234B31
S31520002DC001221A607B689B688021184600F052FC1D
S31520002DD00346012B35D17B68DB69002B29DD7B6817
S31520002DE098687B689B697A68134493F820309BB275
S31520002DF0194600F050FA7B689B6901335A42C3F3A7
S31520002E000903C2F3090258BF53427A6893617B686B
S31520002E10DB695A1E7B68DA617B68DB69002B10D17F
S31520002E207B689B68002240F22771184600F0DAFB87
S31520002E3007E07B689B68002240F22771184600F065
S31520002E40D1FB002318461037BD4680BD689B002065
S31520002E5080B582B000AF78607B683B4A934208D148
S31520002E600121102001F096FB0021102001F092FB99
S31520002E7065E07B68354A93420AD101214FF4003040
S31520002E8001F068FB00214FF4003001F063FB56E0AF
S31520002E907B682F4A93420AD101214FF4802001F00A
S31520002EA059FB00214FF4802001F054FB47E07B685A
S31520002EB0284A93420AD101214FF4002001F04AFB0F
S31520002EC000214FF4002001F045FB38E07B68224AC0
S31520002ED093420AD101214FF4801001F03BFB0021DF
S31520002EE04FF4801001F036FB29E07B681B4A9342A1
S31520002EF008D10121202001F04DFB0021202001F0E6
S31520002F0049FB1CE07B68164A93420AD101214FF007
S31520002F10804001F01FFB00214FF0804001F01AFB9A
S31520002F200DE07B680F4A934209D101214FF0004002
S31520002F3001F010FB00214FF0004001F00BFB00BF19
S31520002F400837BD4680BD00BF001001400044004048
S31520002F5000480040004C0040005000400014014052
S31520002F6000780040007C004080B58AB000AF7860D1
S31520002F70396000237B6200233B620023FB61002330
S31520002F80BB617B681B8A9BB27B627B6A23F44053BE
S31520002F907B623B68DB881A467B6A13437B627B6ACB
S31520002FA09AB27B681A827B689B899BB27B627B6A1A
S31520002FB023F4B05323F00C037B623B689A883B686A
S31520002FC01B8913439AB23B685B8913439BB21A460B
S31520002FD07B6A13437B627B6A9AB27B689A817B68A1
S31520002FE09B8A9BB27B627B6A23F440737B623B683D
S31520002FF09B891A467B6A13437B627B6A9AB27B68FB
S315200030009A8207F10803184600F0EEFF7B68304AE3
S31520003010934203D07B682F4A934202D17B693B625D
S3152000302001E03B693B627B689B899BB21BB2002B0C
S315200030300CDA3A6A13469B0013449A001A443B68FA
S315200030401B685B00B2FBF3F3FB610BE03A6A1346A5
S315200030509B0013449A001A443B681B689B00B2FBF2
S31520003060F3F3FB61FB691C4AA2FB03235B091B01EB
S315200030707B627B6A1B09642202FB03F3FA69D31A7B
S31520003080BB617B689B899BB21BB2002B0CDABB69A8
S31520003090DB003233104AA2FB03235B0903F007034C
S315200030A07A6A13437B620BE0BB691B0132330A4AFF
S315200030B0A2FB03235B0903F00F037A6A13437B62A7
S315200030C07B6A9AB27B681A8100BF2837BD4680BDCD
S315200030D000100140001401401F85EB5180B483B0DD
S315200030E000AF78607B684FF416521A607B68002226
S315200030F09A807B680022DA807B6800221A817B68AE
S315200031000C225A817B6800229A8100BF0C37BD466B
S315200031105DF8047B704780B485B000AF7860396075
S315200031200023FB607B681B8A9BB2FB60FB6823F451
S315200031307063FB603B681A883B685B8813439AB2CE
S315200031403B689B8813439AB23B68DB8813439BB248
S315200031501A46FB681343FB60FB689AB27B681A82A7
S3152000316000BF1437BD465DF8047B704780B483B03A
S3152000317000AF78607B6800221A807B6800225A8024
S315200031807B6800229A807B680022DA8000BF0C3799
S31520003190BD465DF8047B704780B483B000AF78608D
S315200031A00B46FB70FB78002B08D07B689B899BB273
S315200031B043F400539AB27B689A8107E07B689B8927
S315200031C09BB223F400539AB27B689A8100BF0C37D6
S315200031D0BD465DF8047B704780B483B000AF78604D
S315200031E00B46FB707B681B8B9BB223F0FF039AB2C6
S315200031F07B681A837B681B8B9AB2FB789BB213433E
S315200032009AB27B681A8300BF0C37BD465DF8047BF3
S31520003210704780B483B000AF78600B46FB70FB78B4
S31520003220002B0AD07B689B899BB26FEA43436FEAE7
S3152000323053439AB27B689A8107E07B689B899BB24D
S31520003240C3F30E039AB27B689A8100BF0C37BD4642
S315200032505DF8047B704780B483B000AF78600B467E
S31520003260FB70FB78002B08D07B689B8A9BB243F4CB
S3152000327000639AB27B689A8207E07B689B8A9BB23E
S3152000328023F400639AB27B689A8200BF0C37BD464E
S315200032905DF8047B704780B483B000AF78600B463E
S315200032A07B807B88C3F308039AB27B689A8000BF31
S315200032B00C37BD465DF8047B704780B483B000AF01
S315200032C078607B689B889BB2C3F308039BB2184641
S315200032D00C37BD465DF8047B704780B483B000AFE1
S315200032E078600B46FB707B681B8A9BB223F00F032A
S315200032F09AB27B681A827B681B8A9AB2FB789BB249
S3152000330013439AB27B681A8200BF0C37BD465DF81C
S31520003310047B704780B483B000AF78600B46FB70A7
S31520003320FB78002B08D07B689B899BB243F0020375
S315200033309AB27B689A8107E07B689B899BB223F0CF
S3152000334002039AB27B689A8100BF0C37BD465DF8AE
S31520003350047B704780B483B000AF78600B467B80D7
S315200033607B689B899BB223F400639AB27B689A811F
S315200033707B689B899AB27B8813439AB27B689A8131
S3152000338000BF0C37BD465DF8047B704780B483B020
S3152000339000AF78600B467B807B681B8A9BB223F04C
S315200033A020039AB27B681A827B681B8A9AB27B8832
S315200033B013439AB27B681A8200BF0C37BD465DF86C
S315200033C0047B704780B483B000AF78600B46FB70F7
S315200033D0FB78002B08D07B681B8A9BB243F4804382
S315200033E09AB27B681A8207E07B681B8A9BB223F419
S315200033F080439AB27B681A8200BF0C37BD465DF8BF
S31520003400047B704780B483B000AF78607B689B896B
S315200034109BB243F001039AB27B689A8100BF0C37B6
S31520003420BD465DF8047B704780B483B000AF7860FA
S315200034300B46FB70FB78002B08D07B689B8A9BB2DF
S3152000344043F008039AB27B689A8207E07B689B8ADE
S315200034509BB223F008039AB27B689A8200BF0C378E
S31520003460BD465DF8047B704780B483B000AF7860BA
S315200034700B46FB707B681B8B9BB2DBB29AB27B68D8
S315200034801A837B681B8B9AB2FB789BB21B029BB27A
S3152000349013439AB27B681A8300BF0C37BD465DF88A
S315200034A0047B704780B483B000AF78600B46FB7016
S315200034B0FB78002B08D07B689B8A9BB243F02003C5
S315200034C09AB27B689A8207E07B689B8A9BB223F03C
S315200034D020039AB27B689A8200BF0C37BD465DF8FE
S315200034E0047B704780B483B000AF78600B46FB70D6
S315200034F0FB78002B08D07B689B8A9BB243F0100395
S315200035009AB27B689A8207E07B689B8A9BB223F0FB
S3152000351010039AB27B689A8200BF0C37BD465DF8CD
S31520003520047B704780B483B000AF78600B467B8005
S315200035307B689B8A9BB223F004039AB27B689A82AB
S315200035407B689B8A9AB27B8813439AB27B689A825D
S3152000355000BF0C37BD465DF8047B704780B483B04E
S3152000356000AF78600B46FB70FB78002B08D07B6899
S315200035709B8A9BB243F002039AB27B689A8207E049
S315200035807B689B8A9BB223F002039AB27B689A825D
S3152000359000BF0C37BD465DF8047B704780B483B00E
S315200035A000AF78600B467B8013467B707B78002BC0
S315200035B008D07B689B8A9AB27B8813439AB27B6831
S315200035C09A8209E07B689B8A9AB27B88DB439BB20E
S315200035D013409AB27B689A8200BF0C37BD465DF8CD
S315200035E0047B704780B487B000AF78600B467B8041
S315200035F013467B7000233B610023FB600023BB60E6
S3152000360000237B617B687B617B88DBB25B09DBB255
S315200036103B617B8803F01F03FB600122FB6802FAF3
S3152000362003F3BB603B69012B03D17B690C337B61C0
S3152000363009E03B69022B03D17B6910337B6102E0F1
S315200036407B6914337B617B78002B06D07B691968F4
S315200036507B69BA680A431A6006E07B691968BB6809
S31520003660DA437B690A401A6000BF1C37BD465DF805
S31520003670047B704780B485B000AF78600B467B80B2
S315200036800023FB737B681B889AB27B8813409BB20E
S31520003690002B02D00123FB7301E00023FB73FB7B8D
S315200036A018461437BD465DF8047B704780B483B056
S315200036B000AF78600B467B807B88DB439AB27B68C1
S315200036C01A8000BF0C37BD465DF8047B704780B476
S315200036D087B000AF78600B467B800023FB60002319
S315200036E07B610023BB600023FB747B88DBB25B0914
S315200036F0DBB2BB607B8803F01F037B6101227B6901
S3152000370002FA03F37B61BB68012B07D17B689B8997
S315200037109BB21A467B6913407B6111E0BB68022B82
S3152000372007D17B681B8A9BB21A467B6913407B6153
S3152000373006E07B689B8A9BB21A467B6913407B61B5
S315200037407B881B0A9BB2FB600122FB6802FA03F30B
S31520003750FB607B681B889BB21A46FB681340FB60A4
S315200037607B69002B05D0FB68002B02D00123FB745C
S3152000377001E00023FB74FB7C18461C37BD465DF830
S31520003780047B704780B485B000AF78600B467B80A1
S315200037900023FB810023BB817B881B0AFB81FB89DD
S315200037A0012202FA03F3BB81BB89DB439AB27B6811
S315200037B01A8000BF1437BD465DF8047B704700BFF2
S315200037C080B483B000AF786039607B685B6983F032
S315200037D001027B685A617B685B6918460C37BD46D7
S315200037E05DF8047B704780B483B000AF78603960A1
S315200037F07B681B69DA437B681A6100BF0C37BD46BC
S315200038005DF8047B704780B483B000AF7860396080
S315200038107B68DA683B681344142B05DC7B68DA681E
S315200038203B681344002B02DA7B68DB6807E07B6881
S31520003830DA683B681A447B68DA607B68DB6818467E
S315200038400C37BD465DF8047B704780B586B002AF65
S31520003850786039607B689B69002B03D01B4B002264
S315200038601A7030E07B68DB685AB23B685BB2134063
S315200038705AB27B681B695BB213405AB2134BD2B261
S315200038801A707B689B68124A82FB03129210DB1720
S31520003890D31AFB607B685B69002B0BD0FB6803F1B6
S315200038A00A013B68DB4300930A4B7A68F868FEF707
S315200038B05BFE08E03B68DB430093064B7A680021F9
S315200038C0F868FEF751FE1037BD4680BD1C740040D7
S315200038D0676666664B38002080B58EB000AF78608C
S315200038E039603B68FB6200237B630023BB62FEF7E3
S315200038F0F7FF786200233B632FE0FEF7F1FF386283
S315200039007B68DB6803F001027B681B691340BB619F
S315200039107B689B682B4A82FB03129210DB17D31A13
S315200039207B617B685B69002B06D07B690A333B6130
S315200039306FF00103FB6001E00023BB60FEF7D0FFC0
S3152000394002463B6AD31AFB617A6BFB699342B8BF86
S3152000395013467B633B6B01333B633B6BB3F5FA7FCB
S31520003960CBDBFEF7BDFF02467B6AD31ABB627B6BBD
S31520003970154A82FB03125113DA178A1A134901FBDF
S3152000398002F29A1A13469B0013445B001A46FB6AFE
S315200039901A60BA6A0C4B83FB02135913D317CB1A3E
S315200039A00A4901FB03F3D31AFA6A0432084981FB58
S315200039B003010911DB17CB1A136000BF3837BD4648
S315200039C080BD00BF6766666689B5F814A0860100CB
S315200039D01F85EB5180B483B000AF786039607B6877
S315200039E03A689A6100BF0C37BD465DF8047B704784
S315200039F080B483B000AF786039607B683A689A609B
S31520003A0000BF0C37BD465DF8047B704780B483B099
S31520003A1000AF786039607B68DB6883F001027B68E1
S31520003A20DA607B68DB6818460C37BD465DF8047B98
S31520003A30704780B483B000AF786039607B689A683D
S31520003A403B68134445F6C052934206DC7B689A686D
S31520003A503B681344B3F57A7F02DA7B689B6807E0FC
S31520003A607B689A683B681A447B689A607B689B6887
S31520003A7018460C37BD465DF8047B704780B584B088
S31520003A8002AF7860396000BF3B685A1E3A60002B4F
S31520003A90FAD17B68DB68002B09D07B689B68009392
S31520003AA0094B7A6882218220FEF75EFD08E07B685A
S31520003AB09B680093044B7A6800218220FEF754FD10
S31520003AC000BF0837BD4680BD7D3A002080B58CB04A
S31520003AD000AF786039603B683B620023FB620023BD
S31520003AE0FB61FEF7FDFEB8610023BB621CE03B6A6A
S31520003AF01B687B62FEF7F4FE786100BF7B6A5A1E64
S31520003B007A62002BFAD18223FB60FEF7E9FE024699
S31520003B107B69D31A3B61FA6A3B699342B8BF134665
S31520003B20FB62BB6A0133BB62BB6AB3F5FA7FDEDB9D
S31520003B30FEF7D6FE0246BB69D31AFB61FB6A144A1E
S31520003B4082FB03125113DA178A1A124901FB02F279
S31520003B509A1A13469B0013445B001A463B6A1A6066
S31520003B60FA690B4B83FB02135913D317CB1A094956
S31520003B7001FB03F3D31A3A6A0432074981FB030196
S31520003B800911DB17CB1A136000BF3037BD4680BD45
S31520003B9089B5F814A08601001F85EB5180B400AFCB
S31520003BA0164B1B68154A43F001031360134B002282
S31520003BB09A60124B1B68114A23F0A85323F4102352
S31520003BC013600E4B0E4A5A600C4B0E4AC3F88420E3
S31520003BD00A4B0D4AC3F88820084B1B68074A23F472
S31520003BE080231360054B0022DA60044B0022C3F8C1
S31520003BF08C2000BFBD465DF8047B7047003802402C
S31520003C0010300024003000200030002480B483B01F
S31520003C1000AF0346FB71064B00221A70044AFB795B
S31520003C20137000BF0C37BD465DF8047B704700BF9C
S31520003C300238024080B582B000AF00233B600023EB
S31520003C40FB710023BB71312000F08AFD0346BB7156
S31520003C503B6801333B603B68B3F5A04F02D0BB798C
S31520003C60002BF0D0312000F07BFD0346002B02D044
S31520003C700123FB7101E00023FB71FB79184608370D
S31520003C80BD4680BD80B485B000AF0346FB710023DE
S31520003C90FB600A4B1B68FB60FB6823F0F803FB60A4
S31520003CA0FB79DB00FA681343FB60044AFB68136068
S31520003CB000BF1437BD465DF8047B704700380240CC
S31520003CC080B483B000AF0346FB71044AFB791360CE
S31520003CD000BF0C37BD465DF8047B704700004742A5
S31520003CE080B483B000AF0346FB710D4B00221A70DF
S31520003CF00B4B00221A70FB79012B02D0042B04D027
S31520003D0007E0074B01221A7003E0054B05221A70C3
S31520003D1000BF00BF0C37BD465DF8047B704700BF6F
S31520003D207038024080B483B000AF0346FB71044A6A
S31520003D30FB79136000BF0C37BD465DF8047B7047E6
S31520003D40800E474280B485B000AFF860B9607A60D3
S31520003D503B607B689A01BB681A433B685B08013B62
S31520003D601B041A43FB681A43BB691B060449134309
S31520003D704B6000BF1437BD465DF8047B704700BF1B
S31520003D800038024080B483B000AF0346FB71044A7A
S31520003D90FB79136000BF0C37BD465DF8047B704786
S31520003DA06000474280B483B000AF786039607B689A
S31520003DB09A013B681B0705491343C1F8843000BFAD
S31520003DC00C37BD465DF8047B704700BF00380240C3
S31520003DD080B483B000AF0346FB71044AFB791360BD
S31520003DE000BF0C37BD465DF8047B7047680047422C
S31520003DF080B485B000AFF860B9607A60FB689A013C
S31520003E00BB681B061A437B681B0705491343C1F889
S31520003E10883000BF1437BD465DF8047B704700BF6D
S31520003E200038024080B483B000AF0346FB71044AD9
S31520003E30FB79136000BF0C37BD465DF8047B7047E5
S31520003E407000474280B483B000AF0346FB71044A3A
S31520003E50FB79136000BF0C37BD465DF8047B7047C5
S31520003E604C00474280B485B000AF786039600023AB
S31520003E70FB600B4B9B68FB60FB6823F0EC63FB60ED
S31520003E807A683B681343FA681343FB60044AFB686D
S31520003E90936000BF1437BD465DF8047B704700BFB2
S31520003EA00038024080B485B000AF786039600023C6
S31520003EB0FB600B4B9B68FB60FB6823F07843FB6041
S31520003EC07A683B681343FA681343FB60044AFB682D
S31520003ED0936000BF1437BD465DF8047B704700BF72
S31520003EE00038024080B485B000AF78600023FB60C4
S31520003EF0094B9B68FB60FB6823F00303FB60FA68B1
S31520003F007B681343FB60044AFB68936000BF143749
S31520003F10BD465DF8047B70470038024080B400AF90
S31520003F20054B9B68DBB203F00C03DBB21846BD469B
S31520003F305DF8047B704700BF0038024080B485B02E
S31520003F4000AF78600023FB60094B9B68FB60FB6831
S31520003F5023F0F003FB60FA687B681343FB60044A96
S31520003F60FB68936000BF1437BD465DF8047B70473D
S31520003F700038024080B485B000AF78600023FB6033
S31520003F80094B9B68FB60FB6823F4E053FB60FA68EF
S31520003F907B681343FB60044AFB68936000BF1437B9
S31520003FA0BD465DF8047B70470038024080B485B07A
S31520003FB000AF78600023FB600A4B9B68FB60FB68C0
S31520003FC023F46043FB607B68DB00FA681343FB60E5
S31520003FD0044AFB68936000BF1437BD465DF8047B36
S31520003FE0704700BF0038024080B489B000AF7860C7
S31520003FF00023BB6100237B610023FB6102233B611D
S315200040000023FB600223BB604A4B9B6803F00C0332
S31520004010BB61BB69082B11D0BB69082B44D8BB698F
S31520004020002B03D0BB69042B04D03DE07B68424AB9
S315200040301A603DE07B68414A1A6039E03D4B5B6877
S315200040409B0D03F00103FB603A4B5B6803F03F03D3
S31520004050BB60FB68002B0CD0384ABB68B2FBF3F37D
S31520004060344A52689209C2F3080202FB03F3FB6149
S315200040700BE0314ABB68B2FBF3F32E4A5268920931
S31520004080C2F3080202FB03F3FB612A4B5B681B0C9D
S3152000409003F0030301335B003B61FA693B69B2FB22
S315200040A0F3F27B681A6003E07B68234A1A6000BF3C
S315200040B0204B9B6803F0F003BB61BB691B09BB6106
S315200040C01F4ABB6913441B78DBB27B617B681A6885
S315200040D07B69DA407B685A60164B9B6803F4E05391
S315200040E0BB61BB699B0ABB61154ABB6913441B783C
S315200040F0DBB27B617B685A687B69DA407B689A60B1
S315200041000C4B9B6803F46043BB61BB695B0BBB61D3
S315200041100B4ABB6913441B78DBB27B617B685A6808
S315200041207B69DA407B68DA6000BF2437BD465DF8DC
S31520004130047B7047003802400024F40000127A0005
S315200041408C9A002080B485B000AF78600023FB6095
S315200041507B6803F44073B3F5407F11D10F4B9B6806
S31520004160FB60FB6823F4F813FB607B6823F0704345
S3152000417023F44073FA681343FB60084AFB68936094
S31520004180064B1A6F7B68C3F30B03044913430B6773
S3152000419000BF1437BD465DF8047B704700380240E7
S315200041A080B483B000AF0346FB71044AFB791360E9
S315200041B000BF0C37BD465DF8047B70473C0E474276
S315200041C080B483B000AF0346FB71044AFB791360C9
S315200041D000BF0C37BD465DF8047B7047400E474252
S315200041E080B483B000AF7860044A7B68136000BF58
S315200041F00C37BD465DF8047B704700BF5C01474223
S3152000420080B485B000AF78600023FB600B4BD3F8F9
S315200042108C30FB60FB6823F01F03FB607B68013B4F
S31520004220FA681343FB60054AFB68C2F88C3000BF6E
S315200042301437BD465DF8047B704700BF0038024046
S3152000424080B485B000AF78600023FB600B4BD3F8B9
S315200042508C30FB60FB6823F4F853FB607B68013BE2
S315200042601B02FA681343FB60044AFB68C2F88C30D1
S3152000427000BF1437BD465DF8047B70470038024006
S3152000428080B485B000AF78600023FB600A4BD3F87A
S315200042908C30FB60FB6823F44013FB60FA687B6874
S315200042A01343FB60044AFB68C2F88C3000BF143706
S315200042B0BD465DF8047B70470038024080B485B067
S315200042C000AF78600023FB600A4BD3F88C30FB608C
S315200042D0FB6823F44003FB60FA687B681343FB60AA
S315200042E0044AFB68C2F88C3000BF1437BD465DF81F
S315200042F0047B70470038024080B485B000AF7860F8
S315200043000023FB600A4BD3F88C30FB60FB6823F458
S315200043104033FB60FA687B681343FB60044AFB6802
S31520004320C2F88C3000BF1437BD465DF8047B704759
S315200043300038024080B483B000AF7860044A7B68BE
S31520004340136000BF0C37BD465DF8047B704700BF85
S31520004350E011474280B483B000AF78600B46FB7013
S31520004360FB78002B06D00A4B1A6B09497B6813434E
S315200043700B6306E0064B1A6B7B68DB43044913404C
S315200043800B6300BF0C37BD465DF8047B704700BF4A
S315200043900038024080B483B000AF78600B46FB70D3
S315200043A0FB78002B06D00A4B5A6B09497B681343CE
S315200043B04B6306E0064B5A6B7B68DB43044913408C
S315200043C04B6300BF0C37BD465DF8047B704700BFCA
S315200043D00038024080B483B000AF78600B46FB7093
S315200043E0FB78002B06D00A4B9A6B09497B6813434E
S315200043F08B6306E0064B9A6B7B68DB4304491340CC
S315200044008B6300BF0C37BD465DF8047B704700BF49
S315200044100038024080B483B000AF78600B46FB7052
S31520004420FB78002B06D00A4B1A6C09497B6813438C
S315200044300B6406E0064B1A6C7B68DB430449134089
S315200044400B6400BF0C37BD465DF8047B704700BF88
S315200044500038024080B483B000AF78600B46FB7012
S31520004460FB78002B06D00A4B5A6C09497B6813430C
S315200044704B6406E0064B5A6C7B68DB4304491340C9
S315200044804B6400BF0C37BD465DF8047B704700BF08
S315200044900038024080B483B000AF78600B46FB70D2
S315200044A0FB78002B06D00A4B1A6909497B6813430F
S315200044B00B6106E0064B1A697B68DB43044913400F
S315200044C00B6100BF0C37BD465DF8047B704700BF0B
S315200044D00038024080B483B000AF78600B46FB7092
S315200044E0FB78002B06D00A4B5A6909497B6813438F
S315200044F04B6106E0064B5A697B68DB43044913404F
S315200045004B6100BF0C37BD465DF8047B704700BF8A
S315200045100038024080B483B000AF78600B46FB7051
S31520004520FB78002B06D00A4B9A6909497B6813430E
S315200045308B6106E0064B9A697B68DB43044913408E
S315200045408B6100BF0C37BD465DF8047B704700BF0A
S315200045500038024080B483B000AF78600B46FB7011
S31520004560FB78002B06D00A4B1A6A09497B6813434D
S315200045700B6206E0064B1A6A7B68DB43044913404C
S315200045800B6200BF0C37BD465DF8047B704700BF49
S315200045900038024080B483B000AF78600B46FB70D1
S315200045A0FB78002B06D00A4B5A6A09497B681343CD
S315200045B04B6206E0064B5A6A7B68DB43044913408C
S315200045C04B6200BF0C37BD465DF8047B704700BFC9
S315200045D00038024080B483B000AF78600B46FB7091
S315200045E0FB78002B06D00A4B1A6D09497B681343CA
S315200045F00B6506E0064B1A6D7B68DB4304491340C6
S315200046000B6500BF0C37BD465DF8047B704700BFC5
S315200046100038024080B483B000AF78600B46FB7050
S31520004620FB78002B06D00A4B5A6D09497B68134349
S315200046304B6506E0064B5A6D7B68DB430449134005
S315200046404B6500BF0C37BD465DF8047B704700BF45
S315200046500038024080B483B000AF78600B46FB7010
S31520004660FB78002B06D00A4B9A6D09497B681343C9
S315200046708B6506E0064B9A6D7B68DB430449134045
S315200046808B6500BF0C37BD465DF8047B704700BFC5
S315200046900038024080B483B000AF78600B46FB70D0
S315200046A0FB78002B06D00A4B1A6E09497B68134308
S315200046B00B6606E0064B1A6E7B68DB430449134003
S315200046C00B6600BF0C37BD465DF8047B704700BF04
S315200046D00038024080B483B000AF78600B46FB7090
S315200046E0FB78002B06D00A4B5A6E09497B68134388
S315200046F04B6606E0064B5A6E7B68DB430449134043
S315200047004B6600BF0C37BD465DF8047B704700BF83
S315200047100038024080B483B000AF03460A46FB71DE
S315200047201346BB71BB79002B08D00C4B1B78DAB231
S315200047300A49FB791343DBB20B7009E0074B1B7860
S31520004740DAB2FB79DB43DBB204491340DBB20B70F0
S3152000475000BF0C37BD465DF8047B70470D3802401C
S3152000476080B487B000AF0346FB710023FB600023B3
S315200047707B610023FB74FB795B09DBB2FB60FB6882
S31520004780012B03D1124B1B687B6109E0FB68022BCE
S3152000479003D10F4B1B6F7B6102E00D4B5B6F7B617F
S315200047A0FB7903F01F03FB607A69FB6822FA03F3A7
S315200047B003F00103002B02D00123FB7401E0002348
S315200047C0FB74FB7C18461C37BD465DF8047B70479E
S315200047D00038024080B400AF054B5B6F044A43F0BB
S315200047E08073536700BFBD465DF8047B704700BFEA
S315200047F00038024080B485B000AF0346FB71002329
S31520004800FB73094BDA68FB791340002B02D0012396
S31520004810FB7301E00023FB73FB7B18461437BD4670
S315200048205DF8047B704700BF0038024080B483B037
S3152000483000AF0346FB71044AFB79137000BF0C37A7
S31520004840BD465DF8047B70470E38024080B582B0C5
S3152000485000AF78607B680E4A93420AD101214FF05F
S315200048600070FFF777FE00214FF00070FFF772FE11
S3152000487009E001214FF08060FFF76CFE00214FF028
S315200048808060FFF767FE00BF0837BD4680BD00BFCA
S315200048900064004080B485B000AF786039600023A2
S315200048A0FB730023BB607B681B6823F002027B68D6
S315200048B01A607B681B6843F001027B681A6002E07D
S315200048C0BB680133BB607B685B6803F00103012B87
S315200048D004D0BB684FF6FF729342F1D17B685B68C8
S315200048E003F00103012B02D00023FB739CE03B68FD
S315200048F09B79012B06D17B681B6843F080027B687D
S315200049001A6005E07B681B6823F080027B681A60CA
S315200049103B68DB79012B06D17B681B6843F040029C
S315200049207B681A6005E07B681B6823F040027B6881
S315200049301A603B681B7A012B06D17B681B6843F003
S3152000494020027B681A6005E07B681B6823F0200242
S315200049507B681A603B685B7A012B06D17B681B68F3
S3152000496043F010027B681A6005E07B681B6823F021
S3152000497010027B681A603B689B7A012B06D17B6804
S315200049801B6843F008027B681A6005E07B681B6899
S3152000499023F008027B681A603B68DB7A012B06D17C
S315200049A07B681B6843F004027B681A6005E07B681D
S315200049B01B6823F004027B681A603B689B789A0781
S315200049C03B68DB781B061A433B681B791B041A439A
S315200049D03B685B791B051A433B681B88013B1A43DE
S315200049E07B68DA617B681B6823F001027B681A60AA
S315200049F00023BB6002E0BB680133BB607B685B6859
S31520004A0003F00103012B04D1BB684FF6FF729342DA
S31520004A10F1D17B685B6803F00103012B02D10023EF
S31520004A20FB7301E00123FB73FB7B18461437BD465D
S31520004A305DF8047B704790B484B000AF78600023A3
S31520004A40FB607B689B7A1A4601239340FB605A4B96
S31520004A50D3F80032584A43F00103C2F80032564BCD
S31520004A60D3F81C22FB68DB4353491340C1F81C32A0
S31520004A707B681B7B002B29D14F4BD3F80C22FB687C
S31520004A80DB434D491340C1F80C327B68DB881B049D
S31520004A907A685288144648497A68927A104643EAD8
S31520004AA0040200F1480341F833207B689B881B04ED
S31520004AB07A681288144640497A68927A104643EA00
S31520004AC0040200F14803DB000B445A607B681B7B21
S31520004AD0012B28D1384BD3F80C223749FB681343D6
S31520004AE0C1F80C327B681B881B047A6852881446EE
S31520004AF031497A68927A104643EA040200F1480363
S31520004B0041F833207B689B881B047A68D288144638
S31520004B1029497A68927A104643EA040200F148034A
S31520004B20DB000B445A607B68DB7A002B09D1224BD1
S31520004B30D3F80422FB68DB431F491340C1F8043233
S31520004B4007E01D4BD3F804221B49FB681343C1F829
S31520004B5004327B681B89002B08D1174BD3F814220B
S31520004B60FB68DB4314491340C1F814327B681B8968
S31520004B70012B07D1104BD3F814220F49FB6813439E
S31520004B80C1F814327B685B7B012B07D10A4BD3F823
S31520004B901C220949FB681343C1F81C32064BD3F883
S31520004BA00032054A23F00103C2F8003200BF103755
S31520004BB0BD4690BC704700BF0064004080B483B0FF
S31520004BC000AF78607B6800229A717B680022DA71D8
S31520004BD07B6800221A727B6800225A727B68002248
S31520004BE09A727B680022DA727B6800229A707B6850
S31520004BF00022DA707B6803221A717B6802225A71BE
S31520004C007B6801221A8000BF0C37BD465DF8047B05
S31520004C10704780B483B000AF0346FB71144BD3F8C2
S31520004C200032134A43F00103C2F80032104BD3F886
S31520004C3000320F4A23F47C5323F00E03C2F80032CD
S31520004C400B4BD3F80022FB791B0209491343C1F809
S31520004C500032074BD3F80032054A23F00103C2F88D
S31520004C60003200BF0C37BD465DF8047B704700BF9D
S31520004C700064004080B483B000AF78600B46FB70C0
S31520004C80FB78002B06D07B681B6843F480327B6858
S31520004C901A6005E07B681B6823F480327B681A6003
S31520004CA000BF0C37BD465DF8047B704780B483B0E7
S31520004CB000AF78600B46FB70FB78002B1ED07B681C
S31520004CC01B6843F080027B681A607B68D3F88431C6
S31520004CD043F480727B68C3F884217B68D3F89431CF
S31520004CE043F480727B68C3F894217B68D3F8A4319F
S31520004CF043F480727B68C3F8A4211DE07B681B689F
S31520004D0023F080027B681A607B68D3F8843123F411
S31520004D1080727B68C3F884217B68D3F8943123F4AE
S31520004D2080727B68C3F894217B68D3F8A43123F47E
S31520004D3080727B68C3F8A42100BF0C37BD465DF89E
S31520004D40047B704780B485B000AF7860396000235B
S31520004D50FB737B689B6803F08063B3F1806F02D19D
S31520004D600023FB7315E07B689B6803F00063B3F1B7
S31520004D70006F02D10123FB730BE07B689B6803F075
S31520004D808053B3F1805F02D10223FB7301E0042339
S31520004D90FB73FB7B042B00F09F80FB7B7A68183328
S31520004DA01B0113441A68FB7B02F001027968183351
S31520004DB01B010B441A603B681B7A002B13D1FB7B2B
S31520004DC07A6818331B01134419683B681B685B0516
S31520004DD03A68527A1A43FB7B0A43796818331B01D7
S31520004DE00B441A6015E0FB7B7A6818331B011344C9
S31520004DF019683B685B68DB003A68127A13433A68A5
S31520004E00527A1A43FB7B0A43796818331B010B44F9
S31520004E101A603B689B7A03F00F03DAB23B689A72FA
S31520004E20FB7B7A6818331B01134404331A68FB7B17
S31520004E3022F00F02796818331B010B4404331A60E1
S31520004E40FB7B7A6818331B01134404331A683B68CA
S31520004E509B7A1946FB7B0A43796818331B010B445E
S31520004E6004331A603B689B7B1A063B685B7B1B04FA
S31520004E701A433B681B7B1B021A433B68DB7A1946A5
S31520004E80FB7B0A4379681B010B4403F5C4731A6044
S31520004E903B689B7C1A063B685B7C1B041A433B6879
S31520004EA01B7C1B021A433B68DB7B1946FB7B0A43B0
S31520004EB079681B010B4403F5C6731A60FB7B7A687D
S31520004EC018331B0113441A68FB7B42F001027968F0
S31520004ED018331B010B441A60FB7B18461437BD465A
S31520004EE05DF8047B704780B485B000AF78600B46D0
S31520004EF0FB700023FB60FB78022B12D0022B16DC02
S31520004F00002B02D0012B06D011E07B689A68314B2A
S31520004F101340FB600EE07B689A682F4B1340FB60C2
S31520004F2008E07B689A682D4B1340FB6002E0002363
S31520004F30FB6000BFFB68294A93423DD0FB68274AA5
S31520004F4093423CD8FB68264A93422CD0FB68244ADD
S31520004F50934234D8FB68204A93422AD0FB681E4AE3
S31520004F6093422CD8FB681F4A934219D0FB681D4AEE
S31520004F70934224D8FB68174A934217D0FB68154AF8
S31520004F8093421CD8FB68002B04D0FB68164A934238
S31520004F9003D014E00223FB6014E00023FB6011E041
S31520004FA00023FB600EE00023FB600BE00123FB6087
S31520004FB008E00123FB6005E00123FB6002E00023FB
S31520004FC0FB6000BFFB68DBB218461437BD465DF8B0
S31520004FD0047B704703000004000300080000031050
S31520004FE000000110000100080100000480B483B015
S31520004FF000AF78600B46FB70FB78022B14D0022B97
S3152000500019DC002B02D0012B07D014E07B689B68AB
S3152000501043F080027B689A600EE07B689B6843F4CD
S3152000502000427B689A6007E07B689B6843F4000235
S315200050307B689A6000E000BF00BF0C37BD465DF874
S31520005040047B704780B485B000AFF8600B467A6069
S31520005050FB72FB7AFA681B331B0113441B68DBB215
S3152000506003F00403DAB27B681A727B681B7A002B82
S315200050700BD1FB7AFA681B331B0113441B685B0DAB
S31520005080C3F30A027B681A600AE0FB7AFA681B33CC
S315200050901B0113441B68DB0823F060427B685A60BF
S315200050A0FB7AFA681B331B0113441B68DBB203F03F
S315200050B00203DAB27B685A72FB7AFA681B331B0149
S315200050C0134404331B68DBB203F00F03DAB27B68A8
S315200050D09A72FB7AFA681B331B01134404331B684C
S315200050E01B0ADAB27B68DA74FB7AFA681B0113446E
S315200050F003F5DC731B68DAB27B68DA72FB7AFA682E
S315200051001B01134403F5DC731B681B0ADAB27B68A8
S315200051101A73FB7AFA681B01134403F5DC731B68C8
S315200051201B0CDAB27B685A73FB7AFA681B011344AC
S3152000513003F5DC731B681B0EDAB27B689A73FB7A65
S31520005140FA681B01134403F5DE731B68DAB27B6829
S31520005150DA73FB7AFA681B01134403F5DE731B68C6
S315200051601B0ADAB27B681A74FB7AFA681B011344AD
S3152000517003F5DE731B681B0CDAB27B685A74FB7A64
S31520005180FA681B01134403F5DE731B681B0EDAB2A3
S315200051907B689A74FB7A002B06D1FB68DB6843F0A8
S315200051A02002FB68DA6005E0FB681B6943F02002F9
S315200051B0FB681A6100BF1437BD465DF8047B704753
S315200051C080B483B000AF78600B46FB70FB78002B71
S315200051D006D17B68DB6843F020027B68DA6005E055
S315200051E07B681B6943F020027B681A6100BF0C377D
S315200051F0BD465DF8047B704780B485B000AF78600B
S315200052000B46FB700023FB73FB78002B06D17B68D3
S31520005210DB68DBB203F00303FB730BE0FB78012BA7
S3152000522006D17B681B69DBB203F00303FB7301E045
S315200052300023FB73FB7B18461437BD465DF8047BC1
S31520005240704780B485B000AF78600B46FB700023B2
S31520005250FB734FF6FF73BB60FB78002B20D17B6876
S315200052601B6823F0030343F001027B681A6002E007
S31520005270BB68013BBB607B685B6803F00303012BC3
S3152000528002D0BB68002BF3D17B685B6803F0030375
S31520005290012B02D00023FB734AE00123FB7347E076
S315200052A0FB78012B1ED17B681B6823F003027B68E9
S315200052B01A6002E0BB68013BBB607B685B6803F059
S315200052C00303002B02D0BB68002BF3D17B685B68FD
S315200052D003F00303002B02D00023FB7328E00123F5
S315200052E0FB7325E0FB78022B20D17B681B6823F01B
S315200052F0030343F002027B681A6002E0BB68013BAD
S31520005300BB607B685B6803F00303022B02D0BB689B
S31520005310002BF3D17B685B6803F00303022B02D0DA
S315200053200023FB7304E00123FB7301E00023FB73DE
S31520005330FB7B18461437BD465DF8047B704780B466
S3152000534085B000AF78600023FB737B681B6823F071
S31520005350030343F002027B681A607B685B6803F0F4
S315200053600303022B01D10123FB73FB7B1846143761
S31520005370BD465DF8047B704780B485B000AF786089
S315200053804FF6FF73FB600023FB727B681B6823F0DC
S3152000539002027B681A6002E0FB68013BFB607B68C7
S315200053A05B6803F00203022B02D1FB68002BF3D1CA
S315200053B07B685B6803F00203022B01D00123FB729A
S315200053C0FB7A18461437BD465DF8047B704780B4D7
S315200053D085B000AF78600023FB737B689B69DBB2E6
S315200053E003F07003FB73FB7B18461437BD465DF84C
S315200053F0047B704780B485B000AF78600023FB73D0
S315200054007B689B691B0EFB73FB7B18461437BD46D6
S315200054105DF8047B704780B485B000AF78600023C8
S31520005420FB737B689B691B0CFB73FB7B184614374D
S31520005430BD465DF8047B704780B485B000AFF86048
S31520005440B9601346FB71FB79002B06D0FB685A69BD
S31520005450BB681A43FB685A6106E0FB685A69BB6859
S31520005460DB431A40FB685A6100BF1437BD465DF81E
S31520005470047B704780B485B000AF78603960002324
S31520005480FB733B6803F47003002B0DD07B689A698D
S315200054903B681340C3F31303002B02D00123FB7395
S315200054A048E00023FB7345E03B6803F08073002B44
S315200054B00DD07B685A683B681340C3F31303002B57
S315200054C002D00123FB7335E00023FB7332E03B68F7
S315200054D003F00063002B0DD07B689A683B6813406D
S315200054E0C3F31303002B02D00123FB7322E0002316
S315200054F0FB731FE03B6803F00073002B0DD07B6825
