S01600002E2F44656275672F5254532D4C61622E73313936
S3152000000000BFDFF814D002F0CEF800F091FE02F027
S31520000010DCB8FEE700BF000000C00120314900E047
S315200000203149EFF3088020ED108A7246EFF31183F1
S3152000003020E9FC0F2D4FD7F80080C8F800001EE0FD
S31520000040084600F0D1FF2A4800F0CEFF294800F0EC
S31520000050CBFFD8F8040001F013F8274800F0C4FFBE
S31520000060D8F8000000F0DDFF244800F0BDFFD8F8E6
S315200000700000006800F0D5FF1D4800F0B5FFDFF84E
S315200000808080D8F80080C7F8008018E01D4800F06E
S31520000090ABFFD8F8040000F0F3FF1B4800F0A4FFE4
S315200000A0D8F8000000F0BDFF144800F09DFFD8F8F6
S315200000B00000006800F0B5FF0D4800F095FF134AD8
S315200000C0536843F00063536000BFD8F80000B0E8DF
S315200000D0FC0F83F311889646B0EC108A80F30888CB
S315200000E070470000208B0020318B00202C910020AF
S315200000F0A18B0020528B00206A8B0020728B00205F
S31520000100149200207B8B0020908B002000ED00E0D5
S3152000011080B483B000AF786039607B685B6983F018
S3152000012001027B685A617B685B6918460C37BD46BD
S315200001305DF8047B704780B483B000AF7860396087
S315200001407B681B69DA437B681A6100BF0C37BD46A2
S315200001505DF8047B704780B483B000AF7860396067
S315200001607B68DA683B681344142B05DC7B68DA6805
S315200001703B681344002B02DA7B68DB6807E07B6868
S31520000180DA683B681A447B68DA607B68DB68184665
S315200001900C37BD465DF8047B704780B586B002AF4C
S315200001A0786039607B689B69002B03D01B4B00224B
S315200001B01A7030E07B68DB685AB23B685BB213404A
S315200001C05AB27B681B695BB213405AB2134BD2B248
S315200001D01A707B689B68124A82FB03129210DB1707
S315200001E0D31AFB607B685B69002B0BD0FB6803F19D
S315200001F00A013B68DB4300930A4B7A68F86801F0F2
S315200002002FFB08E03B68DB430093064B7A6800210E
S31520000210F86801F025FB1037BD4680BD1C740040F0
S31520000220676666669B01002080B58EB000AF786059
S3152000023039603B68FB6200237B630023BB6201F0CD
S31520000240CBFC786200233B632FE001F0C5FC3862CB
S315200002507B68DB6803F001027B681B691340BB6186
S315200002607B689B682B4A82FB03129210DB17D31AFA
S315200002707B617B685B69002B06D07B690A333B6117
S315200002806FF00103FB6001E00023BB6001F0A4FCDA
S3152000029002463B6AD31AFB617A6BFB699342B8BF6D
S315200002A013467B633B6B01333B633B6BB3F5FA7FB2
S315200002B0CBDB01F091FC02467B6AD31ABB627B6BD7
S315200002C0154A82FB03125113DA178A1A134901FBC6
S315200002D002F29A1A13469B0013445B001A46FB6AE5
S315200002E01A60BA6A0C4B83FB02135913D317CB1A25
S315200002F00A4901FB03F3D31AFA6A0432084981FB3F
S3152000030003010911DB17CB1A136000BF3837BD462E
S3152000031080BD00BF6766666689B5F814A0860100B1
S315200003201F85EB5180B483B000AF786039607B685D
S31520000330DB6883F001027B68DA607B68DB6818463D
S315200003400C37BD465DF8047B704780B483B000AFA0
S31520000350786039607B689A683B68134445F6C052DA
S31520000360934206DC7B689A683B681344B3F57A7F30
S3152000037002DA7B689B6807E07B689A683B681A44C8
S315200003807B689A607B689B6818460C37BD465DF88B
S31520000390047B704780B584B002AF7860396000BFB7
S315200003A03B685A1E3A60002BFAD17B68DB68002B2B
S315200003B009D07B689B680093094B7A68822182204A
S315200003C001F04EFA08E07B689B680093044B7A683C
S315200003D00021822001F044FA00BF0837BD4680BDC7
S315200003E09503002080B58CB000AF786039603B68FB
S315200003F03B620023FB620023FB6101F0EDFBB86149
S315200004000023BB621CE03B6A1B687B6201F0E4FBB5
S31520000410786100BF7B6A5A1E7A62002BFAD182234A
S31520000420FB6001F0D9FB02467B69D31A3B61FA6A6D
S315200004303B699342B8BF1346FB62BB6A0133BB627A
S31520000440BB6AB3F5FA7FDEDB01F0C6FB0246BB6969
S31520000450D31AFB61FB6A144A82FB03125113DA1783
S315200004608A1A124901FB02F29A1A13469B00134478
S315200004705B001A463B6A1A60FA690B4B83FB021330
S315200004805913D317CB1A094901FB03F3D31A3A6A36
S315200004900432074981FB03010911DB17CB1A1360CC
S315200004A000BF3037BD4680BD89B5F814A08601004F
S315200004B01F85EB5180B483B000AF0346FB71FB79F7
S315200004C003F01F03012202FA03F1064A97F90730C7
S315200004D05B0942F8231000BF0C37BD465DF8047B4C
S315200004E0704700BF00E100E080B483B000AF034650
S315200004F03960FB7197F90730002B0BDA3B68DAB2CB
S315200005000C49FB7903F00F03043B1201D2B20B44D2
S315200005101A7609E03B68DAB2074997F907301201E3
S31520000520D2B20B4483F8002300BF0C37BD465DF8DA
S31520000530047B704700ED00E000E100E080B582B06A
S3152000054000AF786039607B6800229A617B689A697F
S315200005507B685A617B685A697B68DA61012240F2BE
S3152000056025510A4802F028FC002240F2277107484C
S3152000057002F022FC02212520FFF7B6FF2520FFF7F7
S3152000058099FF00BF0837BD4680BD00BF001001405F
S3152000059080B483B000AF78600B46FB707B68DB6964
S315200005A0B3F5806F17DA7B685B697A681344FA784B
S315200005B083F820207B685B6901335A42C3F3090321
S315200005C0C2F3090258BF53427A6853617B68DB69DC
S315200005D05A1C7B68DA6100BF0C37BD465DF8047B88
S315200005E0704780B582B000AF786039607B68DB6980
S315200005F0002B18D17B689B68012240F22771184690
S3152000060002F0DAFB0FE03B681B780A2B03D10D21A1
S315200006107868FFF7BDFF3B685A1C3A601B7819467D
S315200006207868FFF7B5FF3B681B78002BEBD100BF3E
S3152000063000BF0837BD4680BD80B582B000AF786068
S3152000064039607B68DB69002B07D17B689B680122B8
S3152000065040F22771184602F0AFFB3B68DBB2194621
S315200006607868FFF795FF00BF0837BD4680BD80B587
S3152000067086B002AF786039607B689B682021184677
S3152000068002F0E2FB0346012B18D17B689B681846D3
S3152000069002F0FDF90346FB607B68DB68002B0DD07A
S315200006A07B68DA687B681969FB6800930B46002132
S315200006B0002001F0D5F8234B01221A607B689B6845
S315200006C08021184602F0C0FB0346012B35D17B68FA
S315200006D0DB69002B29DD7B6898687B689B697A68D3
S315200006E0134493F820309BB2194602F0BEF97B687A
S315200006F09B6901335A42C3F30903C2F3090258BF67
S3152000070053427A6893617B68DB695A1E7B68DA619B
S315200007107B68DB69002B10D17B689B68002240F246
S315200007202771184602F048FB07E07B689B68002289
S3152000073040F22771184602F03FFB00231846103777
S31520000740BD4680BDF491002080B586B000AF7860AC
S31520000750396007F108031A461549164801F01EF9B3
S3152000076000237B61FB7A1A467B6913447B613B7BC2
S315200007701B027A6913447B617B7B1B047A691344D1
S315200007807B61BB7B1B067A6913447B613B7A1946E6
S31520000790094800F0C1F97969084800F0BDF93B7AAB
S315200007A07969184600F03CF800BF1837BD4680BD71
S315200007B0B12400209490002094870020A487002054
S315200007C080B584B002AF786039600E4B1A460E4968
S315200007D00E4801F0E3F83A680D490C4801F0DEF8BE
S315200007E00C4B1A460849094801F0D8F83B68009393
S315200007F0094B0A4A0021002001F032F800BF0837D1
S31520000800BD4680BDB0870020E3050020748C002003
S3152000081039060020B88700200D0A0020A48B00206E
S3152000082090B595B002AF03463960FB71FB79623B08
S31520000830142B00F2C68001A252F823F06909002089
S3152000084091080020C3090020C3090020C309002005
S31520000850C3090020C3090020C3090020C3090020C2
S31520000860BF080020C309002057090020C309002023
S31520000870C3090020C3090020C3090020C3090020A2
S3152000088097090020C3090020C3090020A9080020D9
S315200008904FF0FF324D494E4801F080F80346194685
S315200008A04C4800F039F98CE001224849484801F0CB
S315200008B075F803461946474800F02EF981E06B4645
S315200008C01C4607F10C033A684349184607F054F9C9
S315200008D007F10C031A464149414801F05FF83A688E
S315200008E04049414801F05AF82023013B7B642023EC
S315200008F018464FF000014FF000024FF000034B0165
S3152000090043EAD0634201202318464FF000014FF0FE
S3152000091000024FF000034B0143EAD063420120233B
S315200009209B000733DB08DB00ADEB030D02AB033383
S315200009309B089B003B643B6C1A462C492A4801F0D5
S315200009402DF83B6C00932A4B214A0021002000F011
S3152000095087FFA54635E000230093264B1C4A00213D
S31520000960002000F07DFF2CE007F10C033A682249B5
S31520000970184607F001F907F10C031A4617491848DB
S3152000098001F00CF83B6800931C4B114A0021002013
S3152000099000F066FF15E0002219490D4800F0FEFF21
S315200009A00346002B06D0174B1A460C490C4800F07C
S315200009B0F5FF05E0144B1A460849094800F0EEFFFA
S315200009C000BF00BF4C37BD4690BD00BF5701002079
S315200009D0C88B0020BC870020D4870020E305002098
S315200009E0748C0020F12F0020B48B0020952F00203E
S315200009F0CD0E002037010020E08700208F0E00203A
S31520000A000F0F0020EC870020F887002080B584B0E7
S31520000A1002AF786039603B68762B72DC3B68622BCC
S31520000A200ADA3B682D2B39D03B682D2B69DB3B68D6
S31520000A30303B092B65D831E03B68623B142B60D8EC
S31520000A4001A252F823F000BFE30A0020AF0A0020DB
S31520000A50030B0020030B0020030B0020030B0020B8
S31520000A60030B0020030B0020030B0020C30A0020E9
S31520000A70030B0020D90A0020030B0020030B0020C3
S31520000A80030B0020030B0020030B0020F90A002093
S31520000A90030B0020030B0020B90A00203B680093BB
S31520000AA01A4B1B4A0021002000F0DAFE29E0002123
S31520000AB0632000F0E7F824E00021762000F0E2F839
S31520000AC01FE000221349124800F068FF034619462A
S31520000AD06B2000F0D7F814E000216D2000F0D2F84A
S31520000AE00FE000220B490A4800F058FF034619463A
S31520000AF0622000F0C7F804E00021732000F0C2F85D
S31520000B0000BF00BF0837BD4680BD00BF0D300020A6
S31520000B10A89100203930002080B590B000AF7860D1
S31520000B20396007F10C033A687968184607F024F80B
S31520000B3007F10C031A460449044800F02FFF00BFB2
S31520000B404037BD4680BD00BFE3050020748C0020E1
S31520000B5090B593B002AF6B461C4600222749284821
S31520000B6000F01CFFF8633B46FA6B2649184607F04F
S31520000B7003F83B461A462449244800F00FFFFA6B37
S31520000B802349244800F00AFF2023013BBB6320238E
S31520000B9018464FF000014FF000024FF000034B01C2
S31520000BA043EAD0634201202318464FF000014FF05C
S31520000BB000024FF000034B0143EAD0634201202399
S31520000BC09B000733DB08DB00ADEB030D02AB0333E1
S31520000BD09B089B007B637B6B1A460F490D4800F0F0
S31520000BE0DDFE7B6B00930D4B0D4A0021002000F0AB
S31520000BF037FEA54600BF4437BD4690BD393000209C
S31520000C00A8910020D4870020E3050020748C0020C2
S31520000C10F12F0020B48B0020952F0020CD0E002030
S31520000C20C88B002080B590B002AF00220E490F4835
S31520000C3000F0B4FE78633B467A6B0D49184606F001
S31520000C409BFF3B461A460B490B4800F0A7FE7B6BE1
S31520000C5000930A4B0A4A0021002000F001FE00BF43
S31520000C603837BD4680BD00BF39300020A89100200E
S31520000C70E0870020E3050020748C00208F0E0020E2
S31520000C80C88B002080B586B000AF786039607B685D
S31520000C90DBB23B7301237B730423BB733B68DBB25C
S31520000CA0FB733B681B12DBB23B743B681B14DBB245
S31520000CB07B743B681B16DBB2BB7407F10C031A4628
S31520000CC00349044800F06AFE00BF1837BD4680BDC0
S31520000CD07B2500209490002080B582B000AF7860FC
S31520000CE0396000220B490C4800F058FE00220B49BF
S31520000CF00B4800F053FE0B4B1A460B49084800F0F0
S31520000D004DFE0A490020FFF7BDFF00BF0837BD464C
S31520000D1080BD00BF69220020949000203D05002060
S31520000D20748C002000880020E30500204E61BC0062
S31520000D3080B500AF00220849084801F023F80122B7
S31520000D400749084801F01EF800220749074801F024
S31520000D507FF80023184680BD6F060020748C002083
S31520000D602923002094900020D90C0020A48B002059
S31520000D7080B586B002AF786039607B6800229A61C0
S31520000D807B683A680A3253F822207B689A607A6830
S31520000D904FF0FF330093134B0021002000F060FD3D
S31520000DA07B685A6A3B68134418787B68D9697B68E4
S31520000DB01B6A1A4600F044F80346642202FB03F33A
S31520000DC0FB60FB6803F10A013B68013323F0200333
S31520000DD00093054B7A68F86800F042FD00BF103793
S31520000DE0BD4680BD9B010020ED0D002080B586B05C
S31520000DF002AF786039607B6801229A617B68D3F8FC
S31520000E00A830B3F1FF3F10D17B681B6A642202FB36
S31520000E1003F3FB60FB6803F10A013B680093074B71
S31520000E207A68F86800F01CFD03E07B683A68C3F82E
S31520000E30A82000BF1037BD4680BD00BF710D002021
S31520000E4080B485B000AF0346B9607A60FB73FB7B44
S31520000E50632B0FD0632B12DC612B02D0622B04D0C4
S31520000E600DE0BA687B68D31A0BE0BB685A007B6832
S31520000E70D31A06E0BB685A107B68D31A01E04FF0FC
S31520000E80FF3318461437BD465DF8047B704780B49F
S31520000E9083B000AF786039604EF660223B6892FBE3
S31520000EA0F3F27B68DA617B68DB69074A82FB03120F
S31520000EB09210DB17D21A7B681A6200BF0C37BD4628
S31520000EC05DF8047B704700BF6766666680B485B0B0
S31520000ED000AF786039603B68BB600023FB600CE0A4
S31520000EE0FB689B00BA68134419687B68FA680A3263
S31520000EF043F82210FB680133FB60FB681F2BEFDDF4
S31520000F0000BF00BF1437BD465DF8047B704780B52F
S31520000F1084B002AF786039607B68D3F8A830B3F12B
S31520000F20FF3F04D17B680022C3F8A8200EE07B682F
S31520000F30D3F8A8300093094B7A680021002000F0EE
S31520000F408FFC7B684FF0FF32C3F8A8207B68D3F86C
S31520000F50A83018460837BD4680BD00BF710D002059
S31520000F6080B483B000AF0346FB71FB7903F01F0307
S31520000F70012202FA03F1064A97F907305B0942F883
S31520000F80231000BF0C37BD465DF8047B704700BFB9
S31520000F9000E100E080B483B000AF03463960FB7106
S31520000FA097F90730002B0BDA3B68DAB20C49FB794C
S31520000FB003F00F03043B1201D2B20B441A7609E068
S31520000FC03B68DAB2074997F907301201D2B20B44CF
S31520000FD083F8002300BF0C37BD465DF8047B7047BD
S31520000FE000ED00E000E100E080B582B000AF78605F
S31520000FF00EE07B681B780D2B07D07B685A1C7A6025
S315200010001B78184600F060F902E07B6801337B60AC
S315200010107B681B78002BECD100BF00BF0837BD468C
S3152000102080BD80B586B000AF786000237B617B6889
S3152000103003F00F027B69591C796110498A5C07F11C
S3152000104018010B4403F80C2C7B681B097B607B681A
S31520001050002BECD10AE07B69013B7B6107F10C0296
S315200010607B6913441B78184600F02EF97B69002B08
S31520001070F1D100BF00BF1837BD4680BD0C910020BE
S3152000108080B59EB000AF78607B68002B02DA4FF007
S31520001090FF3300E001233B677B683A6F02FB03F3D3
S315200010A07B6000237B6779681C4B83FB01239A10A6
S315200010B0CB17D21A13469B0013445B00CA1A7B6FC8
S315200010C0591C796716498A5C07F178010B4403F8A5
S315200010D06C2C7B68114A82FB03129210DB17D31A01
S315200010E07B607B68002BDED13B6F002B0EDA2D2038
S315200010F000F0EAF80AE07B6F013B7B6707F10C0200
S315200011007B6F13441B78184600F0DEF87B6F002BAC
S31520001110F1D100BF00BF7837BD4680BD67666666E1
S315200011200C91002080B483B000AF10237B607B68D5
S3152000113083F3118800BF00BF0C37BD465DF8047BE2
S31520001140704780B483B000AF30237B607B6883F325
S31520001150118800BF00BF0C37BD465DF8047B704781
S3152000116080B584B000AF78600B48FFF73DFF0B4B8E
S315200011701B68002B02D1094B094A1A60074B1B68D2
S31520001180FB60064B1A687B681344044A1360FB68AD
S3152000119018461037BD4680BD14880020589500207B
S315200011A07015012080B485B000AF786039603B6847
S315200011B003F5F95310337A6813607B681B68BB60AC
S315200011C00023FB600AE0FB689B001A46BB681344B9
S315200011D01A4600231360FB680133FB60FB68332B40
S315200011E0F1DDBB686FF016021A60BB6804331A463D
S315200011F003231360BB6884331A464FF08073136051
S3152000120000BF1437BD465DF8047B704780B485B0B7
S3152000121000AF786039607B681B688033FB60FB68B1
S315200012203A681A6000BF1437BD465DF8047B7047E4
S3152000123080B584B000AF1D4803F026FA3B1D184642
S3152000124003F06EFB40F24733BB803B1D194617481F
S3152000125003F0FAFA164B174A1A6002216FF00100C2
S31520001260FFF798FE144B154A1A6000216FF0040010
S31520001270FFF790FE124B134A1A6002213220FFF725
S3152000128089FE3220FFF76CFE0021084803F092FB0E
S315200012900121064803F05BFC01220221034804F0E9
S315200012A02AFC00BF1037BD4680BD00BF000C0040A1
S315200012B038C00120210000202CC001201D00002064
S315200012C008C101204F16002080B582B000AF03462A
S315200012D0FB71FB799BB21946074801F0C6FB00BF9C
S315200012E08021054801F0B0FD0346002BF8D000BF51
S315200012F000BF0837BD4680BD0010014080B500AF55
S31520001300124803F073FB03461A46114B1A60114B21
S3152000131001221A60104B00221A60104B1B68002B0A
S3152000132006D00E4B1B680E4A1268002110469847BD
S31520001330084B00221A60084B1B68002B01D000F0D6
S315200013405DFA054B00221A6000BF80BD000C0040EC
S31520001350F8910020F0910020F4910020689200205E
S315200013600892002080B500AF124803F03FFB0346E9
S315200013701A46114B1A60114B01221A60104B00229B
S315200013801A60104B5B68002B06D00E4B5B680E4A2A
S315200013905268012110469847084B00221A60084BD4
S315200013A01B68002B01D000F029FA054B00221A6099
S315200013B000BF80BD000C0040F8910020F091002075
S315200013C0F4910020689200200892002080B500AF9A
S315200013D0124803F00BFB03461A46114B1A60114BB9
S315200013E001221A60104B00221A60104B9B68002BBA
S315200013F006D00E4B9B680E4A9268022110469847EB
S31520001400084B00221A60084B1B68002B01D000F005
S31520001410F5F9054B00221A6000BF80BD000C004084
S31520001420F8910020F0910020F4910020689200208D
S315200014300892002080B485B000AF78603960002320
S31520001440FB603B681B68BB6004E0BB68FB60BB6855
S315200014501B68BB60BB68002B05D0BB689A687B689D
S315200014609B689A42F1DD7B68BA681A60FB68002B9C
S3152000147003D13B687A681A6002E0FB687A681A60D2
S3152000148000BF1437BD465DF8047B704780B485B035
S3152000149000AF786039600023FB603B681B68BB6047
S315200014A004E0BB68FB60BB681B68BB60BB68002BA5
S315200014B005D0BB685A687B685B689A42F1DD7B6819
S315200014C0BA681A60FB68002B03D13B687A681A60F9
S315200014D002E0FB687A681A6000BF1437BD465DF8E3
S315200014E0047B704780B584B000AF78607B681B684A
S315200014F0FB60FB68002B04D0FB681A687B681A60C7
S315200015000CE00948FFF770FD00220221074806F08B
S315200015103AFA0748FFF768FD30BFFDE7FB68184633
S315200015201037BD4680BD00BF2C8800200004024035
S315200015303888002080B584B000AF78607B681B684F
S31520001540FB60FB68002B04D0FB681A687B681A6076
S315200015500CE00948FFF748FD00220221074806F063
S3152000156012FA0748FFF740FD30BFFDE7FB68184633
S315200015701037BD4680BD00BF2C88002000040240E5
S315200015804488002080B483B000AF786039603B681F
S315200015901A687B681A603B687A681A6000BF0C3745
S315200015A0BD465DF8047B704780B483B000AF786099
S315200015B039603B681A687B689A603B687A681A606B
S315200015C000BF0C37BD465DF8047B704780B485B0FC
S315200015D000AF78607B681B68FB60FB689A687B6855
S315200015E01A60FB6818461437BD465DF8047B7047C1
S315200015F080B485B000AF786039600023FB603B681B
S315200016001B68BB6004E0BB68FB60BB681B68BB60F3
S31520001610BB68002B03D0BA687B689A42F3D1BB68BB
S31520001620002B0DD0FB68002B04D0BB681A68FB6822
S315200016301A6003E0BB681A683B681A60012300E061
S31520001640002318461437BD465DF8047B704780B5E5
S3152000165082B000AF02211E4804F0D7FA1C4803F0DE
S31520001660C5F903467B6007E01A48FFF73BFF0346B0
S3152000167019491846FFF7DEFE164B1B68002B06D0CD
S31520001680144B1B685A687B68D31A002BECDD114B70
S315200016901B68002B16D00E4803F0A8F903463B60C2
S315200016A00C4B1B685B683A689A4204DD00220221D3
S315200016B00A4806F068F9074B1B685B681946044818
S315200016C003F0D3FC00F09AF800BF0837BD4680BD72
S315200016D0000C0040EC910020E8910020000402401C
S315200016E00346024A136010DFF74600BF149200201B
S315200016F00346054A1360054B5B68044A43F0805352
S315200017005360F74600BF00BF1492002000ED00E0B2
S3152000171080B582B000AF7860094B5B68C3F30803DD
S31520001720002B03D17868FFF7DBFF02E07868FFF72C
S31520001730DFFFFFF706FD00BF0837BD4680BD00BFAF
S3152000174000ED00E090B585B000AF234B1C68234820
S31520001750FFF7C8FE0346E360E368BB60FFF7F1FCD2
S31520001760BB68D868BB681969BB685B691A4600F014
S3152000177015F9FFF7D7FC1A49B868FFF703FF194B8D
S315200017801B689B68DB687B60144B1B68002B0AD0A8
S315200017907B68002BD9D0114B1B689A687B689B68A5
S315200017A0D31A002BD1DD0F48FFF710FF03460E4951
S315200017B01846FFF7F9FE0B4B1B68FB6003E0FB683E
S315200017C01B691B68FB60FB681B69002BF7D1F86857
S315200017D0FFF79EFFB9E700BF2C910020E89100207B
S315200017E020910020289100202491002080B500AF70
S315200017F000F004F8FFF7A5FC30BFFBE780B582B008
S3152000180000AF144B1B68DB687B60134B1B68002BF7
S315200018101BD0124B1B68002B17D07B68002B07D0E0
S315200018200D4B1B689A687B689B68D31A002B0CDAD1
S315200018300A48FFF7CBFE034606491846FFF7B4FED3
S31520001840044B1B681846FFF763FF00BF0837BD46E9
S3152000185080BD00BF28910020E8910020249100201F
S3152000186080B588B000AFF860B9607A603B60EFF36E
S3152000187012833B613B691B09012B14BF0123002303
S31520001880DBB2FB77FFF74EFC3A48FFF753FEB86111
S31520001890BB697A68DA60BB693A681A61BB69BA6A59
S315200018A05A61354B1B68002B04D1344B1B68DB680F
S315200018B05B6801E0324B1B68FA681A44BB695A60C0
S315200018C0BB695A68BB68002B01DDBB6801E06FF07D
S315200018D000431A44BB699A602A4803F087F80346F6
S315200018E07B61BB695A687B69D31A002B16DD2649B2
S315200018F0B869FFF7CBFD244B1B685B687A699A426F
S3152000190004DD00220221214806F03DF81E4B1B680B
S315200019105B6819461B4803F0A8FB21E01C49B869FF
S31520001920FFF788FDFB7F002B1AD01A4B1B68002B74
S3152000193016D0174B1B689A68174B1B68DB689B6889
S31520001940D31A002B0CDA1348FFF740FE0346124940
S315200019501846FFF729FE104B1B681846FFF7D8FEDE
S31520001960FB7F002B01D0FFF7ECFBBB691846203725
S31520001970BD4680BD20910020F09100202C910020B2
S31520001980F8910020000C0040EC9100200004024059
S31520001990E8910020249100202891002080B588B06D
S315200019A000AFF860B9607A60EFF312833B613B6960
S315200019B01B09012B14BF01230023DBB2FB76FFF7A3
S315200019C0B1FBFB681B68FB61FB69002B37D003E08A
S315200019D0FB691B691B68FB61FB691B69002BF7D13F
S315200019E0304B1B68FA699A4202D0FB7E002B07D146
S315200019F0FB7E002B01D0FFF7A4FB4FF0FF334DE019
S31520001A00FB685B68002B03D0FB685B6800221A61C9
S31520001A10244B1A68FB685A60224B1B68FA681A61C5
S31520001A20F869FFF775FE1F4B1B68DB68002B06D194
S31520001A30FB7E002B01D0FFF784FB00232EE0194B01
S31520001A401A68FB681A60FB7E002B05D0FB685B6872
S31520001A50012B01D0FFF775FBBB687968F8689847BA
S31520001A607861FFF75FFBFB6800221A60FB685B6802
S31520001A70FB61FB69002B0BD0FB69012B08D0FB68AF
S31520001A8000225A60FB6900221A61F869FFF740FEBE
S31520001A90FB7E002B01D0FFF754FB7B6918462037CD
S31520001AA0BD4680BD2C91002080B586B000AF786001
S31520001AB0EFF31283FB60FB681B09012B14BF012384
S31520001AC00023DBB2FB74FFF72DFB1F497868FFF775
S31520001AD08FFD0346002B06D11C497868FFF788FD49
S31520001AE00346002B04D01A497868FFF74BFD21E006
S31520001AF0184B1B687B611AE0174B1B687A699A4260
S31520001B0012D07B69DB687A689A420DD17B691A69A3
S31520001B107B68DB689A4207D17B690022DA600C4930
S31520001B207868FFF72FFD05E07B699B687B617B6901
S31520001B30002BE1D1FB7C002B01D0FFF702FB00BF7D
S31520001B401837BD4680BD00BFEC910020E8910020EB
S31520001B5020910020289100202C91002080B485B06F
S31520001B6000AF7860EFF31283FB60FB681B09012B43
S31520001B7004D0074B1B68DB685B6801E0054B1B68DC
S31520001B807A68136000BF1437BD465DF8047B704742
S31520001B902C910020F891002080B485B000AF7860A9
S31520001BA0EFF31283FB60FB681B09012B04D0084B63
S31520001BB01B68DB685B6801E0064B1B687A68126865
S31520001BC09B1A18461437BD465DF8047B704700BF44
S31520001BD02C910020F891002080B584B000AFEFF35F
S31520001BE012837B607B681B09012B14BF0123002312
S31520001BF0DBB2FB73FFF796FA0C4802F0F7FE0346BA
S31520001C00BB60FB7B002B01D0FFF79BFAFB7B002BF5
S31520001C1004D0074B1B68DB685B6801E0054B1B683B
S31520001C20BA68D31A18461037BD4680BD000C00404E
S31520001C302C910020F891002080B582B000AF0023BF
S31520001C407B6012E07B685A1C13465B001344DB0062
S31520001C50444A991843487A6813465B001344DB00CC
S31520001C60034419607B6801337B607B681C2BE9DDAC
S31520001C703C4B0022C3F8B82200237B6013E07B682C
S31520001C805A1C13469B0013449B00374A9918364822
S31520001C907A6813469B0013449B000344083319605B
S31520001CA07B6801337B607B68022BE8DD2E4B0022AC
S31520001CB05A6400237B6030E02B497A6813469B00E8
S31520001CC013449B000B4404337A681A607A681346DF
S31520001CD09B0013449B00244A1A447B685B032349D8
S31520001CE00B4419461046FFF75DFA7A6813469B00A7
S31520001CF013449B001C4A13441D491846FFF786FAD5
S31520001D0019497A6813469B0013449B000B441033F1
S31520001D1000221A607B6801337B607B68032BCBDD56
S31520001D20144B4FF0FF325A60124B00229A60114B2F
S31520001D3000221A610F4B0022DA600F48FFF754F990
S31520001D400E48FFF751F90E48FFF74EF90A48FFF7FC
S31520001D504BF90948FFF748F9FFF76AFA00BF083739
S31520001D60BD4680BD889200201892002060950020F4
S31520001D7045170020749200205088002054880020A7
S31520001D806088002080B586B000AFF860B960134641
S31520001D90FB71FB79022B41D8EFF312833B613B6940
S31520001DA01B09012B14BF01230023DBB2FB75FFF7B0
S31520001DB0B9F9FB79022B0ED0022B10DC002B02D0B6
S31520001DC0012B04D00BE0174B174A1A6014E0174B6F
S31520001DD0174A1A6010E0174B174A1A600CE017488A
S31520001DE0FFF702F900220221154805F0CCFD15481F
S31520001DF0FFF7FAF830BFFDE7FB791349FA6841F897
S31520001E002320FB791149BA6841F82320FB68012277
S31520001E105A60FB7D002B01D0FFF793F900BF1837DE
S31520001E20BD4680BDD4C00120FD12002090C00120F7
S31520001E30651300209CC00120CD1300202C88002093
S31520001E400004024078880020089200206892002032
S31520001E5080B586B002AFF860B9607A60FFF762F9A4
S31520001E60FFF7EAFEBB68002B16D00F4802F0BEFD36
S31520001E7003461A460D4B1A600D4B01221A607B68E9
S31520001E800093BB68FA6800210020FFF7E9FC084BA5
S31520001E9000221A60FFF7B2FCFFF7A8FC00231846C1
S31520001EA01037BD4680BD00BF000C0040F8910020D1
S31520001EB0F091002080B400AF00BFBD465DF8047BE2
S31520001EC0704780B586B000AF454805F073FB45489E
S31520001ED001F056FA444801F053FA01214FF0007000
S31520001EE004F01CFE01214FF0806004F017FE012152
S31520001EF0022004F0B3FD09220921394805F07CFDB2
S31520001F0009220821364805F077FD07F11003184607
S31520001F1005F091FC4FF400733B6102233B750023CF
S31520001F20BB750023FB7502237B7507F11003194649
S31520001F302B4805F0F1FB4FF480733B6102233B7580
S31520001F400023BB750123FB7502237B7507F1100364
S31520001F501946234805F0E0FB09220621204805F012
S31520001F604BFD092205211E4805F046FD40233B6115
S31520001F7002233B750023BB750023FB7502237B756B
S31520001F8007F110031946164805F0C6FB20233B61CE
S31520001F9002233B750023BB750123FB7502237B754A
S31520001FA007F1100319460E4805F0B6FB0023BB7255
S31520001FB00023FB7201233B7300233B8000237B809D
S31520001FC00023BB800023FB8000233B8101237B73FE
S31520001FD03B46184601F0C9FA00BF1837BD4680BDFA
S31520001FE000040240006400400068004080B586B0CE
S31520001FF000AF01214FF0005004F090FD07F11003CF
S31520002000184605F018FC20233B6103233B7500236B
S31520002010FB7507F1100319460F4805F07DFB05F007
S31520002020A1F83B46184605F0DFF800233B60002365
S315200020307B600023FB603B461946102005F0A0F884
S315200020400121102005F0E6F80021082005F090F97E
S3152000205000BF1837BD4680BD0000024080B584B061
S3152000206000AF01214FF4804004F078FD07210120C4
S3152000207002F08EFA04F06EFF3B46184604F0F6FF97
S3152000208080233B6000233B710C237B710123BB71B2
S315200020903B46184604F078FF07F10803184605F07A
S315200020A0CAFB0223BB6001233B730123BB730023BE
S315200020B0FB7301237B7307F108031946184805F0C3
S315200020C02BFB0123BB6001233B730123BB7300233E
S315200020D0FB7301237B7307F108031946104805F0AB
S315200020E01BFB012202210E4805F04DFC0122012195
S315200020F00B4805F048FC8023BB6000233B7300237C
S31520002100BB730023FB7301237B7307F10803194676
S31520002110034805F001FB00BF1037BD4680BD00BF58
S315200021200004024080B483B000AFEFF314833B6019
S315200021303B6823F003037B607B6883F3148800BF2E
S31520002140094B4FF404725A61074B5B69064A43F008
S3152000215008035361054B4FF000425A6000BF0C370D
S31520002160BD465DF8047B704700ED00E030EF00E0EF
S3152000217080B500AF0121082004F0D0FC0121082001
S3152000218004F00CFE00BF80BD80B400AF124A02E00E
S31520002190002342F8043B114B9A42F9D300BFBD46B7
S315200021A05DF8047B704780B500AFFFF7EDFFFFF7C2
S315200021B081FEFFF786FEFFF719FFFFF74FFFFFF7B8
S315200021C0B1FFFFF7D5FF00BF80BD80B400AF00BFD1
S315200021D0BD465DF8047B7047A8910020701501204C
S315200021E080B483B000AF0346FB71FB7903F01F0375
S315200021F0012202FA03F1064A97F907305B0942F8F1
S31520002200231000BF0C37BD465DF8047B704700BF26
S3152000221000E100E080B483B000AF03463960FB7173
S3152000222097F90730002B0BDA3B68DAB20C49FB79B9
S3152000223003F00F03043B1201D2B20B441A7609E0D5
S315200022403B68DAB2074997F907301201D2B20B443C
S3152000225083F8002300BF0C37BD465DF8047B70472A
S3152000226000ED00E000E100E080B586B000AF7860C8
S3152000227039607B6800229A617B689A697B685A611B
S315200022807B685A697B68DA612248FEF7ADFE07F162
S315200022900C03184601F02CFA0023BB740023FB74B0
S315200022A000233B7500237B750023BB750023FB753C
S315200022B00023BB730023FB7302233B7403237B742D
S315200022C00723BB8107F10C031946134801F07CF85C
S315200022D00346002B02D11148FEF786FE07F10C03B8
S315200022E019460F4801F070F80346002B02D10D481D
S315200022F0FEF77AFE02211420FFF78CFF1420FFF749
S315200023006FFF01220221044801F030FE00BF18377A
S31520002310BD4680BD9888002000640040C08800200B
S3152000232000680040D8880020B0B58AB002AF786037
S3152000233039607B689B685A49184601F035FE03468A
S31520002340012B02D05748FEF74FFE7B68DB69072B2F
S3152000235000F39F807B689B6807F1080200211846DE
S3152000236001F00AFCBB681B09DBB27A68526903F0EC
S315200023707F03D8B2796813469B0013445B0013444D
S315200023800B44203302461A70BB68DBB27A68526966
S3152000239003F00F03D8B2796813469B0013445B0001
S315200023A013440B44213302461A70BB7C7A68526967
S315200023B003F00F03D8B2796813469B0013445B00E1
S315200023C013440B44223302461A700023FB7716E08F
S315200023D0FB7F7A685269F97F07F12000034413F8DE
S315200023E00D4C786813469B0013445B00134403444A
S315200023F00B44233322461A70FB7F0133FB777B681D
S315200024005A69796813469B0013445B0013440B44B6
S3152000241022331B78FA7F9A42DAD37B68DB68002B5B
S3152000242025D07B68DC687B681D697B685A6979687A
S3152000243013469B0013445B0013440B4420331B7844
S3152000244019017B685A69786813469B0013445B0020
S315200024501344034421331B780B4400932B46224616
S3152000246000210020FFF7FCF90F4B01221A607B6840
S315200024705B6901335A4203F0070302F0070258BF93
S3152000248053427A6853617B68DB695A1C7B68DA6140
S3152000249002E00648FEF7A8FD00BF2037BD46B0BDC6
S315200024A003000012F0880020F491002018890020F3
S315200024B090B484B000AF786039607B68DB69002B0C
S315200024C055DD7B689A69796813469B0013445B0047
S315200024D013440B4420331A783B681A707B689A6938
S315200024E0796813469B0013445B0013440B44213345
S315200024F01A783B685A707B689A69796813469B00FC
S3152000250013445B0013440B4422331A783B689A70B9
S315200025100023FB7313E07B689A69F87BF97B7C6860
S3152000252013469B0013445B00134423440344233384
S315200025301A783B680B44DA70FB7B0133FB733B68EC
S315200025409B78FA7B9A42E6D37B689B6901335A4291
S3152000255003F0070302F0070258BF53427A689361DB
S315200025607B68DB695A1E7B68DA61002300E0012361
S3152000257018461037BD4690BC704780B58AB000AF6C
S31520002580786039607B689B683B620023FB77234B2E
S315200025903B623B681B781B013A6852781344BB6048
S315200025A000237B7400233B743B689B78082B02D95D
S315200025B03B6808229A703B689B78BB74002387F897
S315200025C0273010E097F8272097F8273039680A44F3
S315200025D0D27807F128010B4403F8152C97F82730F9
S315200025E0013387F827303B689B7897F827209A4253
S315200025F0E8D307F108031946386A01F03DF9034686
S31520002600FB77FB7F042B04D10548FEF7EDFC012365
S3152000261000E0002318462837BD4680BD00680040EC
S315200026203889002080B582B000AF78607B683B4A4D
S31520002630934208D10121102004F030FB0021102004
S3152000264004F02CFB65E07B68354A93420AD10121D0
S315200026504FF4003004F002FB00214FF4003004F068
S31520002660FDFA56E07B682F4A93420AD101214FF4A6
S31520002670802004F0F3FA00214FF4802004F0EEFAD3
S3152000268047E07B68284A93420AD101214FF4002073
S3152000269004F0E4FA00214FF4002004F0DFFA38E0D9
S315200026A07B68224A93420AD101214FF4801004F01C
S315200026B0D5FA00214FF4801004F0D0FA29E07B6887
S315200026C01B4A934208D10121202004F0E7FA002179
S315200026D0202004F0E3FA1CE07B68164A93420AD1D4
S315200026E001214FF0804004F0B9FA00214FF08040DC
S315200026F004F0B4FA0DE07B680F4A934209D1012118
S315200027004FF0004004F0AAFA00214FF0004004F0F8
S31520002710A5FA00BF0837BD4680BD00BF00100140A6
S315200027200044004000480040004C0040005000405B
S315200027300014014000780040007C004080B58AB03B
S3152000274000AF7860396000237B6200233B62002360
S31520002750FB610023BB617B681B8A9BB27B627B6A21
S3152000276023F440537B623B68DB881A467B6A13431B
S315200027707B627B6A9AB27B681A827B689B899BB252
S315200027807B627B6A23F4B05323F00C037B623B68A5
S315200027909A883B681B8913439AB23B685B8913432B
S315200027A09BB21A467B6A13437B627B6A9AB27B682A
S315200027B09A817B689B8A9BB27B627B6A23F44073F7
S315200027C07B623B689B891A467B6A13437B627B6AE2
S315200027D09AB27B689A8207F10803184603F088FFAD
S315200027E07B68304A934203D07B682F4A934202D1BA
S315200027F07B693B6201E03B693B627B689B899BB2BC
S315200028001BB2002B0CDA3A6A13469B0013449A003B
S315200028101A443B681B685B00B2FBF3F3FB610BE0D9
S315200028203A6A13469B0013449A001A443B681B6875
S315200028309B00B2FBF3F3FB61FB691C4AA2FB03235B
S315200028405B091B017B627B6A1B09642202FB03F383
S31520002850FA69D31ABB617B689B899BB21BB2002B9A
S315200028600CDABB69DB003233104AA2FB03235B0977
S3152000287003F007037A6A13437B620BE0BB691B01F3
S3152000288032330A4AA2FB03235B0903F00F037A6A59
S3152000289013437B627B6A9AB27B681A8100BF283712
S315200028A0BD4680BD00100140001401401F85EB513C
S315200028B080B483B000AF78607B684FF416521A60FC
S315200028C07B6800229A807B680022DA807B6800225F
S315200028D01A817B680C225A817B6800229A8100BF6C
S315200028E00C37BD465DF8047B704780B485B000AFD9
S315200028F0786039600023FB607B681B8A9BB2FB6093
S31520002900FB6823F47063FB603B681A883B685B882E
S3152000291013439AB23B689B8813439AB23B68DB8881
S3152000292013439BB21A46FB681343FB60FB689AB2BB
S315200029307B681A8200BF1437BD465DF8047B70475A
S3152000294080B483B000AF78607B6800221A807B68F1
S3152000295000225A807B6800229A807B680022DA80D7
S3152000296000BF0C37BD465DF8047B704780B483B04A
S3152000297000AF78600B46FB70FB78002B08D07B6895
S315200029809B899BB243F400539AB27B689A8107E0F5
S315200029907B689B899BB223F400539AB27B689A8109
S315200029A000BF0C37BD465DF8047B704780B483B00A
S315200029B000AF78600B46FB707B681B8B9BB223F0C5
S315200029C0FF039AB27B681A837B681B8B9AB2FB78CB
S315200029D09BB213439AB27B681A8300BF0C37BD465D
S315200029E05DF8047B704780B483B000AF78600B46F7
S315200029F0FB70FB78002B0AD07B689B899BB26FEA21
S31520002A0043436FEA53439AB27B689A8107E07B6817
S31520002A109B899BB2C3F30E039AB27B689A8100BF4F
S31520002A200C37BD465DF8047B704780B483B000AF99
S31520002A3078600B46FB70FB78002B08D07B689B8A5E
S31520002A409BB243F400639AB27B689A8207E07B6864
S31520002A509B8A9BB223F400639AB27B689A8200BF5A
S31520002A600C37BD465DF8047B704780B483B000AF59
S31520002A7078600B467B807B88C3F308039AB27B6819
S31520002A809A8000BF0C37BD465DF8047B704780B442
S31520002A9083B000AF78607B689B889BB2C3F3080342
S31520002AA09BB218460C37BD465DF8047B704780B450
S31520002AB083B000AF78600B46FB707B681B8A9BB2A5
S31520002AC023F00F039AB27B681A827B681B8A9AB21C
S31520002AD0FB789BB213439AB27B681A8200BF0C37ED
S31520002AE0BD465DF8047B704780B483B000AF786044
S31520002AF00B46FB70FB78002B08D07B689B899BB22A
S31520002B0043F002039AB27B689A8107E07B689B892F
S31520002B109BB223F002039AB27B689A8100BF0C37DE
S31520002B20BD465DF8047B704780B483B000AF786003
S31520002B300B467B807B689B899BB223F400639AB209
S31520002B407B689A817B689B899AB27B8813439AB269
S31520002B507B689A8100BF0C37BD465DF8047B7047C1
S31520002B6080B483B000AF78600B467B807B681B8A7D
S31520002B709BB223F020039AB27B681A827B681B8A59
S31520002B809AB27B8813439AB27B681A8200BF0C37AD
S31520002B90BD465DF8047B704780B483B000AF786093
S31520002BA00B46FB70FB78002B08D07B681B8A9BB2F8
S31520002BB043F480439AB27B681A8207E07B681B8ABB
S31520002BC09BB223F480439AB27B681A8200BF0C37EB
S31520002BD0BD465DF8047B704780B483B000AF786053
S31520002BE07B689B899BB243F001039AB27B689A81EA
S31520002BF000BF0C37BD465DF8047B704780B483B0B8
S31520002C0000AF78600B46FB70FB78002B08D07B6802
S31520002C109B8A9BB243F008039AB27B689A8207E0AC
S31520002C207B689B8A9BB223F008039AB27B689A82C0
S31520002C3000BF0C37BD465DF8047B704780B483B077
S31520002C4000AF78600B46FB707B681B8B9BB2DBB2B8
S31520002C509AB27B681A837B681B8B9AB2FB789BB2ED
S31520002C601B029BB213439AB27B681A8300BF0C37B0
S31520002C70BD465DF8047B704780B483B000AF7860B2
S31520002C800B46FB70FB78002B08D07B689B8A9BB297
S31520002C9043F020039AB27B689A8207E07B689B8A7E
S31520002CA09BB223F020039AB27B689A8200BF0C372E
S31520002CB0BD465DF8047B704780B483B000AF786072
S31520002CC00B46FB70FB78002B08D07B689B8A9BB257
S31520002CD043F010039AB27B689A8207E07B689B8A4E
S31520002CE09BB223F010039AB27B689A8200BF0C37FE
S31520002CF0BD465DF8047B704780B483B000AF786032
S31520002D000B467B807B689B8A9BB223F004039AB296
S31520002D107B689A827B689B8A9AB27B8813439AB295
S31520002D207B689A8200BF0C37BD465DF8047B7047EE
S31520002D3080B483B000AF78600B46FB70FB78002B25
S31520002D4008D07B689B8A9BB243F002039AB27B68C9
S31520002D509A8207E07B689B8A9BB223F002039AB291
S31520002D607B689A8200BF0C37BD465DF8047B7047AE
S31520002D7080B483B000AF78600B467B8013467B70AF
S31520002D807B78002B08D07B689B8A9AB27B8813437A
S31520002D909AB27B689A8209E07B689B8A9AB27B8882
S31520002DA0DB439BB213409AB27B689A8200BF0C37F2
S31520002DB0BD465DF8047B704780B487B000AF78606D
S31520002DC00B467B8013467B7000233B610023FB6010
S31520002DD00023BB6000237B617B687B617B88DBB241
S31520002DE05B09DBB23B617B8803F01F03FB6001229A
S31520002DF0FB6802FA03F3BB603B69012B03D17B69B5
S31520002E000C337B6109E03B69022B03D17B691033CC
S31520002E107B6102E07B6914337B617B78002B06D0D3
S31520002E207B6919687B69BA680A431A6006E07B6980
S31520002E301968BB68DA437B690A401A6000BF1C37F1
S31520002E40BD465DF8047B704780B485B000AF7860DE
S31520002E500B467B800023FB737B681B889AB27B889A
S31520002E6013409BB2002B02D00123FB7301E0002309
S31520002E70FB73FB7B18461437BD465DF8047B704711
S31520002E8080B483B000AF78600B467B807B88DB43C1
S31520002E909AB27B681A8000BF0C37BD465DF8047B6A
S31520002EA0704780B487B000AF78600B467B800023E4
S31520002EB0FB6000237B610023BB600023FB747B88BF
S31520002EC0DBB25B09DBB2BB607B8803F01F037B614F
S31520002ED001227B6902FA03F37B61BB68012B07D1D0
S31520002EE07B689B899BB21A467B6913407B6111E004
S31520002EF0BB68022B07D17B681B8A9BB21A467B696B
S31520002F0013407B6106E07B689B8A9BB21A467B69ED
S31520002F1013407B617B881B0A9BB2FB600122FB6806
S31520002F2002FA03F3FB607B681B889BB21A46FB6898
S31520002F301340FB607B69002B05D0FB68002B02D079
S31520002F400123FB7401E00023FB74FB7C18461C372D
S31520002F50BD465DF8047B704780B485B000AF7860CD
S31520002F600B467B800023FB810023BB817B881B0AC9
S31520002F70FB81FB89012202FA03F3BB81BB89DB4378
S31520002F809AB27B681A8000BF1437BD465DF8047B71
S31520002F90704700BF80B485B000AF786039603B6869
S31520002FA0BB600023FB6015E07B689A68FB689B008A
S31520002FB013441A687B681B69134403F10A02FB68F1
S31520002FC09B00B9680B44094951F822201A60FB6816
S31520002FD00133FB607B68DB68FA689A42E4DB00BF5A
S31520002FE000BF1437BD465DF8047B70474C8900202E
S31520002FF080B483B000AF786039607B683A681A6124
S3152000300000BF0C37BD465DF8047B704780B483B0A3
S3152000301000AF786039607B68DB6B591C7A68D163B6
S315200030203A68D1B27A6813440A461A7200BF0C373E
S31520003030BD465DF8047B704780B582B000AF7860EE
S3152000304039607B68DB6B7A68134400221A727B68CE
S315200030500022DA637B680833184604F069FD0346CC
S3152000306018460837BD4680BD80B483B000AF78606F
S3152000307039607B685A697B680232396843F82210C6
S315200030807B685B69591C0B4B83FB0132CB17D21A29
S3152000309013465B001344CA1A7B685A617B689B6996
S315200030A05A1C7B689A6100BF0C37BD465DF8047BCD
S315200030B0704700BF5655555580B483B000AF786031
S315200030C039607B6800229A607B680022DA607B6820
S315200030D000221A617B6800225A617B6800229A616D
S315200030E000BF0C37BD465DF8047B704780B483B0C3
S315200030F000AF786039607B689A687B68DB681A4421
S315200031007B681B69134418460C37BD465DF8047B63
S31520003110704780B487B000AF786039607B689B6960
S31520003120022B0BD0022B10DC002B02D0012B02D05D
S315200031300BE000232FE07B689B682CE07B689A6875
S315200031407B68DB6813445B1025E07B689A687B68A4
S31520003150DB68D31A7B617B68DA687B681B69D31AC4
S315200031603B617B689A687B681B69D31AFB607B6925
S315200031703A6902FB03F3002B02DD7B68DB680AE079
S315200031807B69FA6802FB03F3002B02DD7B681B696F
S3152000319001E07B689B6818461C37BD465DF8047BBA
S315200031A0704780B487B000AF786039606FF0004315
S315200031B07B614FF000433B610023FB6026E07B6888
S315200031C0D3F8F820FB689B0013441B687A699A425F
S315200031D007DD7B68D3F8F820FB689B0013441B6847
S315200031E07B617B68D3F8F820FB689B0013441B683F
S315200031F03A699A4207DA7B68D3F8F820FB689B0085
S3152000320013441B683B61FB680133FB607B68D3F882
S31520003210FC30FA689A42D2DB7B687A69C3F80421CB
S315200032207B683A69C3F8082100BF1C37BD465DF8A4
S31520003230047B704780B489B000AF786039607B68C2
S315200032403A68C3F800210023FB617B68D3F8043178
S315200032503A681344BB6152E0BB69002B0DDAB969A9
S315200032602E4B83FB01235A10CB17D21A13465B0031
S3152000327013449B00CA1A0C320BE0B969274B83FB17
S3152000328001235A10CB17D21A13465B0013449B0016
S31520003290CA1A7A61BB69002B08DABB691F4A82FB0E
S315200032A003125210DB17D31A013B06E0BB691B4AF7
S315200032B082FB03125210DB17D31A3B61184A7B6933
S315200032C052F82330FB603B69002B07DA3B69002B61
S315200032D0B8BF5B42FA6802FA03F303E0FA683B6977
S315200032E042FA03F3FB607B68FA690232F96843F815
S315200032F02210FB690133FB61BB690133BB617B682B
S31520003300D3F808213B681344BA699A42A4DD00BF6A
S3152000331000BF2437BD465DF8047B7047ABAAAA2AB6
S31520003320B089002080B485B000AF786039603B68F2
S31520003330BB600023FB6016E07B68D3F8F820FB68AF
S315200033409B0013441A687B68D3F80431D11AFB68B2
S315200033509B00BA6813447A68023152F821201A6019
S31520003360FB680133FB607B68D3F8FC30FA689A422D
S31520003370E2DB00BF00BF1437BD465DF8047B704713
S3152000338080B582B000AF78607B680E4A93420AD13E
S3152000339001214FF0007003F061FC00214FF0007016
S315200033A003F05CFC09E001214FF0806003F056FC3D
S315200033B000214FF0806003F051FC00BF0837BD4666
S315200033C080BD00BF0064004080B485B000AF786047
S315200033D039600023FB730023BB607B681B6823F0E6
S315200033E002027B681A607B681B6843F001027B68D7
S315200033F01A6002E0BB680133BB607B685B6803F040
S315200034000103012B04D0BB684FF6FF729342F1D122
S315200034107B685B6803F00103012B02D00023FB735A
S315200034209CE03B689B79012B06D17B681B6843F0A7
S3152000343080027B681A6005E07B681B6823F08002A7
S315200034407B681A603B68DB79012B06D17B681B6899
S3152000345043F040027B681A6005E07B681B6823F016
S3152000346040027B681A603B681B7A012B06D17B6879
S315200034701B6843F020027B681A6005E07B681B68A6
S3152000348023F020027B681A603B685B7A012B06D109
S315200034907B681B6843F010027B681A6005E07B6836
S315200034A01B6823F010027B681A603B689B7A012B0D
S315200034B006D17B681B6843F008027B681A6005E02A
S315200034C07B681B6823F008027B681A603B68DB7AFE
S315200034D0012B06D17B681B6843F004027B681A60C7
S315200034E005E07B681B6823F004027B681A603B6852
S315200034F09B789A073B68DB781B061A433B681B7947
S315200035001B041A433B685B791B051A433B681B88DF
S31520003510013B1A437B68DA617B681B6823F0010252
S315200035207B681A600023BB6002E0BB680133BB6086
S315200035307B685B6803F00103012B04D1BB684FF65F
S31520003540FF729342F1D17B685B6803F00103012B84
S3152000355002D10023FB7301E00123FB73FB7B18469A
S315200035601437BD465DF8047B704790B484B000AF35
S3152000357078600023FB607B689B7A1A460123934080
S31520003580FB605A4BD3F80032584A43F00103C2F885
S315200035900032564BD3F81C22FB68DB4353491340B9
S315200035A0C1F81C327B681B7B002B29D14F4BD3F8EB
S315200035B00C22FB68DB434D491340C1F80C327B6873
S315200035C0DB881B047A685288144648497A68927ABE
S315200035D0104643EA040200F1480341F833207B6891
S315200035E09B881B047A681288144640497A68927A26
S315200035F0104643EA040200F14803DB000B445A60FC
S315200036007B681B7B012B28D1384BD3F80C223749FA
S31520003610FB681343C1F80C327B681B881B047A684D
S315200036205288144631497A68927A104643EA04024F
S3152000363000F1480341F833207B689B881B047A6895
S31520003640D288144629497A68927A104643EA0402B7
S3152000365000F14803DB000B445A607B68DB7A002BC1
S3152000366009D1224BD3F80422FB68DB431F491340C0
S31520003670C1F8043207E01D4BD3F804221B49FB682E
S315200036801343C1F804327B681B89002B08D1174BE2
S31520003690D3F81422FB68DB4314491340C1F81432D3
S315200036A07B681B89012B07D1104BD3F814220F49B5
S315200036B0FB681343C1F814327B685B7B012B07D16F
S315200036C00A4BD3F81C220949FB681343C1F81C3264
S315200036D0064BD3F80032054A23F00103C2F8003224
S315200036E000BF1037BD4690BC704700BF0064004045
S315200036F080B483B000AF78607B6800229A717B68C3
S315200037000022DA717B6800221A727B6800225A72C4
S315200037107B6800229A727B680022DA727B6800221C
S315200037209A707B680022DA707B6803221A717B68A4
S3152000373002225A717B6801221A8000BF0C37BD46CF
S315200037405DF8047B704780B483B000AF0346FB71FD
S31520003750144BD3F80032134A43F00103C2F8003267
S31520003760104BD3F800320F4A23F47C5323F00E0378
S31520003770C2F800320B4BD3F80022FB791B02094911
S315200037801343C1F80032074BD3F80032054A23F021
S315200037900103C2F8003200BF0C37BD465DF8047B3A
S315200037A0704700BF0064004080B483B000AF7860EB
S315200037B00B46FB70FB78002B06D07B681B6843F416
S315200037C080327B681A6005E07B681B6823F48032B0
S315200037D07B681A6000BF0C37BD465DF8047B7047D6
S315200037E080B483B000AF78600B46FB70FB78002B6B
S315200037F01ED07B681B6843F080027B681A607B685A
S31520003800D3F8843143F480727B68C3F884217B68C3
S31520003810D3F8943143F480727B68C3F894217B6893
S31520003820D3F8A43143F480727B68C3F8A4211DE049
S315200038307B681B6823F080027B681A607B68D3F85C
S31520003840843123F480727B68C3F884217B68D3F8A3
S31520003850943123F480727B68C3F894217B68D3F873
S31520003860A43123F480727B68C3F8A42100BF0C37EF
S31520003870BD465DF8047B704780B485B000AF7860A4
S3152000388039600023FB737B689B6803F08063B3F188
S31520003890806F02D10023FB7315E07B689B6803F0E1
S315200038A00063B3F1006F02D10123FB730BE07B6849
S315200038B09B6803F08053B3F1805F02D10223FB7330
S315200038C001E00423FB73FB7B042B00F09F80FB7B32
S315200038D07A6818331B0113441A68FB7B02F0010235
S315200038E0796818331B010B441A603B681B7A002B3E
S315200038F013D1FB7B7A6818331B01134419683B6884
S315200039001B685B053A68527A1A43FB7B0A4379683F
S3152000391018331B010B441A6015E0FB7B7A681833B9
S315200039201B01134419683B685B68DB003A68127A0E
S3152000393013433A68527A1A43FB7B0A437968183351
S315200039401B010B441A603B689B7A03F00F03DAB223
S315200039503B689A72FB7B7A6818331B011344043345
S315200039601A68FB7B22F00F02796818331B010B447F
S3152000397004331A60FB7B7A6818331B011344043323
S315200039801A683B689B7A1946FB7B0A437968183389
S315200039901B010B4404331A603B689B7B1A063B6869
S315200039A05B7B1B041A433B681B7B1B021A433B6849
S315200039B0DB7A1946FB7B0A4379681B010B4403F526
S315200039C0C4731A603B689B7C1A063B685B7C1B04AD
S315200039D01A433B681B7C1B021A433B68DB7B194658
S315200039E0FB7B0A4379681B010B4403F5C6731A60F7
S315200039F0FB7B7A6818331B0113441A68FB7B42F061
S31520003A000102796818331B010B441A60FB7B1846A8
S31520003A101437BD465DF8047B704780B485B000AF8F
S31520003A2078600B46FB700023FB60FB78022B12D0DC
S31520003A30022B16DC002B02D0012B06D011E07B686E
S31520003A409A68314B1340FB600EE07B689A682F4BD7
S31520003A501340FB6008E07B689A682D4B1340FB609F
S31520003A6002E00023FB6000BFFB68294A93423DD059
S31520003A70FB68274A93423CD8FB68264A93422CD0BF
S31520003A80FB68244A934234D8FB68204A93422AD0C2
S31520003A90FB681E4A93422CD8FB681F4A934219D0D2
S31520003AA0FB681D4A934224D8FB68174A934217D0D5
S31520003AB0FB68154A93421CD8FB68002B04D0FB6890
S31520003AC0164A934203D014E00223FB6014E000233D
S31520003AD0FB6011E00023FB600EE00023FB600BE09F
S31520003AE00123FB6008E00123FB6005E00123FB6066
S31520003AF002E00023FB6000BFFB68DBB218461437E8
S31520003B00BD465DF8047B70470300000400030008EF
S31520003B10000003100000011000010008010000044D
S31520003B2080B483B000AF78600B46FB70FB78022B25
S31520003B3014D0022B19DC002B02D0012B07D014E065
S31520003B407B689B6843F080027B689A600EE07B6806
S31520003B509B6843F400427B689A6007E07B689B6819
S31520003B6043F400027B689A6000E000BF00BF0C3778
S31520003B70BD465DF8047B704780B485B000AFF86021
S31520003B800B467A60FB72FB7AFA681B331B011344DF
S31520003B901B68DBB203F00403DAB27B681A727B6817
S31520003BA01B7A002B0BD1FB7AFA681B331B011344BB
S31520003BB01B685B0DC3F30A027B681A600AE0FB7A76
S31520003BC0FA681B331B0113441B68DB0823F0604291
S31520003BD07B685A60FB7AFA681B331B0113441B6807
S31520003BE0DBB203F00203DAB27B685A72FB7AFA6818
S31520003BF01B331B01134404331B68DBB203F00F0392
S31520003C00DAB27B689A72FB7AFA681B331B0113447B
S31520003C1004331B681B0ADAB27B68DA74FB7AFA680B
S31520003C201B01134403F5DC731B68DAB27B68DA7276
S31520003C30FB7AFA681B01134403F5DC731B681B0A25
S31520003C40DAB27B681A73FB7AFA681B01134403F510
S31520003C50DC731B681B0CDAB27B685A73FB7AFA6832
S31520003C601B01134403F5DC731B681B0EDAB27B6859
S31520003C709A73FB7AFA681B01134403F5DE731B68FB
S31520003C80DAB27B68DA73FB7AFA681B01134403F510
S31520003C90DE731B681B0ADAB27B681A74FB7AFA6831
S31520003CA01B01134403F5DE731B681B0CDAB27B6819
S31520003CB05A74FB7AFA681B01134403F5DE731B68FA
S31520003CC01B0EDAB27B689A74FB7A002B06D1FB684E
S31520003CD0DB6843F02002FB68DA6005E0FB681B69BD
S31520003CE043F02002FB681A6100BF1437BD465DF819
S31520003CF0047B704780B483B000AF78600B46FB70BE
S31520003D00FB78002B06D17B68DB6843F020027B68BA
S31520003D10DA6005E07B681B6943F020027B681A6144
S31520003D2000BF0C37BD465DF8047B704780B485B074
S31520003D3000AF78600B46FB700023FB73FB78002BEB
S31520003D4006D17B68DB68DBB203F00303FB730BE071
S31520003D50FB78012B06D17B681B69DBB203F00303DA
S31520003D60FB7301E00023FB73FB7B18461437BD462B
S31520003D705DF8047B704780B485B000AF78600B4651
S31520003D80FB700023FB734FF6FF73BB60FB78002BA1
S31520003D9020D17B681B6823F0030343F001027B6874
S31520003DA01A6002E0BB68013BBB607B685B6803F07E
S31520003DB00303012B02D0BB68002BF3D17B685B6821
S31520003DC003F00303012B02D00023FB734AE00123F7
S31520003DD0FB7347E0FB78012B1ED17B681B6823F021
S31520003DE003027B681A6002E0BB68013BBB607B680C
S31520003DF05B6803F00303002B02D0BB68002BF3D1D2
S31520003E007B685B6803F00303002B02D00023FB735F
S31520003E1028E00123FB7325E0FB78022B20D17B6869
S31520003E201B6823F0030343F002027B681A6002E05A
S31520003E30BB68013BBB607B685B6803F00303022B16
S31520003E4002D0BB68002BF3D17B685B6803F00303C9
S31520003E50022B02D00023FB7304E00123FB7301E055
S31520003E600023FB73FB7B18461437BD465DF8047BA5
S31520003E70704780B485B000AF78600023FB737B6801
S31520003E801B6823F0030343F002027B681A607B68F9
S31520003E905B6803F00303022B01D10123FB73FB7B39
S31520003EA018461437BD465DF8047B704780B485B04C
S31520003EB000AF78604FF6FF73FB600023FB727B68D0
S31520003EC01B6823F002027B681A6002E0FB68013B54
S31520003ED0FB607B685B6803F00203022B02D1FB6860
S31520003EE0002BF3D17B685B6803F00203022B01D021
S31520003EF00123FB72FB7A18461437BD465DF8047B16
S31520003F00704780B485B000AF78600023FB737B6870
S31520003F109B69DBB203F07003FB73FB7B18461437F7
S31520003F20BD465DF8047B704780B485B000AF7860ED
S31520003F300023FB737B689B691B0EFB73FB7B184678
S31520003F401437BD465DF8047B704780B485B000AF5A
S31520003F5078600023FB737B689B691B0CFB73FB7BE0
S31520003F6018461437BD465DF8047B704780B485B08B
S31520003F7000AFF860B9601346FB71FB79002B06D0C1
S31520003F80FB685A69BB681A43FB685A6106E0FB68FE
S31520003F905A69BB68DB431A40FB685A6100BF143775
S31520003FA0BD465DF8047B704780B485B000AF78606D
S31520003FB039600023FB733B6803F47003002B0DD09C
S31520003FC07B689A693B681340C3F31303002B02D026
S31520003FD00123FB7348E00023FB7345E03B6803F0B5
S31520003FE08073002B0DD07B685A683B681340C3F35F
S31520003FF01303002B02D00123FB7335E00023FB7350
S3152000400032E03B6803F00063002B0DD07B689A6892
S315200040103B681340C3F31303002B02D00123FB7329
S3152000402022E00023FB731FE03B6803F00073002BA4
S315200040300DD07B68DA683B681340C3F31303002B6B
S3152000404002D00123FB730FE00023FB730CE07B6897
S315200040501A693B681340C3F31303002B02D00123D4
S31520004060FB7301E00023FB73FB7B18461437BD4628
S315200040705DF8047B704780B485B000AF7860396006
S315200040800023FB603B68174A934203D17B680022DA
S315200040909A6121E03B68C3F31303FB603B6803F09E
S315200040A00073002B03D07B68FA68DA6014E03B6863
S315200040B003F08063002B03D07B68FA681A610BE05B
S315200040C03B6803F00063002B03D07B68FA689A6094
S315200040D002E07B68FA685A6000BF1437BD465DF877
S315200040E0047B70477000F03080B584B000AF7860F4
S315200040F039600023FB737B685A693B681340002BA9
S3152000410000F01B813B68B3F5003F00F0DD803B6883
S31520004110B3F5003F00F20E813B68B3F5803F00F017
S31520004120CA803B68B3F5803F00F204813B68B3F553
S31520004130004F00F0F6803B68B3F5004F00F2FA809E
S315200041403B68B3F5006F00F0E3803B68B3F5006F82
S3152000415000F2F0803B68B3F5806F00F0D0803B68BA
S31520004160B3F5806F00F2E6803B68B3F5007F00F080
S31520004170BD803B68B3F5007F00F2DC803B68B3F579
S31520004180807F00F0AA803B68B3F5807F00F2D28062
S315200041903B68202B4CD83B68002B00F0CB803B683B
S315200041A0013B1F2B00F2C68001A252F823F000BF6C
S315200041B0394200204B420020354300205D4200203A
S315200041C03543002035430020354300206F42002030
S315200041D03543002035430020354300203543002059
S315200041E035430020354300203543002081420020FE
S315200041F03543002035430020354300203543002039
S315200042003543002035430020354300203543002028
S315200042103543002035430020354300203543002018
S3152000422035430020354300203543002093420020AB
S315200042303B68402B36D07DE07B689B684249184618
S3152000424000F060F90346FB7379E07B68DB680321A5
S31520004250184600F057F90346FB7370E07B68DB686D
S315200042600821184600F04EF90346FB7367E07B6889
S31520004270DB681021184600F045F90346FB735EE023
S315200042807B681B690321184600F03CF90346FB7343
S3152000429055E07B681B690821184600F033F9034670
S315200042A0FB734CE07B681B691021184600F02AF945
S315200042B00346FB7343E07B685B680821184600F0E1
S315200042C021F90346FB733AE07B685B6810211846A8
S315200042D000F018F90346FB7331E07B689B690121E6
S315200042E0184600F00FF90346FB7328E07B689B69AC
S315200042F00221184600F006F90346FB731FE07B688F
S315200043009B690421184600F0FDF80346FB7316E06E
S315200043107B689B697021184600F0F4F80346FB730E
S315200043200DE07B685B680421184600F0EBF8034635
S31520004330FB7304E00023FB7301E00023FB73FB7B8C
S3152000434018461037BD4680BD0101010080B483B0F8
S3152000435000AF786039603B68B3F5003F00F0AA8073
S315200043603B68B3F5003F00F2C3803B68B3F5803F5E
S3152000437000F09C803B68B3F5803F00F2B9803B6833
S31520004380B3F5004F00F0AD803B68B3F5004F00F267
S31520004390AF803B68B3F5006F00F09C803B68B3F5B7
S315200043A0006F00F2A5803B68B3F5806F00F08E8029
S315200043B03B68B3F5806F00F29B803B68B3F5007FC6
S315200043C000F080803B68B3F5007F00F291803B6867
S315200043D0B3F5807F72D03B68B3F5807F00F288808A
S315200043E03B68202B4AD83B68002B00F081803B6835
S315200043F0013B1F2B7CD801A252F823F085440020D4
S31520004400F1440020F14400208D440020F144002096
S31520004410F1440020F144002095440020F14400207E
S31520004420F1440020F1440020F1440020F144002012
S31520004430F1440020F1440020F1440020F144002002
S31520004440F1440020F1440020F1440020F1440020F2
S31520004450F1440020F1440020F1440020F1440020E2
S31520004460F1440020F1440020F1440020F1440020D2
S31520004470F1440020F14400209D4400203B68402B5D
S3152000448010D035E07B681E4A9A6032E07B680822AD
S31520004490DA602EE07B681022DA602AE07B68082248
S315200044A01A6126E07B6810221A6122E07B680822C6
S315200044B05A601EE07B6810225A601AE07B6804224C
S315200044C05A6016E07B6804225A6012E07B68042258
S315200044D05A600EE07B6800229A617B6804225A604B
S315200044E007E07B6800229A617B6804225A6000E01C
S315200044F000BF00BF0C37BD465DF8047B704700BF88
S315200045000101010080B485B000AF786039600023D6
S31520004510FB737A683B681340002B02D00123FB73A0
S3152000452001E00023FB73FB7B18461437BD465DF87C
S31520004530047B704780B500AF01214FF4804002F024
S31520004540ADFB00214FF4804002F0A8FB00BF80BDE8
S3152000455080B483B000AF0346FB71044AFB79136035
S3152000456000BF0C37BD465DF8047B7047003801401C
S3152000457080B483B000AF0346FB71044AFB79136015
S3152000458000BF0C37BD465DF8047B704720002742EC
S3152000459080B485B000AF03460A46FB711346BB7153
S315200045A00023FB60BB7903F003039B000F2202FA72
S315200045B003F3FB60164ABB799B08DBB2023352F841
S315200045C02320FB68DB431248B9798908C9B21A400F
S315200045D08B1C40F823200E4ABB799B08DBB20233A2
S315200045E052F82320F979BB7903F003039B0001FAE3
S315200045F003F30748B9798908C9B21A438B1C40F8D6
S31520004600232000BF1437BD465DF8047B704700BFEA
S315200046100038014080B483B000AF7860044A7B68DC
S31520004620136000BF0C37BD465DF8047B704700BFA2
S31520004630DC00274280B483B000AF0346FB71044AF6
S31520004640FB79136000BF0C37BD465DF8047B7047CD
S315200046500004274280B483B000AF0023FB71094BCE
S315200046601B6A03F48073002B02D00123FB7101E047
S315200046700023FB71FB7918460C37BD465DF8047B99
S31520004680704700BF0038014080B582B000AF786027
S315200046907B68604A934208D10121012002F0FEFA8C
S315200046A00021012002F0FAFAAFE07B68B3F1804FD7
S315200046B008D10121012002F0D1FA0021012002F0C7
S315200046C0CDFAA2E07B68544A934208D10121022008
S315200046D002F0C4FA0021022002F0C0FA95E07B68BD
S315200046E04E4A934208D10121042002F0B7FA002154
S315200046F0042002F0B3FA88E07B68494A934208D145
S315200047000121082002F0AAFA0021082002F0A6FAC8
S315200047107BE07B68434A934208D10121102002F0B6
S315200047209DFA0021102002F099FA6EE07B683E4A3D
S31520004730934208D10121202002F090FA0021202066
S3152000474002F08CFA61E07B68384A934208D1012155
S31520004750022002F0A3FA0021022002F09FFA54E080
S315200047607B68334A93420AD101214FF4803002F00C
S3152000477095FA00214FF4803002F090FA45E07B68EC
S315200047802C4A93420AD101214FF4003002F086FAD6
S3152000479000214FF4003002F081FA36E07B68264A89
S315200047A093420AD101214FF4802002F077FA0021AA
S315200047B04FF4802002F072FA27E07B681F4A93426A
S315200047C008D10121402002F049FA0021402002F0C0
S315200047D045FA1AE07B681A4A934208D101218020C3
S315200047E002F03CFA0021802002F038FA0DE07B68C6
S315200047F0144A934209D101214FF4807002F02EFA17
S3152000480000214FF4807002F029FA00BF0837BD4618
S3152000481080BD00BF000001400004004000080040A9
S31520004820000C00400010004000140040000401402D
S31520004830004001400044014000480140001800406B
S31520004840001C00400020004080B485B000AF786096
S3152000485039600023FB817B681B88FB817B68294AA2
S31520004860934213D07B68284A93420FD07B68B3F1DA
S31520004870804F0BD07B68254A934207D07B68244A19
S31520004880934203D07B68234A934208D1FB8923F0C5
S315200048907003FB813B685A88FB891343FB817B6845
S315200048A01D4A93420CD07B681C4A934208D0FB8950
S315200048B023F44073FB813B681A89FB891343FB81F0
S315200048C07B68FA891A803B685A687B68DA623B689B
S315200048D01A887B681A857B680A4A934203D07B68CC
S315200048E0094A934204D13B689B7A9AB27B681A861E
S315200048F07B6801229A8200BF1437BD465DF8047B8F
S31520004900704700BF00000140000401400004004041
S3152000491000080040000C0040001000400014004039
S3152000492080B483B000AF78607B684FF0FF325A6066
S315200049307B6800221A807B6800221A817B6800220D
S315200049405A807B6800229A7200BF0C37BD465DF8FC
S31520004950047B704780B483B000AF78600B467B80C1
S3152000496013463B807B687A881A857B683A889A82C8
S3152000497000BF0C37BD465DF8047B704780B485B018
S3152000498000AF78600B467B800023FB817B681B8809
S31520004990FB81FB8923F07003FB81FA897B88134313
S315200049A0FB817B68FA891A8000BF1437BD465DF803
S315200049B0047B704780B483B000AF786039607B6831
S315200049C03A685A6200BF0C37BD465DF8047B7047D3
S315200049D080B483B000AF786039607B683A68DA6269
S315200049E000BF0C37BD465DF8047B704780B483B0AA
S315200049F000AF78607B685B6A18460C37BD465DF869
S31520004A00047B704780B483B000AF78607B681B8DD1
S31520004A109BB218460C37BD465DF8047B704780B4C0
S31520004A2083B000AF78600B46FB70FB78002B08D074
S31520004A307B681B889BB243F002039AB27B681A807C
S31520004A4007E07B681B889BB223F002039AB27B683F
S31520004A501A8000BF0C37BD465DF8047B704780B4D2
S31520004A6083B000AF78600B467B807B88002B08D014
S31520004A707B681B889BB243F004039AB27B681A803A
S31520004A8007E07B681B889BB223F004039AB27B68FD
S31520004A901A8000BF0C37BD465DF8047B704780B492
S31520004AA083B000AF78600B46FB70FB78002B08D0F4
S31520004AB07B681B889BB243F080039AB27B681A807E
S31520004AC007E07B681B889BB223F080039AB27B6841
S31520004AD01A8000BF0C37BD465DF8047B704780B452
S31520004AE083B000AF78600B467B807B681B889BB2C7
S31520004AF023F008039AB27B681A807B681B889AB2D7
S31520004B007B8813439AB27B681A8000BF0C37BD4658
S31520004B105DF8047B704780B483B000AF78600B46A5
S31520004B207B807B681B889BB223F440739AB27B6898
S31520004B301A807B681B889AB27B8813439AB27B685B
S31520004B401A8000BF0C37BD465DF8047B704780B4E1
S31520004B5083B000AF78600B46FB70FB78002B08D043
S31520004B607B681B889BB243F001039AB27B681A804C
S31520004B7007E07B681B889BB223F001039AB27B680F
S31520004B801A8000BF0C37BD465DF8047B704780B4A1
S31520004B9085B000AF7860396000237B810023FB81DC
S31520004BA00023BB817B681B8C9BB223F001039AB246
S31520004BB07B681A847B681B8CFB817B689B88BB8106
S31520004BC07B681B8B7B817B8923F070037B817B89B0
S31520004BD023F003037B813B681A887B8913437B81FF
S31520004BE0FB8923F00203FB813B689A89FB891343E7
S31520004BF0FB813B685A88FB891343FB817B681F4AEC
S31520004C00934203D07B681E4A934223D1FB8923F02B
S31520004C100803FB813B68DA89FB891343FB81FB8907
S31520004C2023F00403FB813B689A88FB891343FB81AD
S31520004C30BB8923F48073BB81BB8923F40073BB81BA
S31520004C403B681A8ABB891343BB813B685A8ABB8956
S31520004C501343BB817B68BA899A807B687A891A83D9
S31520004C603B689A687B685A637B68FA891A8400BF16
S31520004C701437BD465DF8047B704700BF0000014035
S31520004C800004014080B485B000AF7860396000230D
S31520004C907B810023FB810023BB817B681B8C9BB21D
S31520004CA023F010039AB27B681A847B681B8CFB81E5
S31520004CB07B689B88BB817B681B8B7B817B8923F4EC
S31520004CC0E0437B817B8923F440737B813B681B888F
S31520004CD01B029AB27B8913437B81FB8923F0200335
S31520004CE0FB813B689B891B019AB2FB891343FB819D
S31520004CF03B685B881B019AB2FB891343FB817B6867
S31520004D00224A934203D07B68214A93422BD1FB89C6
S31520004D1023F08003FB813B68DB891B019AB2FB8968
S31520004D201343FB81FB8923F04003FB813B689B886F
S31520004D301B019AB2FB891343FB81BB8923F4806351
S31520004D40BB81BB8923F40063BB813B681B8A9B0024
S31520004D509AB2BB891343BB813B685B8A9B009AB29C
S31520004D60BB891343BB817B68BA899A807B687A8921
S31520004D701A833B689A687B689A637B68FA891A84E7
S31520004D8000BF1437BD465DF8047B70470000014024
S31520004D900004014080B485B000AF786039600023FC
S31520004DA07B810023FB810023BB817B681B8C9BB20C
S31520004DB023F480739AB27B681A847B681B8CFB81F0
S31520004DC07B689B88BB817B689B8B7B817B8923F05F
S31520004DD070037B817B8923F003037B813B681A88E0
S31520004DE07B8913437B81FB8923F40073FB813B681A
S31520004DF09B891B029AB2FB891343FB813B685B8824
S31520004E001B029AB2FB891343FB817B68224A934299
S31520004E1003D07B68214A93422BD1FB8923F400637C
S31520004E20FB813B68DB891B029AB2FB891343FB811A
S31520004E30FB8923F48063FB813B689B881B029AB223
S31520004E40FB891343FB81BB8923F48053BB81BB8938
S31520004E5023F40053BB813B681B8A1B019AB2BB8992
S31520004E601343BB813B685B8A1B019AB2BB89134300
S31520004E70BB817B68BA899A807B687A899A833B68EA
S31520004E809A687B68DA637B68FA891A8400BF1437CC
S31520004E90BD465DF8047B70470000014000040140D8
S31520004EA080B485B000AF786039600023BB810023D1
S31520004EB07B810023FB817B681B8C9BB223F4805370
S31520004EC09AB27B681A847B681B8C7B817B689B8863
S31520004ED0FB817B689B8BBB81BB8923F4E043BB8131
S31520004EE0BB8923F44073BB813B681B881B029AB2A3
S31520004EF0BB891343BB817B8923F400537B813B68A9
S31520004F009B891B039AB27B8913437B813B685B8811
S31520004F101B039AB27B8913437B817B68124A934297
S31520004F2003D07B68114A93420AD1FB8923F480433C
S31520004F30FB813B681B8A9B019AB2FB891343FB8149
S31520004F407B68FA899A807B68BA899A833B689A68D3
S31520004F507B681A647B687A891A8400BF1437BD4639
S31520004F605DF8047B704700BF00000140000401404B
S31520004F7080B483B000AF78607B6800221A807B689B
S31520004F8000225A807B6800229A807B6800229A60E1
S31520004F907B6800229A817B680022DA817B68002266
S31520004FA01A827B6800225A8200BF0C37BD465DF804
S31520004FB0047B704780B485B000AF78600B467B8059
S31520004FC013463B800023FB6000237B817B68FB60CC
S31520004FD0FB681833FB607B88012202FA03F37B818E
S31520004FE07B681B8C9AB27B89DB439BB213409AB2B7
S31520004FF07B681A847B88002B02D07B88082B14D1EF
S315200050007B885B089BB21A46FB681344FB60FB68EF
S315200050101968FA684FF68F730B401360FB6819689E
S315200050203A88FB680A431A6019E07B88043B9BB2E6
S315200050305B089BB21A46FB681344FB60FB68196841
S31520005040FA6848F6FF730B401360FB681A683B88C2
S315200050501B029BB21946FB680A431A6000BF00BFB9
S315200050601437BD465DF8047B704780B483B000AF2B
S31520005070786039607B683A685A6300BF0C37BD4652
S315200050805DF8047B704780B483B000AF78603960E8
S315200050907B683A689A6300BF0C37BD465DF8047B8F
S315200050A0704780B483B000AF786039607B683A6817
S315200050B0DA6300BF0C37BD465DF8047B704780B4C9
S315200050C083B000AF786039607B683A681A6400BFA5
S315200050D00C37BD465DF8047B704780B485B000AFC1
S315200050E078600B467B800023FB817B681B8BFB81D2
S315200050F0FB8923F07003FB81FA897B881343FB81AC
S315200051007B68FA891A8300BF1437BD465DF8047B95
S31520005110704780B485B000AF78600B467B80002353
S31520005120FB817B681B8BFB81FB8923F4E043FB819E
S315200051307B881B029AB2FB891343FB817B68FA8921
S315200051401A8300BF1437BD465DF8047B704780B4D0
S3152000515085B000AF78600B467B800023FB817B689F
S315200051609B8BFB81FB8923F07003FB81FA897B886B
S315200051701343FB817B68FA899A8300BF1437BD46A7
S315200051805DF8047B704780B485B000AF78600B462D
S315200051907B800023FB817B689B8BFB81FB8923F42F
S315200051A0E043FB817B881B029AB2FB891343FB8178
S315200051B07B68FA899A8300BF1437BD465DF8047B65
S315200051C0704780B485B000AF78600B467B800023A3
S315200051D0FB817B681B8BFB81FB8923F00803FB810A
S315200051E0FA897B881343FB817B68FA891A8300BF7F
S315200051F01437BD465DF8047B704780B485B000AF98
S3152000520078600B467B800023FB817B681B8BFB81B0
S31520005210FB8923F40063FB817B881B029AB2FB89FE
S315200052201343FB817B68FA891A8300BF1437BD4676
S315200052305DF8047B704780B485B000AF78600B467C
S315200052407B800023FB817B689B8BFB81FB8923F082
S315200052500803FB81FA897B881343FB817B68FA89E3
S315200052609A8300BF1437BD465DF8047B704780B42F
S3152000527085B000AF78600B467B800023FB817B687E
S315200052809B8BFB81FB8923F40063FB817B881B02BC
S315200052909AB2FB891343FB817B68FA899A8300BF04
S315200052A01437BD465DF8047B704780B485B000AFE7
S315200052B078600B467B800023FB817B681B8BFB8100
S315200052C0FB8923F00403FB81FA897B881343FB8146
S315200052D07B68FA891A8300BF1437BD465DF8047BC4
S315200052E0704780B485B000AF78600B467B80002382
S315200052F0FB817B681B8BFB81FB8923F48063FB810D
S315200053007B881B029AB2FB891343FB817B68FA894F
S315200053101A8300BF1437BD465DF8047B704780B4FE
S3152000532085B000AF78600B467B800023FB817B68CD
S315200053309B8BFB81FB8923F00403FB81FA897B8805
S315200053401343FB817B68FA899A8300BF1437BD46D5
S315200053505DF8047B704780B485B000AF78600B465B
S315200053607B800023FB817B689B8BFB81FB8923F45D
S315200053708063FB817B881B029AB2FB891343FB81E6
S315200053807B68FA899A8300BF1437BD465DF8047B93
S31520005390704780B485B000AF78600B467B800023D1
S315200053A0FB817B681B8BFB81FB8923F08003FB81C0
S315200053B0FA897B881343FB817B68FA891A8300BFAD
S315200053C01437BD465DF8047B704780B485B000AFC6
S315200053D078600B467B800023FB817B681B8BFB81DF
S315200053E0FB89C3F30E03FB817B881B029AB2FB89E0
S315200053F01343FB817B68FA891A8300BF1437BD46A5
S315200054005DF8047B704780B485B000AF78600B46AA
S315200054107B800023FB817B689B8BFB81FB8923F0B0
S315200054208003FB81FA897B881343FB817B68FA8999
S315200054309A8300BF1437BD465DF8047B704780B45D
S3152000544085B000AF78600B467B800023FB817B68AC
S315200054509B8BFB81FB89C3F30E03FB817B881B029D
S315200054609AB2FB891343FB817B68FA899A8300BF32
S315200054701437BD465DF8047B704780B485B000AF15
S3152000548078600B467B800023FB817B681B8CFB812D
S31520005490FB8923F00203FB81FA897B881343FB8176
S315200054A07B68FA891A8400BF1437BD465DF8047BF1
S315200054B0704780B485B000AF78600B467B800023B0
S315200054C0FB817B681B8CFB81FB8923F00803FB8116
S315200054D0FA897B881343FB817B68FA891A8400BF8B
S315200054E01437BD465DF8047B704780B485B000AFA5
S315200054F078600B467B800023FB817B681B8CFB81BD
